:020000040800F2
:1000000000000220B9020008DD2D0008E12D0008E3
:10001000E52D0008E92D0008ED2D00080000000086
:10002000000000000000000000000000F12D0008AA
:10003000F52D000800000000F92D0008FD2D000836
:10004000BD030008BD030008BD030008BD03000890
:10005000BD030008BD030008BD030008BD03000880
:10006000BD030008BD030008BD030008BD03000870
:10007000BD030008BD030008BD030008BD03000860
:10008000BD030008BD030008BD030008BD03000850
:10009000BD030008BD030008BD030008BD03000840
:1000A000BD030008BD030008BD030008BD03000830
:1000B000BD030008BD030008BD030008BD03000820
:1000C000BD030008BD030008BD030008BD03000810
:1000D000BD030008BD030008BD030008BD03000800
:1000E000BD030008BD030008BD030008BD030008F0
:1000F000BD030008BD030008BD030008BD030008E0
:10010000BD030008BD030008BD030008BD030008CF
:10011000052E0008BD030008BD030008BD0300084C
:10012000BD030008BD030008BD030008BD030008AF
:10013000BD0300080000000000000000BD0300082F
:10014000BD030008BD030008BD030008BD0300088F
:10015000BD030008BD030008BD030008BD0300087F
:10016000BD030008BD030008BD030008BD0300086F
:10017000BD030008BD0300080000000000000000EF
:10018000BD030008BD03000800B583B002F070F99C
:10019000384B394A1360394A136039490CE00A6810
:1001A0004B6801F10C04886803E01168196004339E
:1001B00004329842F9D82146324B9942EFD32E4B64
:1001C0001A68314B9A4204D12C4B1A682F4B9A4231
:1001D00000D0FEE7274B2E4A13602E4A13602E4BA9
:1001E0000AE0194651F8082B5B6802E00020106015
:1001F00004329A42FAD30B46284A9342F1D3244B55
:100200001B6813B9234B1B6803B1FEE702F078FAB1
:10021000694601A802F0CAF8214C224B1C1BA4100D
:10022000002504E01E4B53F8253098470135AC42B9
:10023000F8DC1D4C1D4B1C1BA410002504E01A4BC0
:1002400053F8253098470135AC42F8DC0099019805
:1002500002F010FD0546164C164B1C1BA41004E0C2
:10026000013C134B53F824309847002CF8DC284607
:1002700002F06EF8BABADECA000000208800002042
:10028000C0030008D8030008785634123254769818
:100290008C00002020040020D8030008E803000898
:1002A000E8030008E8030008E8030008E803000882
:1002B000E8030008E803000808B5FFF765FF00BF82
:1002C00000BEFEE71EF0040F0CBFEFF30880EFF353
:1002D00009807146364A10472DE9F04182B0044644
:1002E0008846084B5E6B9F6B9D6A074802F070F86A
:1002F000CDF800803B4632462946204602F0C4F83D
:1003000000BEFEE700ED00E05442000800BEFEE73C
:100310001EF0040F0CBFEFF30880EFF30980714665
:10032000244A10472DE9F04182B004468846084B24
:100330005E6B9F6B9D6A074802F04AF8CDF800801B
:100340003B4632462946204602F09EF800BEFEE7B4
:1003500000ED00E0644200081EF0040F0CBFEFF354
:100360000880EFF309807146134A10472DE9F041E8
:1003700082B004468846084B5E6B9F6B9D6A0748B7
:1003800002F026F8CDF800803B463246294620464A
:1003900002F07AF800BEFEE700ED00E070420008CF
:1003A00000BEFEE700BEFEE700BEFEE770470000AD
:1003B000D9020008250300086D03000800BEFEE70F
:1003C00044430008000000208C0000204443000843
:1003D00000000010000000108C0000202404002009
:0803E0000000001000000010F5
:1003F00010B50446074B1B680748A0FB0330800973
:1004000000F0AAF8002221464FF0FF3000F04CF82F
:10041000002010BD0C000020D34D621008B50B4B1E
:100420001A6842F400721A601A6842F480621A6014
:100430001A6842F480721A60032000F017F80F2047
:10044000FFF7D6FF02F0C8FC002008BD003C0240C8
:10045000024A136801331360704700BF2001002077
:10046000014B1868704700BF2001002010B50446FA
:10047000C31E042B03D9A421094801F09FFF094A98
:10048000D36823F4E0631B041B0C240204F4E0642F
:10049000234343F0BF6343F40033D36010BD00BF78
:1004A000883F000800ED00E070B504460E46154692
:1004B0000F2A03D9BC211A4801F080FF0F2E03D95F
:1004C000BD21174801F07AFF164BDA68C2F3022209
:1004D000C2F10701042928BF0421131D062B01D9ED
:1004E000033A00E00022012303FA01F1013931400F
:1004F000914003FA02F2013A2A400A43002C06DA3C
:1005000004F00F041201D2B2074B1A5570BD12014C
:10051000D2B204F1604404F5614484F8002370BD54
:10052000883F000800ED00E014ED00E010B5041E67
:1005300003DAD021064801F041FF620904F01F04EC
:10054000012303FA04F4034B43F8224010BD00BF1B
:10055000883F000800E100E00138B0F1807F0AD256
:10056000064B5860F021064A82F82310002098605C
:1005700007221A6070470120704700BF10E000E0BA
:1005800000ED00E010B50446042805D020B140F28B
:10059000B311084801F012FF042C05D1064A136874
:1005A00043F00403136010BD034A136823F00403EF
:1005B000136010BD883F000810E000E090F835306F
:1005C000DBB2022B03D08023436501207047052353
:1005D00080F835300268136823F0010313600020AF
:1005E000704700BF2DE9F04782B080460F46A14B0F
:1005F000984223D003F5806398421FD003F58063AF
:1006000098421BD003F58063984217D003F58063AE
:10061000984213D003F5806398420FD003F58063AE
:1006200098420BD003F58063984207D003F58063AE
:10063000984203D0C521904801F0C0FE3B881BB909
:10064000C6218D4801F0BAFE7B68012B22D9112BFF
:1006500020D0022B1ED0122B1CD0884A934219D0D6
:1006600002F58012934215D002F58012934211D008
:10067000A2F5F81293420DD002F58012934209D0F0
:1006800002F58012934205D0032B03D0C7217A488C
:1006900001F094FEBB68022B03D9C821764801F013
:1006A0008DFE002526E10124AC403E682640B44280
:1006B00040F01F817B68022B01D0122B45D13B6992
:1006C0009BB3092B31D083B37BB373B36BB3012BD3
:1006D0002BD02AD0022B28D027D026D0032B24D0F1
:1006E000042B22D021D020D0052B1ED01DD0092BC9
:1006F0001BD0062B19D0092B17D0072B15D014D0DF
:1007000013D0082B11D010D00FD0092B0DD00CD046
:100710000A2B0AD009D00C2B07D006D005D00F2BFE
:1007200003D0D921544801F049FEEA08083258F8AC
:10073000220005F0070399000F238B4020EA0300F5
:100740003B698B40034348F82230D8F800304FEA29
:10075000450A4FF0030909FA0AF96FEA090903EAA1
:1007600009027B6803F0030303FA0AF31343C8F892
:1007700000307B685A1E012A03D9112B01D0122B9D
:100780001BD1FB68032B03D9EC213B4801F016FE7B
:10079000D8F8083009EA0302FB6803FA0AF31343A6
:1007A000C8F80830D8F8043023EA04047B68C3F39F
:1007B0000013AB401C43C8F80440D8F80C3009EAD9
:1007C0000309BB6803FA0AF349EA0303C8F80C30CB
:1007D0007B6813F0805F00F08C8000230193284B2E
:1007E0005A6C42F480425A645B6C03F48043019378
:1007F000019BA9088A1C234B53F8220005F0030330
:100800009B000F229A4020EA02001A4A904521D00C
:1008100002F5806290451FD002F5806290451DD0A0
:1008200002F5806290451BD002F58062904519D098
:1008300002F58062904517D002F58062904515D090
:1008400002F58062904513D002F5806290451BD17D
:1008500008221AE0002218E0012216E0022214E029
:10086000032212E0042210E005220EE006220CE032
:1008700007220AE000000240BC3F000800001110FF
:100880000038024000380140092202FA03F3034312
:1008900002311B4A42F821301A4B1A68F34302EA2C
:1008A0000301786810F4803F01D046EA0201154A3E
:1008B0001160526803EA0201786810F4003F01D029
:1008C00046EA02010F4A5160926803EA0201786821
:1008D00010F4801F01D046EA02010A4A9160D268F2
:1008E0001340796811F4001F01D046EA0203054A5B
:1008F000D36001350F2D7FF6D6AE02B0BDE8F0878C
:1009000000380140003C014070B5064615460C46D3
:1009100021B940F2B111084801F050FD012D04D970
:100920004FF4D971044801F049FD0DB1B46170BDB7
:100930002404B46170BD00BFBC3F000803685A695D
:1009400012F4806F0DD06FF480625A610423036447
:1009500000230363202280F83D2080F83C300120F2
:1009600070470020704700BFF8B506460C46174692
:100970001D4612E0B5F1FF3F0FD02DB1FFF770FD1E
:10098000069BC01A854208D200233363202286F8D2
:100990003D2086F83C300320F8BDC4F30743012B0B
:1009A00008D133685B6924EA03039BB2B3FA83F38B
:1009B0005B0907E033689B6924EA03039BB2B3FA3F
:1009C00083F35B09BB42D5D00020F8BDF8B50446DF
:1009D0000D4616461F4629E023685A6912F4806FB7
:1009E00012D01A6842F400721A6023686FF48062B1
:1009F0005A610423236400232363202284F83D20CA
:100A000084F83C300120F8BDB6F1FF3F0ED026B18E
:100A1000FFF726FDC01B864208D200232363202255
:100A200084F83D2084F83C300320F8BDC5F307432B
:100A3000012B08D123685B6925EA03039BB20033CD
:100A400018BF012307E023689B6925EA03039BB2D3
:100A5000003318BF0123002BBED10020F8BD00BF1A
:100A6000F0B583B004460F4615461E46C36A042BF4
:100A700004D0012B02D013F5803F05D12268136802
:100A800043F48073136007E0036B122B04D10268F8
:100A9000136843F48073136000962B4600224FF0D6
:100AA00001112046FFF760FF58BB2369B3F5804F63
:100AB00004D1236807F0FE071F6115E02268FB11CF
:100AC00003F0060343F0F003136133462A4611494D
:100AD0002046FFF77BFF20B1236C042B13D10123A9
:100AE00014E02368FFB21F6133462A460A492046B4
:100AF000FFF76CFF034648B1236C042B05D101239B
:100B000004E0032302E0032300E00323184603B0BC
:100B1000F0BD00BF08000100020001002DE9F04116
:100B200084B004460F4615461E46C36A042B04D003
:100B3000012B02D013F5803F0AD12268136843F4D9
:100B4000806313602268136843F4807313600CE0C1
:100B5000036B112B09D10268136843F4806313609F
:100B60000268136843F48073136000962B460022DA
:100B70004FF001112046FFF7F7FE002851D12369FD
:100B8000B3F5804F05D1236847F00107FFB21F611D
:100B90003AE023684FEAE71808F0060848F0F00248
:100BA0001A6133462A4625492046FFF70FFF20B138
:100BB000236C042B37D101233CE02368FFB21F6173
:100BC00033462A461E492046FFF700FF20B1236C1A
:100BD000042B2AD101232DE00022039223685969B6
:100BE0000391996903910399196841F4807119601F
:100BF00000962B464FF001112046FFF7B5FEB0B925
:100C0000226848F0F103136133462A460C49204616
:100C1000FFF7DCFE034668B1236C042B09D10123E6
:100C200008E0032306E0032304E0032302E0032398
:100C300000E00323184604B0BDE8F081080001007D
:100C40000200010070B504460D46164619E0204624
:100C5000FFF774FEE0B9B5F1FF3F12D025B1FFF701
:100C6000FFFB801B85420CD2236C43F020032364DE
:100C700000232363202284F83D2084F83C300320A5
:100C800070BD23685B6913F0800FE0D0002070BD59
:100C9000012070BD70B504460D46164619E0204689
:100CA000FFF74CFEE0B9B5F1FF3F12D025B1FFF7D9
:100CB000D7FB801B85420CD2236C43F020032364B6
:100CC00000232363202284F83D2084F83C30032055
:100CD00070BD23685B6913F0040FE0D0002070BD85
:100CE000012070BD70B505460C46164622E05A69D3
:100CF00012F0100F0CD06FF010025A6100232B6419
:100D00002B63202285F83D2085F83C30012070BD02
:100D100024B1FFF7A5FB801B84420BD22B6C43F060
:100D200020032B64202385F83D30002385F83C30D8
:100D3000032070BD2B685A6912F0400FD7D00020F5
:100D400070BD00BF704700BF002800F0E38038B5D9
:100D500004460368704A93420CD002F580629342C5
:100D600008D002F58062934204D040F265116B48CE
:100D700001F024FB6368013B694A934204D94FF4B4
:100D8000B371664801F01AFBA3683BB1B3F5804F1D
:100D900004D040F26711614801F010FBE36823F4CE
:100DA0007F7323F0030323B14FF4B4715B4801F068
:100DB00005FB2369B3F5804F07D0B3F5404F04D04E
:100DC00040F26911554801F0F9FA6369012B04D921
:100DD0004FF4B571514801F0F1FAA36933F0FE0305
:100DE00004D040F26B114D4801F0E8FAE36933B1E9
:100DF000402B04D04FF4B671484801F0DFFA236A63
:100E000033B1802B04D040F26D11444801F0D6FA82
:100E100094F83D3013F0FF0F05D1002384F83C30E7
:100E20002046FFF78FFF242384F83D3022681368A3
:100E300023F00103136000F0FBFD3A4BA3FB0023FA
:100E40009B0C2268536021686568374A954201D837
:100E5000013308E04FF4967202FB03F3334AA2FB1E
:100E600003239B0901330B62216863682E4A934276
:100E700008D85B00B0FBF3F0C0F30B03032B2BD8B7
:100E8000042029E0A5684DB903EB4302B0FBF2F260
:100E9000C2F30B02B2FA82F252090AE003EB8302B8
:100EA00002EB8202B0FBF2F2C2F30B02B2FA82F260
:100EB000520982B935B903EB4303B0FBF3F040F4B8
:100EC000004009E003EB830303EB8303B0FBF3F083
:100ED00040F4404000E00120C8612268E169236AD3
:100EE0000B43136022682169E3680B439360226817
:100EF0006169A3690B43D3602268136843F001035F
:100F0000136000202064202384F83D30206384F89F
:100F10003E0038BD0120704700540040EC3F0008FF
:100F20007F1A060083DE1B43A0860100D34D6210AA
:100F30002DE9F04184B004460D4690461F46FFF768
:100F40008FFA94F83D30DBB2202B40F08B800646C0
:100F50000090192301224A492046FFF705FD002889
:100F600040F0828094F83C30012B7FD0012384F83C
:100F70003C302268136823F400631360212384F853
:100F80003D30102384F83E3000232364A3F58033E2
:100F9000E36233460A9A29462046FFF761FD05467B
:100FA00060B1236C042B04D1002384F83C3001256C
:100FB00061E0002384F83C3003255CE000230393C8
:100FC00023685A6903929B690393039B3AE0324674
:100FD0000A992046FFF736FE48B1236C042B47D10F
:100FE0002268136843F400731360012543E023680B
:100FF00008F1010098F800201A617B1E9BB222685C
:10100000516911F0040F08D053B198F80130136101
:10101000023FBFB208F1020804E01F46804601E02B
:101020001F46804632460A992046FFF733FE48B1F4
:10103000236C042B1ED12268136843F400731360E1
:10104000012518E0002FC2D12268136843F4007311
:101050001360202384F83D30002384F83E3084F868
:101060003C3008E0022506E0022504E0022502E00B
:10107000032500E00325284604B0BDE8F08100BF49
:10108000020010002DE9F04186B004460D461746D7
:101090001E46FFF7E5F994F83D30DBB2202B40F017
:1010A0000481804600901923012289492046FFF7D8
:1010B0005BFC002840F0FB8094F83C30012B00F0F2
:1010C000F880012384F83C302268136823F400631D
:1010D0001360222384F83D30102384F83E3000232F
:1010E0002364A3F58033E36243460C9A29462046E5
:1010F000FFF714FD054660B1236C042B04D10023D7
:1011000084F83C300125DFE0002384F83C300325DF
:10111000DAE066B90023029323685A6902929A6959
:101120000292029A1A6842F400721A60B2E0012E2A
:1011300011D12268136823F48063136000230393A2
:1011400023685A6903929A690392039A1A6842F4CF
:1011500000721A609EE0022E12D12268136823F4F6
:10116000806313602268136843F4006313600023F4
:10117000049323685A6904929B690493049B89E051
:101180002268136843F48063136000230593236887
:101190005A6905929B690593059B7BE0032E5BD8FA
:1011A000012E11D142460C992046FFF79BFD20B13C
:1011B000236C202B7FD1032586E023681B693B70BD
:1011C000013EB6B2013765E0022E1AD1CDF800809B
:1011D0000C9B00223F492046FFF7C6FB00286CD13C
:1011E0002268136843F40073136023681A693B464E
:1011F00003F8022B226812697A70023EB6B21F46CB
:1012000048E0CDF800800C9B002232492046FFF7D1
:10121000ABFB002853D12268136823F4806313606A
:1012200023681B693B70CDF800800C9B0022294984
:101230002046FFF799FB002843D12268136843F446
:101240000073136023681B697B7023681B69BB7084
:10125000033EB6B203371DE042460C992046FFF725
:1012600041FD20B1236C202B2DD103252CE0781CCF
:1012700023681B693B70731E9BB22268516911F091
:10128000040F05D013697B70023EB6B2023701E04D
:101290001E460746002E81D1202384F83D300023CE
:1012A00084F83E3084F83C300EE002250CE0022544
:1012B0000AE0022508E0012506E0032504E00325F5
:1012C00002E0032500E00125284606B0BDE8F081D4
:1012D000020010000400010030B583B0044603682A
:1012E0000F2B03D9F5219C4801F068F8236813F00F
:1012F000010F45D06368012B05D9052B03D0FA21D6
:10130000954801F05BF8954B9B6803F00C03042BA8
:101310000AD0924B9B6803F00C03082B0CD18F4B27
:101320005B6813F4800F07D08C4B1B6813F4003FED
:1013300026D0636823BBCCE12279894B1A7063689D
:101340007BB1FFF78DF8054605E0FFF789F8401BF4
:10135000642800F2C081814B1B6813F4003FF4D075
:101360000EE0FFF77DF8054605E0FFF779F8401B32
:10137000642800F2B281794B1B6813F4003FF4D16A
:10138000236813F0020F6AD0E368012B04D94FF4ED
:101390009671714801F012F823691F2B04D940F2AD
:1013A0002D116D4801F00AF86C4B9B6813F00C0F7F
:1013B0000AD06A4B9B6803F00C03082B1BD1674BC8
:1013C0005B6813F4800F16D1644B1B6813F0020F97
:1013D00003D0E368012B40F082816048036823F06A
:1013E000F8012369F82292FAA2F2B2FA82F293404B
:1013F0000B43036033E0E368FBB10122594B1A60F1
:10140000FFF72EF8054605E0FFF72AF8401B0228F3
:1014100000F26781514B1B6813F0020FF4D04F4864
:10142000036823F0F8012369F82292FAA2F2B2FAD3
:1014300082F293400B43036011E00022494B1A6093
:10144000FFF70EF8054605E0FFF70AF8401B0228F3
:1014500000F24981414B1B6813F0020FF4D123685D
:1014600013F0080F2ED06369012B04D940F26D11DF
:10147000394800F0A3FF636993B101223A4B1A6027
:10148000FEF7EEFF054605E0FEF7EAFF401B0228E7
:1014900000F22B81314B5B6F13F0020FF4D011E09F
:1014A0000022314B1A60FEF7DBFF054605E0FEF730
:1014B000D7FF401B022800F21A81284B5B6F13F004
:1014C000020FF4D1236813F0040F60D0A368012B3E
:1014D00006D9052B04D040F297111F4800F06EFF8B
:1014E000002301931D4B1A6C42F080521A641B6C4E
:1014F00003F080530193019B1C4A136843F48073EB
:101500001360FEF7ADFF054605E0FEF7A9FF401B9F
:10151000022800F2EE80154B1B6813F4807FF4D094
:10152000227A134B1A70A3688BB1FEF799FF054618
:1015300007E0FEF795FF401B41F28833984200F226
:10154000DA80064B1B6F13F0020FF2D01FE0FEF79C
:1015500087FF054616E000BF2C4000080038024017
:101560000238024000004742800E474200700040AF
:1015700070380240FEF774FF401B41F288339842F6
:1015800000F2BB80634B1B6F13F0020FF2D1A36913
:10159000022B04D94FF4E6715F4800F00FFFA369F6
:1015A000002B00F0AC805B4A926802F00C02082A23
:1015B00000F0A780022B79D1E3693BB1B3F5800F2E
:1015C00004D040F2D511544800F0F8FE236A3F2BB6
:1015D00004D94FF4EB71504800F0F0FE636A323BDF
:1015E000B3F5BF7F04D940F2D7114B4800F0E6FEB7
:1015F000A36A022B0AD0042B08D0062B06D0082B96
:1016000004D04FF4EC71444800F0D8FEE36A043B88
:101610000B2B04D940F2D9113F4800F0CFFE002235
:101620003E4B1A60FEF71CFF054604E0FEF718FF6C
:10163000401B022867D8374B1B6813F0007FF5D199
:10164000E169236A1943636A47F6C07292FAA2F20B
:10165000B2FA82F293401943A36A5B085A1E4FF410
:10166000403393FAA3F3B3FA83F302FA03F30B4381
:10167000E26A4FF0706191FAA1F1B1FA81F18A400A
:101680001343244A53600122244B1A60FEF7E8FEFC
:10169000044604E0FEF7E4FE001B022835D81D4B8B
:1016A0001B6813F0007FF5D0002031E000221B4BB7
:1016B0001A60FEF7D5FE044604E0FEF7D1FE001BDB
:1016C000022824D8134B1B6813F0007FF5D10020AB
:1016D0001EE001201CE003201AE0032018E0012096
:1016E00016E0032014E0032012E0032010E00320A2
:1016F0000EE003200CE003200AE0032008E00020B5
:1017000006E0012004E0032002E0032000E00320C3
:1017100003B030BD003802402C4000086000474252
:10172000244B9B6803F00C03042B3FD0082B01D003
:101730002148704710B41F4B586800F03F005B68A9
:1017400013F4800F10D01D4BB3FBF0F0194B5A6807
:1017500047F6C0710A4091FAA1F3B3FA83F322FA73
:1017600003F303FB00F310E0134BB3FBF0F0114B5A
:101770005A6847F6C07402EA040194FAA4F2B2FA75
:1017800082F221FA02F202FB00F30A4A506800F4E6
:1017900040324FF4403090FAA0F0B0FA80F022FAD4
:1017A00000F001304000B3FBF0F001E00348704767
:1017B00010BC7047003802400024F40040787D01DE
:1017C00070B504460D460368013B0E2B04D940F268
:1017D00037218F4800F0F2FD072D04D94FF40E7128
:1017E0008B4800F0EBFD8B4B1B6803F00F039D4211
:1017F00008D9EBB2874A1370136803F00F039D42B8
:1018000040F0F480236813F0020F1DD0A368A3B149
:10181000802B12D0902B10D0A02B0ED0B02B0CD040
:10182000C02B0AD0D02B08D0E02B06D0F02B04D050
:1018300040F24F21764800F0C1FD77498B6823F0D4
:10184000F002A36813438B60236813F0010F6BD081
:101850006368032B04D940F256216D4800F0AEFDB9
:101860006268012A05D16C4B1B6813F4003F0FD14D
:10187000BEE0931E012B05D8674B1B6813F0007F59
:1018800006D1B7E0644B1B6813F0020F00F0B48080
:1018900061498B6823F0030313438B60FEF7E0FD7F
:1018A00006466368012B0FD107E0FEF7D9FD801BC8
:1018B00041F28833984200F2A180574B9B6803F0B5
:1018C0000C03042BF1D12FE0022B0FD107E0FEF720
:1018D000C7FD801B41F28833984200F291804E4B45
:1018E0009B6803F00C03082BF1D11DE0032B16D1EC
:1018F00007E0FEF7B5FD801B41F28833984200F205
:101900008180454B9B6803F00C030C2BF1D10BE05D
:10191000FEF7A6FD801B41F28833984274D83E4BF7
:101920009B6813F00C0FF3D13A4B1B6803F00F03C5
:101930009D4207D2EAB2374B1A701B6803F00F03BF
:101940009D4263D1236813F0040F19D0E36883B17B
:10195000B3F5805F0DD0B3F5A05F0AD0B3F5C05FDB
:1019600007D0B3F5E05F04D04FF42D71284800F0A4
:1019700025FD29498B6823F4E052E36813438B600B
:10198000236813F0080F1AD0236983B1B3F5805F81
:101990000DD0B3F5A05F0AD0B3F5C05F07D0B3F5A3
:1019A000E05F04D040F2BB21194800F007FD1A4A5D
:1019B000936823F46043216943EAC1039360FFF70E
:1019C000AFFE154B9B6803F0F002F02393FAA3F3EC
:1019D000B3FA83F322FA03F3104AD35CD840104BD6
:1019E00018600F20FEF704FD002070BD012070BDBF
:1019F000012070BD012070BD012070BD032070BDAD
:101A0000032070BD032070BD032070BD012070BD98
:101A10002C400008003C0240003802401C400008F6
:101A20000C000020014B1868704700BF0C0000201C
:101A300008B5FFF7F7FF084B9B6803F4E0524FF43B
:101A4000E05393FAA3F3B3FA83F322FA03F3034ABE
:101A5000D35CD84008BD00BF003802401C400008DD
:101A600008B5FFF7DFFF084B9B6803F460424FF4B3
:101A7000604393FAA3F3B3FA83F322FA03F3034A1E
:101A8000D35CD84008BD00BF003802401C400008AD
:101A90000268D36823F49073D3600268536923F01B
:101AA00001035361202380F83A30704790F83930B1
:101AB000DBB2212B2AD18368B3F5805F0FD1036A93
:101AC00002681B88C3F30803536003691BB9036AE8
:101AD0000233036209E0036A0133036205E002682E
:101AE000036A591C01621B785360C38C013B9BB293
:101AF000C3846BB90268D36823F08003D3600268A3
:101B0000D36843F04003D360002070470220704741
:101B1000002070472DE9F84304464268B14B9A42D1
:101B200004D940F24F71B04800F048FCE3683BB183
:101B3000B3F5005F04D04FF4EA61AB4800F03EFC1F
:101B4000236953B1B3F5806F07D0B3F5C06F04D0EC
:101B500040F25171A44800F031FC63694FF6F37212
:101B6000134200D123B940F252719F4800F026FC85
:101B700021680B6923F44052E36813430B6120682A
:101B8000C36823F4164222F00C02A16823691943AA
:101B900063691943E3690B431343C36021684B69CD
:101BA00023F44072A36913434B61E369B3F5004F1B
:101BB00040F0BB80276803F1804303F510439F4248
:101BC00003D003F580639F4257D1FFF749FF00EB35
:101BD000800000EB800065686D00B0FBF5F5834E7A
:101BE000A6FB05356D092D01FFF73AFF00EB8000DC
:101BF00000EB800063685B00B0FBF3F9FFF730FF98
:101C000000EB800000EB800063685B00B0FBF3F347
:101C1000A6FB03235B094FF0640808FB1393DB006A
:101C20003233A6FB03235B095B0003F4F8731D4406
:101C3000FFF716FF00EB800000EB800063685B009D
:101C4000B0FBF3F9FFF70CFF00EB800000EB800026
:101C500063685B00B0FBF3F3A6FB03235B0908FB9F
:101C600013984FEAC80808F13208A6FB0836C6F3F5
:101C700042163544BD60BDE8F883FFF7D9FE00EB9E
:101C8000800000EB800065686D00B0FBF5F5574EF5
:101C9000A6FB05356D092D01FFF7CAFE00EB80009C
:101CA00000EB800063685B00B0FBF3F9FFF7C0FE58
:101CB00000EB800000EB800063685B00B0FBF3F397
:101CC000A6FB03235B094FF0640808FB1393DB00BA
:101CD0003233A6FB03235B095B0003F4F8731D4456
:101CE000FFF7A6FE00EB800000EB800063685B005E
:101CF000B0FBF3F9FFF79CFE00EB800000EB8000E7
:101D000063685B00B0FBF3F3A6FB03235B0908FBEE
:101D100013984FEAC80808F13208A6FB0836C6F344
:101D200042163544BD60BDE8F8832668304B9E42BC
:101D300003D003F580639E425CD1FFF791FE00EB78
:101D4000800000EB80006568AD00B0FBF5F5274F23
:101D5000A7FB05356D092D01FFF782FE00EB800022
:101D600000EB800063689B00B0FBF3F8FFF778FEA0
:101D700000EB800000EB800063689B00B0FBF3F396
:101D8000A7FB03235B094FF0640909FB13831B01C5
:101D90003233A7FB03235B0903F0F0031D44FFF775
:101DA0005FFE00EB800000EB800063689B00B0FBEF
:101DB000F3F8FFF755FE00EB800000EB800063684E
:101DC0009B00B0FBF3F3A7FB03235B0909FB138321
:101DD0001B013233A7FB0323C3F343131D44B56038
:101DE000BDE8F883A037A0005C4000081F85EB51D8
:101DF00000100140FFF71CFE00EB800000EB8000AC
:101E00006568AD00B0FBF5F5254FA7FB05356D09FD
:101E10002D01FFF70DFE00EB800000EB80006368F2
:101E20009B00B0FBF3F8FFF703FE00EB800000EB34
:101E3000800063689B00B0FBF3F3A7FB03235B09FF
:101E40004FF0640909FB13831B013233A7FB032303
:101E50005B0903F0F0031D44FFF7EAFD00EB80008F
:101E600000EB800063689B00B0FBF3F8FFF7E0FD38
:101E700000EB800000EB800063689B00B0FBF3F395
:101E8000A7FB03235B0909FB13831B013233A7FB69
:101E90000323C3F343131D44B560BDE8F88300BFBB
:101EA0001F85EB512DE9F04105460F461646984631
:101EB000069C1EE0B4F1FF3F1BD02CB1FEF7D0FA18
:101EC000C8EB0000844214D22A68D36823F4D0738C
:101ED000D3602A68536923F001035361202385F8F6
:101EE000393085F83A30002385F838300320BDE8D2
:101EF000F0812B681B6837EA03030CBF0123002322
:101F0000B342D7D00020BDE8F08100BF704700BFCA
:101F1000002800F0868010B5044683691BB303686F
:101F2000414A93420FD0A2F54C4293420BD002F5A6
:101F30008062934207D002F54C42934203D0FE21C7
:101F40003A4800F03BFAA36953B3B3F5807F27D03A
:101F5000B3F5007F24D0B3F5407F21D0FF21334873
:101F600000F02CFA1CE003682F4A934218D0A2F527
:101F70004C42934214D002F58062934210D002F595
:101F8000806293420CD002F58062934208D002F541
:101F90004442934204D040F20311244800F00EFA68
:101FA000A3683BB1B3F5805F04D040F205111F4830
:101FB00000F004FAE3693BB1B3F5004F04D04FF4ED
:101FC00083711A4800F0FAF994F8393013F0FF0FD2
:101FD00005D1002384F838302046FFF797FF2423EB
:101FE00084F839302268D36823F40053D360204644
:101FF000FFF790FD2268136923F490431361226870
:10200000536923F02A0353612268D36843F40053D1
:10201000D3600020E063202384F8393084F83A301C
:1020200010BD0120704700BF001001405C40000857
:102030002DE9F04182B01E4690F83930DBB2202BFA
:1020400050D104460D46174600294DD0002A4DD0E8
:1020500090F83830012B4BD0012380F83830002322
:10206000C363212380F83930FEF7FAF98046A7844C
:10207000E78424E0013BE384A368B3F5805F12D1D9
:1020800000964346002280212046FFF70BFF88BBC5
:1020900022682B88C3F30803536023690BB9023508
:1020A0000DE001350BE000964346002280212046DA
:1020B000FFF7F8FE00BB23682A785A600135E38CED
:1020C000002BD7D100964346002240212046FFF73F
:1020D000E9FE034690B9202284F83920002284F8D2
:1020E00038200CE002230AE0012308E0012306E087
:1020F000022304E0032302E0032300E00323184645
:1021000002B0BDE8F08100BF90F83A30DBB2202B7E
:1021100020D109B312B390F83830012B20D081625E
:102120008285C2850023C363222280F83A2080F88A
:1021300038300168CA6842F48072CA6001684A692E
:1021400042F001024A610168CA6842F02002CA6096
:1021500018467047022070470120704701207047E1
:1021600002207047704700BF08B50168CB6823F0B4
:102170004003CB60202380F83930FFF7F3FF0020C5
:1021800008BD00BF08B590F83A30DBB2222B3ED133
:102190008368B3F5805F13D1826A036943B903682A
:1021A0005B68C3F308031380836A0233836218E019
:1021B00003685B68DBB21380836A0133836210E0DB
:1021C000036933B9836A5A1C8262026852681A70C2
:1021D00007E0826A531C836203685B6803F07F0335
:1021E0001370C38D013B9BB2C38593B90268D3685A
:1021F00023F49073D3600268536923F001035361A1
:10220000202380F83A3000F05FFD002008BD022056
:1022100008BD002008BD00BF704700BF10B50446D0
:1022200002681368D168506913F00F0209D113F0E6
:10223000200F06D011F0200F03D02046FFF7A2FF99
:1022400010BD002A66D040F20112104262D013F095
:10225000010F06D011F4807F03D0E26B42F001023F
:10226000E26313F0040F06D010F0010F03D0E26B0D
:1022700042F00202E26313F0020F06D010F0010FE9
:1022800003D0E26B42F00402E26313F0080F06D0C1
:1022900010F0010F03D0E26B42F00802E263E26B40
:1022A000002A4AD013F0200F05D011F0200F02D0E1
:1022B0002046FFF767FF23685B6903F04003E26B8A
:1022C00012F0080F00D1FBB12046FFF7E1FB2368B5
:1022D0005A6912F0400F13D05A6922F040025A6135
:1022E000636B4BB1154A1A65606BFEF767F920B353
:1022F000606B036D984710BD2046FFF78DFF10BD42
:102300002046FFF789FF10BD2046FFF785FF002319
:10231000E36310BD13F0800F06D011F0800F03D0DF
:102320002046FFF7C3FB10BD13F0400F05D011F09E
:10233000400F02D02046FFF717FF10BD41230008D1
:1023400008B5806B0023C385C384FFF765FF08BD14
:10235000FEE700BF08B5034800F052F80120FFF780
:10236000F7FF00BF8C40000808B50D4B1B6813B980
:102370000C4A0B4B1A600A4B1A68C31C23F0030368
:10238000134409498B4206D901F036F90C23036046
:102390004FF0FF3008BD02490B60104608BD00BF7A
:1023A000900000202404002000FC01200123036091
:1023B000014B0B60704700BF0400002008B50A46BF
:1023C0000146024800F004F8FFF7C4FFE0400008AF
:1023D0000FB400B583B004AB53F8042B01938021F4
:1023E000064801F06FF9002803DD0146034800F0BC
:1023F0003BF803B05DF804EB04B070479800002090
:1024000010B5044601F02AF90146204600F02CF8E8
:102410000121024800F028F810BD00BFE842000882
:1024200010B400221AE04FF06043D3F8803E13F05E
:10243000010F06D04FF06043D3F8003E13F0010FB8
:1024400001D110460DE04FF060431B68002BFAD01D
:1024500004784FF060431C70013201308A42E2D3AD
:10246000084610BC704700BF08B5FFF7D9FF08BD8C
:1024700008B500F081F8024B024A9A6008BD00BF1F
:1024800000ED00E000000008F8B504460D461746D0
:102490001E462648FFF79CFF21682548FFF798FF56
:1024A00061682448FFF794FFA1682348FFF790FF75
:1024B000E1682248FFF78CFF21692148FFF788FF78
:1024C00061692048FFF784FFA1691F48FFF780FF7B
:1024D000E1691E48FFF77CFF1D48FFF779FF294699
:1024E0001C48FFF775FF1C4CE16A1C48FFF770FFA2
:1024F000216B1B48FFF76CFFE16B1A48FFF768FF81
:1025000015F0800F03D039461748FFF761FF15F427
:10251000004F03D031461548FFF75AFF1448FFF724
:1025200057FF06991348FFF753FFF8BD38410008DD
:1025300048410008584100086841000878410008F7
:102540008841000898410008A8410008B8410008E7
:10255000C8410008D441000800ED00E0E441000853
:10256000F441000804420008144200082442000814
:10257000344200083C4200080C4B1A6842F0010249
:102580001A60002199601A6822F0847222F4803265
:102590001A60074A5A601A6822F480221A60D960C9
:1025A0004FF00062034B9A60704700BF0038024052
:1025B0001030002400ED00E0224B9B6803F00C0378
:1025C000042B07D0082B09D0002B2DD11E4A1F4BFE
:1025D0001A602CE01E4A1D4B1A6028E0194B5A68FD
:1025E0005B6803F03F0312F4800F09D0184AB2FB76
:1025F000F3F2144B5B68C3F3881303FB02F208E0A9
:10260000114AB2FBF3F30F4A5168C1F3881101FB81
:1026100003F20C4B5B68C3F3014301335B00B2FB75
:10262000F3F30A4A136002E0074A084B1A60054BAD
:102630009B68C3F30313074AD15C044A1368CB4079
:1026400013607047003802400024F4000C000020A2
:1026500040787D018042000870B594B00024019458
:10266000244B1A6C42F080521A641B6C03F08053A6
:102670000193019B0294204B1A6842F480421A6035
:102680001B6803F480430293029B01230893099380
:1026900002250E954FF480030F93192310934FF4E6
:1026A000A873119312950426139608A8FEF714FE3A
:1026B0000F230393049505944FF4A05306934FF40E
:1026C00080530793052103A8FFF77AF8FFF7AAF9CB
:1026D0000A4BA3FB00308009FDF73EFF3046FDF7B3
:1026E00051FF224621464FF0FF30FDF7DDFE14B0CA
:1026F00070BD00BF0038024000700040D34D621032
:1027000008B5FDF78BFEFFF7A7FFFFF755FF08BDE4
:1027100010B582B0002400941A4B1A6B42F00202EA
:102720001A631A6B02F002020092009A01941A6C6A
:1027300042F480021A641B6C03F480030193019B32
:1027400011494FF440630B6012234B6004230B616B
:1027500001238B600323CB600C48FDF743FF0C483B
:102760000C4B03600C4B43604FF48043836080222A
:10277000C260036144618461C4610462FEF7E4FAEB
:1027800002B010BD00380240780100200004024071
:10279000CC03002000580040801A060070B582B0BB
:1027A0000C4AE32313700C4D64260096012380210C
:1027B0002846FEF7BDFB094C0096032322468021E4
:1027C0002846FEF75FFC2078637843EA002002B0D9
:1027D00070BD00BF70010020CC0300206801002004
:1027E00082B00190019A43F2B06303FB02F30193BC
:1027F00002E0019B013B0193019B002BF9D102B048
:10280000704700BF82B00190019B03EB43039A0025
:10281000019202E0019B013B0193019B002BF9D146
:1028200002B0704710B582B0002401940B4B1A6BB4
:1028300042F001021A631B6B03F001030193019B39
:1028400007490C230B6001234B608C600323CB6092
:102850000448FDF7C7FE204602B010BD0038024014
:1028600078010020000002402DE9F04182B00026EE
:1028700000961A4D2B6B43F001032B632B6B03F077
:1028800001030093009B164C4023236001276760DF
:10289000A6600323E36021461248FDF7A3FE0196DC
:1028A0002B6B43F002032B632B6B03F002030193AA
:1028B000019B4FF0C008C4F800806760A5F5505533
:1028C00021462846FDF78EFE324641462846FEF751
:1028D0001BF8304602B0BDE8F08100BF003802406E
:1028E000780100200000024070B50D46364C0246CB
:1028F0004FF480712046FEF707F800224FF4007174
:102900002046FEF701F80220FFF77CFFC5F3001216
:102910004FF480512046FDF7F7FFC5F340124FF406
:1029200000512046FDF7F0FFC5F380124FF48041BF
:102930002046FDF7E9FFEEB2F2094FF400412046D0
:10294000FDF7E2FF01224FF400712046FDF7DCFFA6
:102950000220FFF757FF00224FF400712046FDF7D9
:10296000D3FF0220FFF74EFF06F001024FF4805123
:102970002046FDF7C9FFC5F340024FF40051204641
:10298000FDF7C2FFC5F380024FF480412046FDF7FA
:10299000BBFFC5F3C0024FF400412046FDF7B4FF72
:1029A00001224FF400712046FDF7AEFF0220FFF731
:1029B00029FF00224FF400712046FDF7A5FF0220F9
:1029C000FFF70EFF002070BD0008024008B500228E
:1029D0004FF400711048FDF797FF33210020FFF7F7
:1029E00083FF32210020FFF77FFF28210020FFF71F
:1029F0007BFF0F210020FFF777FF01210020FFF769
:102A000073FF06210020FFF76FFF02210020FFF770
:102A10006BFF002008BD00BF0008024030B583B046
:102A200000240194124B1A6B42F004021A631B6BD0
:102A300003F004030193019B0E494FF473430B60B1
:102A400001234B608C600223CB600B4D2846FDF7C1
:102A5000C9FD22464FF480712846FDF755FF2246F6
:102A60004FF400712846FDF74FFF204603B030BDFC
:102A700000380240780100200008024008B5FFF746
:102A8000CDFFFFF7A3FF002008BD00BF10B582B047
:102A900000240094194B1A6B42F001021A631A6B5E
:102AA00002F001020092009A01945A6C42F0100266
:102AB0005A645B6C03F010030193019B10494FF4BF
:102AC000C0630B6002234B608C600323CB60072341
:102AD0000B610C48FDF786FD0B480C4B03604FF46F
:102AE000165343608460C460046184610C234361B5
:102AF000C461FFF70DFA204602B010BD0038024055
:102B000078010020000002408C03002000100140EA
:102B100010B582B0002400941C4B1A6B42F00102E5
:102B20001A631A6B02F001020092009A01941A6C67
:102B300042F400221A641B6C03F400230193019BEE
:102B4000134903230B6002224A608C60CB60082388
:102B50000B611048FDF746FD0F48104B03604FF422
:102B6000165343608460C460046184610C23436134
:102B7000C461FFF7CDF9224621463420FDF794FCCD
:102B80003420FDF7D3FC204602B010BD00380240CF
:102B9000780100200000024028010020004C004085
:102BA00008B5FFF73FFEFFF75FFEFFF767FF002066
:102BB00008BD00BF2DE9F04106460F461D46012421
:102BC00003E004EB84035C00013A002AF9D13046AB
:102BD000394600F0E9FC804600F06EFA02460B46EA
:102BE0003046394600F01AF906460F46204600F0F6
:102BF00063FA32463B4600F0C5FA00F0D5FC031EEE
:102C000000DA5B4242460349284600F0FBFCBDE87F
:102C1000F08100BF9042000838B5FFF779FF114CF2
:102C20001149204600F012FD204600F017FD0F4D1F
:102C30004FF6FF7382B221462846FFF7F9F94FF4A9
:102C4000FA60FFF7CDFD0A49204600F0FFFC204660
:102C500000F004FD4FF6FF7382B221462846FFF7CD
:102C6000E7F938BD8C020020A042000828010020AE
:102C7000B442000808B5FFF793FFFFF749FDFFF7DF
:102C800005FFFFF7C9FF0A4C0A49204600F0DEFCA9
:102C9000204600F0E3FC4FF6FF7382B2214606485F
:102CA000FFF7C6F9012205490548FFF72DFAF9E7B4
:102CB0008C020020C04200088C0300208C01002000
:102CC000280100200000000038B502683A4B9A4203
:102CD00068D13A4B1C78052C0CD8394B53F824504A
:102CE000284600F0BBFC4FF6FF7382B229463548F8
:102CF000FFF79EF92CB901220C213348FDF704FEA1
:102D000038BD012C05D100220C212F48FDF7FCFD18
:102D100038BD022C10D12D4C002240212046FDF759
:102D2000F3FD012280212046FDF7EEFD0122402126
:102D30002548FDF7E9FD38BD032C10D1234C0022B6
:102D400040212046FDF7E0FD002280212046FDF7CE
:102D5000DBFD002240211C48FDF7D6FD38BD042CC8
:102D600020D1FFF71BFD00F0A7F90FA3D3E9002343
:102D700000F008FA0022164B00F004FA0CA3D3E985
:102D8000002300F04BF8134C23460222FFF712FFFA
:102D9000204600F063FC4FF6FF7382B221460948DB
:102DA000FFF746F938BD00BFD7A3703D0AF765406D
:102DB000CDCCCCCCCC6C4740004C00408C010020EA
:102DC000100000208C03002000000240000402409C
:102DD0000000F03E8C020020704700BF704700BF2B
:102DE000FEE700BFFEE700BFFEE700BFFEE700BF53
:102DF000704700BF704700BF704700BF08B5FDF7C0
:102E000027FB08BD08B50248FFF708FA08BD00BF58
:102E10002801002081F0004102E000BF83F0004360
:102E200030B54FEA41044FEA430594EA050F08BF65
:102E300090EA020F1FBF54EA000C55EA020C7FEA29
:102E4000645C7FEA655C00F0E2804FEA5454D4EBA6
:102E50005555B8BF6D420CDD2C4480EA020281EA70
:102E6000030382EA000083EA010180EA020281EAA8
:102E70000303362D88BF30BD11F0004F4FEA0131FA
:102E80004FF4801C4CEA113102D0404261EB410109
:102E900013F0004F4FEA03334CEA133302D052428F
:102EA00063EB430394EA050F00F0A780A4F101044B
:102EB000D5F1200E0DDB02FA0EFC22FA05F2801885
:102EC00041F1000103FA0EF2801843FA05F359416B
:102ED0000EE0A5F120050EF1200E012A03FA0EFCEA
:102EE00028BF4CF0020C43FA05F3C01851EBE37114
:102EF00001F0004507D54FF0000EDCF1000C7EEB31
:102F000000006EEB0101B1F5801F1BD3B1F5001F6E
:102F10000CD349085FEA30004FEA3C0C04F101048D
:102F20004FEA445212F5800F80F09A80BCF1004FB6
:102F300008BF5FEA500C50F1000041EB045141EA38
:102F4000050130BD5FEA4C0C404141EB010111F439
:102F5000801FA4F10104E9D191F0000F04BF0146E4
:102F60000020B1FA81F308BF2033A3F10B03B3F1C2
:102F700020020CDA0C3208DD02F1140CC2F10C0252
:102F800001FA0CF021FA02F10CE002F11402D8BFB0
:102F9000C2F1200C01FA02F120FA0CFCDCBF41EA7C
:102FA0000C019040E41AA2BF01EB0451294330BD4B
:102FB0006FEA04041F3C1CDA0C340EDC04F1140428
:102FC000C4F1200220FA04F001FA02F340EA0300FF
:102FD00021FA04F345EA030130BDC4F10C04C4F145
:102FE000200220FA02F001FA04F340EA0300294625
:102FF00030BD21FA04F0294630BD94F0000F83F46F
:10300000801306BF81F480110134013D4EE77FEA51
:10301000645C18BF7FEA655C29D094EA050F08BF9D
:1030200090EA020F05D054EA000C04BF194610467E
:1030300030BD91EA030F1EBF0021002030BD5FEAC2
:10304000545C05D14000494128BF41F0004130BDEA
:1030500014F580043CBF01F5801130BD01F000453E
:1030600045F0FE4141F470014FF0000030BD7FEAB1
:10307000645C1ABF194610467FEA655C1CBF0B46AC
:10308000024650EA013406BF52EA033591EA030FC3
:1030900041F4002130BD00BF90F0000F04BF0021BB
:1030A000704730B54FF4806404F132044FF00005EE
:1030B0004FF0000150E700BF90F0000F04BF002167
:1030C000704730B54FF4806404F1320410F00045CD
:1030D00048BF40424FF000013EE700BF42004FEAC8
:1030E000E2014FEA31014FEA02701FBF12F07F4345
:1030F00093F07F4F81F06051704792F0000F14BF42
:1031000093F07F4F704730B54FF4607401F0004585
:1031100021F0004120E700BF50EA010208BF7047DC
:1031200030B54FF000050AE050EA010208BF7047D1
:1031300030B511F0004502D5404261EB41014FF43A
:10314000806404F132045FEA915C3FF4DCAE4FF03E
:1031500003025FEADC0C18BF03325FEADC0C18BF25
:10316000033202EBDC02C2F1200300FA03FC20FA76
:1031700002F001FA03FE40EA0E0021FA02F11444C3
:10318000C1E600BF70B54FF0FF0C4CF4E06C1CEAD8
:1031900011541DBF1CEA135594EA0C0F95EA0C0F4D
:1031A00000F0DEF82C4481EA030621EA4C5123EAC0
:1031B0004C5350EA013518BF52EA033541F48011EF
:1031C00043F4801338D0A0FB02CE4FF00005E1FBA2
:1031D00002E506F00042E0FB03E54FF00006E1FBEC
:1031E00003569CF0000F18BF4EF0010EA4F1FF042F
:1031F000B6F5007F64F5407404D25FEA4E0E6D416F
:1032000046EB060642EAC62141EA55514FEAC5207F
:1032100040EA5E504FEACE2EB4F1FD0C88BFBCF5FB
:10322000E06F1ED8BEF1004F08BF5FEA500E50F1AC
:10323000000041EB045170BD06F0004646EA010172
:1032400040EA020081EA0301B4EB5C04C2BFD4EBA4
:103250000C0541EA045170BD41F480114FF0000E9D
:10326000013C00F3AB8014F1360FDEBF002001F00B
:10327000004170BDC4F10004203C35DA0C341BDC85
:1032800004F11404C4F1200500FA05F320FA04F057
:1032900001FA05F240EA020001F0004221F000418B
:1032A00010EBD37021FA04F642EB06015EEA430EFE
:1032B00008BF20EAD37070BDC4F10C04C4F120052E
:1032C00000FA04F320FA05F001FA04F240EA0200E1
:1032D00001F0004110EBD37041F100015EEA430EB2
:1032E00008BF20EAD37070BDC4F1200500FA05F2D2
:1032F0004EEA020E20FA04F301FA05F243EA020351
:1033000021FA04F001F0004121FA04F220EA02005F
:1033100000EBD3705EEA430E08BF20EAD37070BDA5
:1033200094F0000F0FD101F00046400041EB010185
:1033300011F4801F08BF013CF7D041EA060195F067
:10334000000F18BF704703F00046520043EB030321
:1033500013F4801F08BF013DF7D043EA060370470E
:1033600094EA0C0F0CEA135518BF95EA0C0F0CD019
:1033700050EA410618BF52EA4306D1D181EA03015F
:1033800001F000414FF0000070BD50EA410606BF59
:103390001046194652EA430619D094EA0C0F02D19E
:1033A00050EA013613D195EA0C0F05D152EA0336E3
:1033B0001CBF104619460AD181EA030101F0004101
:1033C00041F0FE4141F470014FF0000070BD41F04A
:1033D000FE4141F4780170BD70B54FF0FF0C4CF424
:1033E000E06C1CEA11541DBF1CEA135594EA0C0F43
:1033F00095EA0C0F00F0A7F8A4EB050481EA030E90
:1034000052EA03354FEA013100F088804FEA033376
:103410004FF0805545EA131343EA12634FEA022244
:1034200045EA111545EA10654FEA00260EF0004105
:103430009D4208BF964244F1FD0404F5407402D257
:103440005B084FEA3202B61A65EB03055B084FEAE8
:1034500032024FF480104FF4002CB6EB020E75EBE5
:10346000030E22BFB61A754640EA0C005B084FEA0D
:103470003202B6EB020E75EB030E22BFB61A75468A
:1034800040EA5C005B084FEA3202B6EB020E75EBD5
:10349000030E22BFB61A754640EA9C005B084FEA4D
:1034A0003202B6EB020E75EB030E22BFB61A75465A
:1034B00040EADC0055EA060E18D04FEA051545EA49
:1034C00016754FEA06164FEAC30343EA52734FEAF2
:1034D000C2025FEA1C1CC0D111F4801F0BD141EA6B
:1034E00000014FF000004FF0004CB6E711F4801FD0
:1034F00004BF01430020B4F1FD0C88BFBCF5E06FB0
:103500003FF6AFAEB5EB030C04BFB6EB020C5FEABF
:10351000500C50F1000041EB045170BD0EF0004E14
:103520004EEA113114EB5C04C2BFD4EB0C0541EA46
:10353000045170BD41F480114FF0000E013C90E643
:1035400045EA060E8DE60CEA135594EA0C0F08BF07
:1035500095EA0C0F3FF43BAF94EA0C0F0AD150EA06
:1035600001347FF434AF95EA0C0F7FF425AF104699
:1035700019462CE795EA0C0F06D152EA03353FF4C1
:10358000FDAE1046194622E750EA410618BF52EA3E
:1035900043067FF4C5AE50EA41047FF40DAF52EA12
:1035A00043057FF4EBAE12E74FEA410212F5001239
:1035B00015D211D56FF47873B3EB625212D94FEA7A
:1035C000C12343F0004343EA505311F0004F23FA64
:1035D00002F018BF404270474FF00000704750EAB9
:1035E000013005D111F0004008BF6FF00040704776
:1035F0004FF00000704700BF014B1868704700BFD4
:10360000840000200EB400B59CB04FF402711DABD5
:10361000ADF81410029006906FF000410A48049132
:1036200007914FF6FF7153F8042BADF816100068A0
:10363000019302A900F0AEF8029B00221A701CB0A0
:103640005DF804EB03B0704784000020034611F8D6
:10365000012B03F8012B002AF9D17047034613F818
:10366000012B002AFBD1181A0138704730B5141EFF
:1036700005469BB0184604DA8B232B604FF0FF30D1
:103680001DE04FF40273ADF80C3014BF04F1FF33AA
:103690002346029305934FF6FF7300910491ADF812
:1036A0000E3002461E9B6946284600F073F8431C04
:1036B000BCBF8B232B6014B1009B00221A701BB07F
:1036C00030BD000007B5009313460A460146034883
:1036D0000068FFF7CBFF03B05DF804FB8400002017
:1036E0002DE9F0478E689E4282460C4691469846E8
:1036F0003ED88A8912F4906F3AD0256809696F1A0A
:103700006569022305EB450595FBF3F57B1C4344F6
:103710009D4238BF1D4653050FD5294600F094FB46
:10372000064698B13A46216900F01AFBA38923F4B2
:10373000906343F08003A38113E02A4600F0E2FB8C
:10374000064670B92169504600F030FB0C23CAF8D8
:103750000030A38943F04003A3814FF0FF30BDE860
:10376000F087266165613E44ED1B2660A5604646F4
:10377000464528BF464632464946206800F0FBFAD7
:10378000A3689B1BA36023681E4426600020BDE83D
:10379000F08700002DE9F04F9DB0804603938B89A0
:1037A0001C060D4616460DD50B695BB9402100F08D
:1037B0004BFB2860286118B90C23C8F80030CDE015
:1037C00040236B610023099320238DF82930DFF813
:1037D0009CB130238DF82A3037463C4614F8013B23
:1037E0001BB9B7EB060910D003E0252BF9D027460B
:1037F000F3E74B46324629464046FFF771FF01305A
:1038000000F0A780099B4B4409933B78002B00F004
:10381000A08000234FF0FF32049307930592069394
:103820008DF853301A930126052221784E4800F076
:1038300047FA671C049B38B14B4A801A06FA00F01D
:10384000184304903C46EFE7D90644BF20228DF888
:1038500053201A0744BF2B228DF8532022782A2A9E
:1038600003D0079A00210A200BE0039A111D126869
:103870000391002A10DA524243F0020007920490AA
:103880000BE0274601343B78303B092B03D800FB83
:1038900002320121F5E701B107923B782E2B1ED1B0
:1038A0007B782A2B0AD1039B1A1D1B680392002BDD
:1038B000B8BF4FF0FF330237059310E000230593A4
:1038C000781C19460A24074601303A78303A092A0A
:1038D00003D804FB01210123F5E703B1059103227D
:1038E0003978224800F0ECF940B14023CBEB0000DE
:1038F00003FA00F0049B18430490013739781C4800
:103900008DF8281006227E1C00F0DAF988B1194BD8
:1039100033B9039B073323F007030833039314E001
:1039200003AB00932A46144B04A94046AFF3008032
:1039300007E003AB00932A460F4B04A9404600F072
:1039400093F8B0F1FF3F824603D0099B534409939B
:1039500042E7AB895B0601D4099801E04FF0FF30E4
:103960001DB0BDE8F08F00BF1043000816430008EB
:103970001A43000800000000E13600082DE9F04776
:1039800091461F460A698B68DDF820809342B8BFD4
:103990001346C9F8003091F8432006460C4612B190
:1039A0000133C9F800302368990642BFD9F80030C6
:1039B0000233C9F80030256815F0060510D104F16E
:1039C000190A07E00123524639463046C047013004
:1039D0001AD00135E368D9F800209B1A9D42F1DB2B
:1039E00094F843302268003318BF012392060FD5A4
:1039F000E1185A1C302081F84300224494F8451005
:103A000082F84310023303E04FF0FF30BDE8F08747
:103A100004F1430239463046C0470130F4D02268F1
:103A2000D9F80050E36802F00602042A08BF5D1BC3
:103A30002269A3680CBF25EAE57500259342C4BF3F
:103A40009B1AED184FF000091A344D4509D0012397
:103A5000224639463046C0470130D5D009F1010928
:103A6000F3E70020BDE8F0872DE9F04317460A7E12
:103A700085B06E2A984606460C460C9B01F1430E13
:103A800000F0AE8011D8632A22D009D8002A00F0B5
:103A9000BB80582A40F0CA8081F84520834955E010
:103AA000642A1ED0692A1CD0C0E0732A00F0B080BE
:103AB00009D86F2A2ED0702A40F0B8800A6842F0E8
:103AC00020020A603EE0752A24D0782A3AD0ADE080
:103AD0001A6801F14205111D1960136884F842301B
:103AE000A8E021681A6811F0800F02D0111D19603A
:103AF00008E011F0400F02F10401196002D0B2F9A0
:103B0000003000E01368002B3CDA2D225B4284F881
:103B1000432037E021681A6811F0800F02D0111D90
:103B2000196007E011F0400F02F10401196001D0A3
:103B3000138800E01368227E5C496F2A14BF0A22B2
:103B400008221BE078225A4984F845202268186828
:103B500012F0800F00F104051D6003D1550601D558
:103B6000038800E00368D00744BF42F020022260CF
:103B70001BB9226822F0200222601022002084F863
:103B8000430001E049490A226568A560002D08DB71
:103B9000206820F0040020602BB9002D7DD17546EF
:103BA0000CE0002B79D07546B3FBF2F002FB10332A
:103BB000CB5C05F8013D03460028F5D1082A0BD15E
:103BC0002368DA0708D5236962689A42DEBF30238A
:103BD00005F8013C05F1FF35C5EB0E0323612EE02E
:103BE00008681A68496910F0800F03D0101D18602A
:103BF000136808E010F0400F02F104001860136829
:103C000001D0198000E0196000232361754616E099
:103C10001A68111D1960156862680021284600F0B5
:103C20004FF808B1401B6060636804E004F142058E
:103C300084F8422001232361002384F84330CDF827
:103C400000803B4603AA21463046FFF797FE01302D
:103C500002D14FF0FF3026E023692A46394630462C
:103C6000C0470130F5D023689B0710D5002504F12B
:103C7000190907E001234A4639463046C04701305A
:103C8000E7D00135E368039A9B1A9D42F2DBE068B6
:103C9000039B9842B8BF184605E00B7884F8423081
:103CA00004F142058AE705B0BDE8F083214300082E
:103CB0003243000800000000000000000000000087
:103CC00001F0FF01102A2BDB10F0070F08D010F8CD
:103CD000013B013A8B422DD010F0070F42B3F6D1D1
:103CE000F0B441EA012141EA014122F007047FF0EA
:103CF00000070023F0E80256083C85EA010586EA41
:103D0000010685FA47F5A3FA87F586FA47F6A5FA7C
:103D100087F68EB9EED1F0BC01F0FF0102F0070288
:103D200032B110F8013B013A83EA010313B1F8D133
:103D30000020704701387047002D06BF3546033814
:103D4000073815F0010F07D1013015F4807F02BF4D
:103D5000013015F4C03F0130F0BC0138704700BF9E
:103D600010B5431E0A44914204D011F8014B03F8E8
:103D7000014FF8E710BD884210B501EB020301D8EE
:103D8000421E0BE09842FBD28118D21AD34204D0D3
:103D900013F8014D01F8014DF8E710BD994204D028
:103DA00011F8014B02F8014FF8E710BD38B5054690
:103DB000002946D051F8043C0C1F002BB8BFE41872
:103DC00000F0D6F81F4A1368114613B963601460F7
:103DD00032E0A3420ED92268A018834204BF1868BB
:103DE0005B68636004BF121822600C6024E0A2428A
:103DF00003D813465A68002AF9D118681918A14245
:103E00000BD12168014458188242196014D11068FE
:103E100052685A60014419600EE002D90C232B60ED
:103E20000AE021686018824204BF1068526862602C
:103E300004BF091821605C602846BDE8384000F0E6
:103E400098B838BD1C01002070B5CD1C25F00305C5
:103E500008350C2D38BF0C25002D064601DBA94284
:103E600002D90C23336046E000F082F8234B1C6833
:103E70001A462146A1B10B685B1B0ED40B2B03D94C
:103E80000B60CC18CD501EE08C420DBF63684B68B0
:103E90006360136018BF0C4615E00C464968E9E7FB
:103EA000174C23681BB9304600F052F820602946B1
:103EB000304600F04DF8431C18D0C41C24F0030415
:103EC000A0420DD12560304600F053F804F10B00FC
:103ED000231D20F00700C31A0ED05A42E25070BDD5
:103EE000211A304600F034F80130EBD10C23336056
:103EF000304600F03EF8002070BD00BF1C010020DD
:103F000018010020F8B5074615460E4621B911469E
:103F1000BDE8F840FFF798BF1AB9FFF747FF2846FA
:103F2000F8BD00F027F885420ED929463846FFF73C
:103F30008BFF044650B131462A46FFF711FF314648
:103F40003846FFF733FF01E03046F8BD2046F8BDA4
:103F500038B5064C0023054608462360FEF704FAF0
:103F6000431C02D1236803B12B6038BD240100201B
:103F70007047704751F8040C0028BEBF091851F86B
:103F8000043CC018043870472E2E2F737973746563
:103F90006D2F7372632F73746D333266342D6861C5
:103FA0006C2F73746D3332663478785F68616C5F40
:103FB000636F727465782E63000000002E2E2F73DD
:103FC000797374656D2F7372632F73746D333266FA
:103FD000342D68616C2F73746D3332663478785F7A
:103FE00068616C5F6770696F2E6300002E2E2F73FF
:103FF000797374656D2F7372632F73746D333266CA
:10400000342D68616C2F73746D3332663478785F49
:1040100068616C5F6932632E63000000000000007D
:104020000102030401020304060708092E2E2F7360
:10403000797374656D2F7372632F73746D33326689
:10404000342D68616C2F73746D3332663478785F09
:1040500068616C5F7263632E630000002E2E2F7305
:10406000797374656D2F7372632F73746D33326659
:10407000342D68616C2F73746D3332663478785FD9
:1040800068616C5F756172742E63000061626F72AB
:104090007428292C2065786974696E672E2E2E008D
:1040A0002C2066756E6374696F6E3A200000000004
:1040B000617373657274696F6E20222573222066A6
:1040C00061696C65643A2066696C652022257322FB
:1040D0002C206C696E65202564257325730A000009
:1040E0006173736572745F706172616D28292066F7
:1040F00061696C65643A2066696C652022257322CB
:104100002C206C696E652025640A00006D61696E63
:1041100028617267633D25642C20617267763D5B80
:10412000000000002C200000222573220000000067
:104130005D293B0A00000000537461636B206672C6
:10414000616D653A0A000000205230203D20202594
:104150003038580A00000000205231203D20202530
:104160003038580A00000000205232203D2020251F
:104170003038580A00000000205233203D2020250E
:104180003038580A0000000020523132203D2025EE
:104190003038580A00000000204C52203D202025D5
:1041A0003038580A00000000205043203D202025D0
:1041B0003038580A0000000020505352203D20257E
:1041C0003038580A000000004653522F4641523AF8
:1041D0000A0000002043465352203D20202530385D
:1041E000580A00002048465352203D2020253038F0
:1041F000580A00002044465352203D2020253038E4
:10420000580A00002041465352203D2020253038D6
:10421000580A0000204D4D464152203D202530389F
:10422000580A00002042464152203D2020253038C7
:10423000580A00004D6973630A000000204C522F99
:104240004558435F52455455524E3D20253038580D
:104250000A0000005B486172644661756C745D0A17
:10426000000000005B4275734661756C745D0A0066
:104270005B55736167654661756C745D0A0000008B
:104280000000000000000000010203040607080906
:1042900074656D70203A2025692E25690D0A00008D
:1042A00041542B4E414D4553573332415F544541A4
:1042B0004D34000041542B50494E3132333400000C
:1042C000426C7565746F6F74682052656164790D16
:1042D0000A0000004C45445F4F4E0D0A00000000EC
:1042E0004C45445F4F46460D0A0000004D4F544F69
:1042F000525F4F4E0D0A00004D4F544F525F4F46D4
:10430000460D0A0048545F4745540D0A000000005E
:10431000232D302B2000686C4C00656667454647AE
:104320000030313233343536373839414243444531
:1043300046003031323334353637383961626364A0
:03434000656600AF
:104344007856341294000020000000000024F40089
:10435400D4420008E0420008EC420008F842000899
:1043640004430008000000000000000000000000FA
:104374000000000000000000000000000000000039
:104384000000000000000000000000000000000029
:104394000000000000000000000000000000000019
:1043A4000000000000000000000000000000000009
:1043B40000000000000000000000000000000000F9
:0C43C40000000000240000203254769815
:040000050800018965
:00000001FF
