:020000040800F2
:1000000000000220B9020008353E0008393E000811
:100010003D3E0008413E0008453E0008000000004B
:10002000000000000000000000000000493E000841
:100030004D3E000800000000513E0008553E0008FB
:10004000BD030008BD030008BD030008BD03000890
:10005000BD030008BD030008E93D0008F53D0008A8
:10006000013E0008BD030008BD030008BD030008F1
:10007000BD030008BD030008BD030008BD03000860
:10008000BD030008BD030008913D0008BD03000842
:10009000BD030008BD030008BD0300080D3E0008B5
:1000A000BD030008BD030008BD030008BD03000830
:1000B000A93D0008B93D0008D93D0008BD0300086E
:1000C000BD030008BD030008BD030008BD03000810
:1000D000BD030008BD030008BD030008BD03000800
:1000E000193E0008BD030008BD030008BD03000859
:1000F000BD030008BD030008BD030008BD030008E0
:10010000BD030008BD030008C93D0008BD03000889
:10011000BD030008BD030008BD030008BD030008BF
:10012000BD030008BD030008BD030008BD030008AF
:10013000BD0300080000000000000000BD0300082F
:10014000BD030008BD030008BD030008BD0300088F
:10015000BD030008BD030008BD030008BD0300087F
:10016000BD030008BD030008BD030008BD0300086F
:10017000BD030008BD0300080000000000000000EF
:10018000BD030008BD03000800B583B002F03CFECB
:10019000384B394A1360394A136039490CE00A6810
:1001A0004B6801F10C04886803E01168196004339E
:1001B00004329842F9D82146324B9942EFD32E4B64
:1001C0001A68314B9A4204D12C4B1A682F4B9A4231
:1001D00000D0FEE7274B2E4A13602E4A13602E4BA9
:1001E0000AE0194651F8082B5B6802E00020106015
:1001F00004329A42FAD30B46284A9342F1D3244B55
:100200001B6813B9234B1B6803B1FEE703F0B6FD6F
:10021000694601A802F096FD214C224B1C1BA4103C
:10022000002504E01E4B53F8253098470135AC42B9
:10023000F8DC1D4C1D4B1C1BA410002504E01A4BC0
:1002400053F8253098470135AC42F8DC0099019805
:1002500003F01CFB0546164C164B1C1BA41004E0B7
:10026000013C134B53F824309847002CF8DC284607
:1002700002F03AFDBABADECA00000020F800002001
:10028000C0030008D8030008785634123254769818
:10029000FC000020E0050020D8030008E803000867
:1002A000E8030008E8030008E8030008E803000882
:1002B000E8030008E803000808B5FFF765FF00BF82
:1002C00000BEFEE71EF0040F0CBFEFF30880EFF353
:1002D00009807146364A10472DE9F04182B0044644
:1002E0008846084B5E6B9F6B9D6A074802F03CFD99
:1002F000CDF800803B4632462946204602F090FD6C
:1003000000BEFEE700ED00E0044B000800BEFEE783
:100310001EF0040F0CBFEFF30880EFF30980714665
:10032000244A10472DE9F04182B004468846084B24
:100330005E6B9F6B9D6A074802F016FDCDF800804A
:100340003B4632462946204602F06AFD00BEFEE7E3
:1003500000ED00E0144B00081EF0040F0CBFEFF39B
:100360000880EFF309807146134A10472DE9F041E8
:1003700082B004468846084B5E6B9F6B9D6A0748B7
:1003800002F0F2FCCDF800803B463246294620467A
:1003900002F046FD00BEFEE700ED00E0204B000845
:1003A00000BEFEE700BEFEE700BEFEE770470000AD
:1003B000D9020008250300086D03000800BEFEE70F
:1003C000E84B000800000020FC000020E84B00087B
:1003D0000000001000000010FC000020E4050020D8
:0803E0000000001000000010F5
:1003F00010B50446074B1B680748A0FB0330800973
:1004000000F08AFC002221464FF0FF3000F02CFC67
:10041000002010BD0C000020D34D621008B50B4B1E
:100420001A6842F400721A601A6842F480621A6014
:100430001A6842F480721A60032000F0F7FB0F2064
:10044000FFF7D6FF03F0A2FC002008BD003C0240ED
:10045000024A136801331360704700BFB0010020E7
:10046000014B1868704700BFB001002010B504466A
:10047000504B5A6822F440325A60596842680A4325
:100480005A600268536823F48073536002685368AB
:10049000016943EA012353600268536823F0407303
:1004A00053600268516883680B4353600268936825
:1004B00023F40063936002689168C3680B43936000
:1004C000826A3D4B9A4214D00268936823F07063AD
:1004D000936002689168836A0B4393600268936833
:1004E00023F04053936002689168C36A0B439360A2
:1004F00009E00268936823F0706393600268936870
:1005000023F0405393602268936823F002039360C2
:1005100022689368A16943EA41039360236A03B3A5
:10052000636A013B072B04D940F20A61234802F0B9
:1005300011FC2268536843F40063536022685368D7
:1005400023F460435360636A013B4FF4604292FAC4
:10055000A2F2B2FA82F2934021684A6813434B60D8
:1005600004E02268536823F4006353602268D36A6E
:1005700023F47003D3622168CA6AE369013B42EA4B
:100580000353CB622268936823F40073936022685C
:100590009368216B43EA412393602268936823F4B4
:1005A0008063936022689368616943EA8123936062
:1005B00010BD00BF002301400100000FD847000814
:1005C000704700BF002800F0DE8010B504460368C5
:1005D0006E4A93420CD002F58072934208D002F525
:1005E0008072934204D040F20D11694802F0B2FBD0
:1005F00063686BB1B3F5803F0AD0B3F5003F07D015
:10060000B3F5403F04D04FF48771614802F0A2FB7C
:10061000A3686BB1B3F1807F0AD0B3F1007F07D03C
:10062000B3F1407F04D040F20F11594802F092FB21
:100630002369012B04D94FF48871554802F08AFBD5
:10064000A369012B04D940F21111514802F082FB39
:10065000A36AA3B3B3F1807F31D0B3F1007F2ED072
:10066000B3F1407F2BD0B3F1806F28D0B3F1A06FEE
:1006700025D0B3F1C06F22D0B3F1E06F1FD0B3F13A
:10068000006F1CD0B3F1106F19D0B3F1206F16D0EA
:10069000B3F1306F13D0B3F1406F10D0B3F1506F9E
:1006A0000DD0B3F1606F0AD0B3F1706F07D0394A43
:1006B000934204D04FF48971354802F04BFBE36854
:1006C0003BB1B3F5006F04D040F21311304802F093
:1006D00041FBE369013B0F2B04D94FF48A712C488D
:1006E00002F038FB236B012B04D940F21511284886
:1006F00002F030FB6369022B04D94FF48B7124485C
:1007000002F028FB236A012B04D940F2171120487C
:1007100002F020FBA26A1F4B9A420FD0E36A6BB132
:10072000B3F1805F0AD0B3F1005F07D0B3F1405F4F
:1007300004D040F21B11164802F00CFB236C2BB9BD
:10074000636484F83C302046FFF73AFF236C13F0D3
:10075000100F13D1236C23F4885323F0020343F0CA
:10076000020323642046FFF781FE00206064236CAF
:1007700023F0030343F00103236400E0012000237E
:1007800084F83C3010BD0120704700BF00200140BC
:10079000D84700080100000F10B582B004460023BE
:1007A00001938369012B04D940F2DD21454802F011
:1007B000D1FAE36A6BB1B3F1805F0AD0B3F1005FA5
:1007C00007D0B3F1405F04D040F2DE213D4802F093
:1007D000C1FA94F83C30012B68D0012384F83C30F6
:1007E00023689A6812F0010F13D19A6842F001024F
:1007F0009A60354B1B68354AA2FB03239B0C03EB25
:100800004303019302E0019B013B0193019B002BF9
:10081000F9D12268936813F0010F49D0236C23F4B7
:10082000E06323F0010343F480732364536813F4FB
:10083000806F05D0236C23F4405343F4805323642A
:10084000236C13F4805F04D0636C23F006036364AD
:1008500001E000236364002384F83C306FF022033E
:1008600013602268536843F0806343F020035360B1
:10087000174B5B6813F01F0F0AD123689A6812F0B8
:10088000405F17D19A6842F080429A60002016E0DB
:100890002368104A93420FD19A6812F0405F0DD13D
:1008A0009A6842F080429A60002008E0022006E048
:1008B000002004E0002002E0002000E0002002B060
:1008C00010BD00BFD84700080C00002083DE1B438A
:1008D00000230140002001400368D86C704700BF2E
:1008E000704700BF704700BF38B504468369012BCD
:1008F00004D940F269315B4802F02CFAE369013B0C
:100900000F2B04D940F26A31564802F023FA63698A
:10091000022B04D940F26B31524802F01BFA2268D4
:100920001168536803F0200311F0020F2DD063B358
:10093000236C13F0100F03D1236C43F40073236472
:10094000936813F0405F19D1A369BBB9D36A13F45C
:10095000700F03D0936813F4806F0FD1536823F0A6
:1009600020035360236C23F480732364236C13F4FB
:10097000805F03D1236C43F001032364204603F01E
:1009800057F923686FF012021A60236819685A68D1
:1009900002F0800211F0040F36D0002A34D0226C0D
:1009A00012F0100F03D1226C42F4005222649A68B4
:1009B00012F4401F21D19A6B12F4401F03D09A68A1
:1009C00012F4806F19D15A6812F4806F15D19A68A9
:1009D00012F0405F11D1A2697AB95A6822F0800200
:1009E0005A60236C23F480532364236C13F4807FB8
:1009F00003D1236C43F001032364204600F014F973
:100A000023686FF00C021A6022681168536803F0C3
:100A1000400311F0010F0FD073B1136813F0010FF1
:100A20000AD0236C43F4803323642046FFF758FF39
:100A300023686FF001021A6022681168536803F09E
:100A4000806311F0200F0CD05BB1636C43F00203A4
:100A500063646FF0200515602046FFF743FF2368AD
:100A60001D6038BDD847000830B583B005460C4638
:100A7000002301930B68122B04D940F204516648FD
:100A800002F068F96368013B0F2B04D940F205516D
:100A9000614802F05FF9A368072B04D940F20651C0
:100AA0005D4802F057F995F83C30012B00F0B18019
:100AB000012385F83C302368092B17D92868C268C0
:100AC0009BB203EB43031E3B072101FA03F322EA27
:100AD0000303C3602968C868A268238803EB430343
:100AE0001E3B02FA03F30343CB6013E0286802695C
:100AF0009BB203EB4303072101FA03F322EA03034A
:100B0000036129680869A368228802EB42029340C6
:100B100003430B616368062B16D82868426B03EB0E
:100B20008303053B1F2101FA03F322EA0303436316
:100B30002968486B636803EB8303053B228802FA4C
:100B400003F303434B632EE00C2B16D82868026B8B
:100B500003EB8303233B1F2101FA03F322EA030380
:100B600003632968086B636803EB8303233B2288D4
:100B700002FA03F303430B6315E02868C26A03EB30
:100B80008303413B1F2101FA03F322EA0303C362FB
:100B90002968C86A636803EB8303413B228802FA31
:100BA00003F30343CB622A681C4B9A4207D12368A4
:100BB000122B04D11A4A536843F4800353602A6805
:100BC000164B9A4221D12368103B012B1DD8144AA1
:100BD000536843F4000353602368102B15D1114B65
:100BE0001B6802F1467202F52E3202F28332A2FB3A
:100BF00003239B0C03EB83035A00019202E0019B49
:100C0000013B0193019B002BF9D1002085F83C00AA
:100C100000E0022003B030BDD847000800200140AA
:100C2000002301400C000020704700BF10B50446AF
:100C3000C31E042B03D9A421094802F08BF8094AEA
:100C4000D36823F4E0631B041B0C240204F4E06467
:100C5000234343F0BF6343F40033D36010BD00BFB0
:100C60000848000800ED00E070B504460E46154641
:100C70000F2A03D9BC211A4802F06CF80F2E03D9B1
:100C8000BD21174802F066F8164BDA68C2F302225B
:100C9000C2F10701042928BF0421131D062B01D925
:100CA000033A00E00022012303FA01F10139314047
:100CB000914003FA02F2013A2A400A43002C06DA74
:100CC00004F00F041201D2B2074B1A5570BD120185
:100CD000D2B204F1604404F5614484F8002370BD8D
:100CE0000848000800ED00E014ED00E010B5041E17
:100CF00003DAD021064802F02DF8620904F01F043F
:100D0000012303FA04F4034B43F8224010BD00BF53
:100D10000848000800E100E00138B0F1807F0AD205
:100D2000064B5860F021064A82F823100020986094
:100D300007221A6070470120704700BF10E000E0F2
:100D400000ED00E010B50446042805D020B140F2C3
:100D5000B311084801F0FEFF042C05D1064A1368C0
:100D600043F00403136010BD034A136823F0040327
:100D7000136010BD0848000810E000E02DE9F047BE
:100D800082B080460F46A14B984223D003F5806382
:100D900098421FD003F5806398421BD003F580630F
:100DA000984217D003F58063984213D003F580630F
:100DB00098420FD003F5806398420BD003F580630F
:100DC000984207D003F58063984203D0C52190482C
:100DD00001F0C0FF3B881BB9C6218D4801F0BAFF66
:100DE0007B68012B22D9112B20D0022B1ED0122B75
:100DF0001CD0884A934219D002F58012934215D034
:100E000002F58012934211D0A2F5F81293420DD050
:100E100002F58012934209D002F58012934205D068
:100E2000032B03D0C7217A4801F094FFBB68022B43
:100E300003D9C821764801F08DFF002526E1012461
:100E4000AC403E682640B44240F01F817B68022BD4
:100E500001D0122B45D13B699BB3092B31D083B311
:100E60007BB373B36BB3012B2BD02AD0022B28D0CA
:100E700027D026D0032B24D0042B22D021D020D061
:100E8000052B1ED01DD0092B1BD0062B19D0092BEA
:100E900017D0072B15D014D013D0082B11D010D099
:100EA0000FD0092B0DD00CD00A2B0AD009D00C2B57
:100EB00007D006D005D00F2B03D0D921544801F01C
:100EC00049FFEA08083258F8220005F007039900A4
:100ED0000F238B4020EA03003B698B40034348F813
:100EE0002230D8F800304FEA450A4FF0030909FADA
:100EF0000AF96FEA090903EA09027B6803F00303B0
:100F000003FA0AF31343C8F800307B685A1E012A1B
:100F100003D9112B01D0122B1BD1FB68032B03D952
:100F2000EC213B4801F016FFD8F8083009EA03022B
:100F3000FB6803FA0AF31343C8F80830D8F8043002
:100F400023EA04047B68C3F30013AB401C43C8F8D6
:100F50000440D8F80C3009EA0309BB6803FA0AF325
:100F600049EA0303C8F80C307B6813F0805F00F097
:100F70008C8000230193284B5A6C42F480425A64BF
:100F80005B6C03F480430193019BA9088A1C234BEB
:100F900053F8220005F003039B000F229A4020EA39
:100FA00002001A4A904521D002F5806290451FD078
:100FB00002F5806290451DD002F5806290451BD0FD
:100FC00002F58062904519D002F58062904517D0F5
:100FD00002F58062904515D002F58062904513D0ED
:100FE00002F5806290451BD108221AE0002218E029
:100FF000012216E0022214E0032212E0042210E093
:1010000005220EE006220CE007220AE00000024062
:101010003C48000800001110003802400038014030
:10102000092202FA03F3034302311B4A42F821303A
:101030001A4B1A68F34302EA0301786810F4803F00
:1010400001D046EA0201154A1160526803EA020122
:10105000786810F4003F01D046EA02010F4A51605F
:10106000926803EA0201786810F4801F01D046EA12
:1010700002010A4A9160D2681340796811F4001F96
:1010800001D046EA0203054AD36001350F2D7FF6F1
:10109000D6AE02B0BDE8F08700380140003C014008
:1010A00070B5064615460C4621B940F2B111084804
:1010B00001F050FE012D04D94FF4D971044801F01C
:1010C00049FE0DB1B46170BD2404B46170BD00BFB0
:1010D0003C48000808B5044B5B69034203D0024B4F
:1010E000586102F0F5FC08BD003C0140704700BFAC
:1010F000002800F0E38038B504460368704A934244
:101100000CD002F58062934208D002F580629342CF
:1011100004D040F265116B4801F01CFE6368013B8E
:10112000694A934204D94FF4B371664801F012FE44
:10113000A3683BB1B3F5804F04D040F2671161481A
:1011400001F008FEE36823F47F7323F0030323B167
:101150004FF4B4715B4801F0FDFD2369B3F5804F96
:1011600007D0B3F5404F04D040F26911554801F063
:10117000F1FD6369012B04D94FF4B571514801F0B9
:10118000E9FDA36933F0FE0304D040F26B114D4832
:1011900001F0E0FDE36933B1402B04D04FF4B671A8
:1011A000484801F0D7FD236A33B1802B04D040F2C8
:1011B0006D11444801F0CEFD94F83D3013F0FF0F5F
:1011C00005D1002384F83C302046FFF78FFF24230D
:1011D00084F83D302268136823F00103136000F0A7
:1011E00027FC3A4BA3FB00239B0C22685360216829
:1011F0006568374A954201D8013308E04FF496728A
:1012000002FB03F3334AA2FB03239B0901330B6266
:10121000216863682E4A934208D85B00B0FBF3F064
:10122000C0F30B03032B2BD8042029E0A5684DB98C
:1012300003EB4302B0FBF2F2C2F30B02B2FA82F20A
:1012400052090AE003EB830202EB8202B0FBF2F2E6
:10125000C2F30B02B2FA82F2520982B935B903EB3A
:101260004303B0FBF3F040F4004009E003EB8303D9
:1012700003EB8303B0FBF3F040F4404000E00120B7
:10128000C8612268E169236A0B43136022682169FF
:10129000E3680B43936022686169A3690B43D360E1
:1012A0002268136843F001031360002020642023A8
:1012B00084F83D30206384F83E0038BD012070473B
:1012C000005400406C4800087F1A060083DE1B4370
:1012D000A0860100D34D621030B583B00446036888
:1012E0000F2B03D9F5219C4801F034FD236813F03E
:1012F000010F45D06368012B05D9052B03D0FA21D6
:10130000954801F027FD954B9B6803F00C03042BD7
:101310000AD0924B9B6803F00C03082B0CD18F4B27
:101320005B6813F4800F07D08C4B1B6813F4003FED
:1013300026D0636823BBCCE12279894B1A7063689D
:101340007BB1FFF78DF8054605E0FFF789F8401BF4
:10135000642800F2C081814B1B6813F4003FF4D075
:101360000EE0FFF77DF8054605E0FFF779F8401B32
:10137000642800F2B281794B1B6813F4003FF4D16A
:10138000236813F0020F6AD0E368012B04D94FF4ED
:101390009671714801F0DEFC23691F2B04D940F2DD
:1013A0002D116D4801F0D6FC6C4B9B6813F00C0FAF
:1013B0000AD06A4B9B6803F00C03082B1BD1674BC8
:1013C0005B6813F4800F16D1644B1B6813F0020F97
:1013D00003D0E368012B40F082816048036823F06A
:1013E000F8012369F82292FAA2F2B2FA82F293404B
:1013F0000B43036033E0E368FBB10122594B1A60F1
:10140000FFF72EF8054605E0FFF72AF8401B0228F3
:1014100000F26781514B1B6813F0020FF4D04F4864
:10142000036823F0F8012369F82292FAA2F2B2FAD3
:1014300082F293400B43036011E00022494B1A6093
:10144000FFF70EF8054605E0FFF70AF8401B0228F3
:1014500000F24981414B1B6813F0020FF4D123685D
:1014600013F0080F2ED06369012B04D940F26D11DF
:10147000394801F06FFC636993B101223A4B1A605D
:10148000FEF7EEFF054605E0FEF7EAFF401B0228E7
:1014900000F22B81314B5B6F13F0020FF4D011E09F
:1014A0000022314B1A60FEF7DBFF054605E0FEF730
:1014B000D7FF401B022800F21A81284B5B6F13F004
:1014C000020FF4D1236813F0040F60D0A368012B3E
:1014D00006D9052B04D040F297111F4801F03AFCC1
:1014E000002301931D4B1A6C42F080521A641B6C4E
:1014F00003F080530193019B1C4A136843F48073EB
:101500001360FEF7ADFF054605E0FEF7A9FF401B9F
:10151000022800F2EE80154B1B6813F4807FF4D094
:10152000227A134B1A70A3688BB1FEF799FF054618
:1015300007E0FEF795FF401B41F28833984200F226
:10154000DA80064B1B6F13F0020FF2D01FE0FEF79C
:1015500087FF054616E000BFAC480008003802408F
:101560000238024000004742800E474200700040AF
:1015700070380240FEF774FF401B41F288339842F6
:1015800000F2BB80634B1B6F13F0020FF2D1A36913
:10159000022B04D94FF4E6715F4801F0DBFBA3692D
:1015A000002B00F0AC805B4A926802F00C02082A23
:1015B00000F0A780022B79D1E3693BB1B3F5800F2E
:1015C00004D040F2D511544801F0C4FB236A3F2BEC
:1015D00004D94FF4EB71504801F0BCFB636A323B15
:1015E000B3F5BF7F04D940F2D7114B4801F0B2FBED
:1015F000A36A022B0AD0042B08D0062B06D0082B96
:1016000004D04FF4EC71444801F0A4FBE36A043BBE
:101610000B2B04D940F2D9113F4801F09BFB00226B
:101620003E4B1A60FEF71CFF054604E0FEF718FF6C
:10163000401B022867D8374B1B6813F0007FF5D199
:10164000E169236A1943636A47F6C07292FAA2F20B
:10165000B2FA82F293401943A36A5B085A1E4FF410
:10166000403393FAA3F3B3FA83F302FA03F30B4381
:10167000E26A4FF0706191FAA1F1B1FA81F18A400A
:101680001343244A53600122244B1A60FEF7E8FEFC
:10169000044604E0FEF7E4FE001B022835D81D4B8B
:1016A0001B6813F0007FF5D0002031E000221B4BB7
:1016B0001A60FEF7D5FE044604E0FEF7D1FE001BDB
:1016C000022824D8134B1B6813F0007FF5D10020AB
:1016D0001EE001201CE003201AE0032018E0012096
:1016E00016E0032014E0032012E0032010E00320A2
:1016F0000EE003200CE003200AE0032008E00020B5
:1017000006E0012004E0032002E0032000E00320C3
:1017100003B030BD00380240AC48000860004742CA
:10172000244B9B6803F00C03042B3FD0082B01D003
:101730002148704710B41F4B586800F03F005B68A9
:1017400013F4800F10D01D4BB3FBF0F0194B5A6807
:1017500047F6C0710A4091FAA1F3B3FA83F322FA73
:1017600003F303FB00F310E0134BB3FBF0F0114B5A
:101770005A6847F6C07402EA040194FAA4F2B2FA75
:1017800082F221FA02F202FB00F30A4A506800F4E6
:1017900040324FF4403090FAA0F0B0FA80F022FAD4
:1017A00000F001304000B3FBF0F001E00348704767
:1017B00010BC7047003802400024F40040787D01DE
:1017C00070B504460D460368013B0E2B04D940F268
:1017D00037218F4801F0BEFA072D04D94FF40E715E
:1017E0008B4801F0B7FA8B4B1B6803F00F039D4247
:1017F00008D9EBB2874A1370136803F00F039D42B8
:1018000040F0F480236813F0020F1DD0A368A3B149
:10181000802B12D0902B10D0A02B0ED0B02B0CD040
:10182000C02B0AD0D02B08D0E02B06D0F02B04D050
:1018300040F24F21764801F08DFA77498B6823F00A
:10184000F002A36813438B60236813F0010F6BD081
:101850006368032B04D940F256216D4801F07AFAEF
:101860006268012A05D16C4B1B6813F4003F0FD14D
:10187000BEE0931E012B05D8674B1B6813F0007F59
:1018800006D1B7E0644B1B6813F0020F00F0B48080
:1018900061498B6823F0030313438B60FEF7E0FD7F
:1018A00006466368012B0FD107E0FEF7D9FD801BC8
:1018B00041F28833984200F2A180574B9B6803F0B5
:1018C0000C03042BF1D12FE0022B0FD107E0FEF720
:1018D000C7FD801B41F28833984200F291804E4B45
:1018E0009B6803F00C03082BF1D11DE0032B16D1EC
:1018F00007E0FEF7B5FD801B41F28833984200F205
:101900008180454B9B6803F00C030C2BF1D10BE05D
:10191000FEF7A6FD801B41F28833984274D83E4BF7
:101920009B6813F00C0FF3D13A4B1B6803F00F03C5
:101930009D4207D2EAB2374B1A701B6803F00F03BF
:101940009D4263D1236813F0040F19D0E36883B17B
:10195000B3F5805F0DD0B3F5A05F0AD0B3F5C05FDB
:1019600007D0B3F5E05F04D04FF42D71284801F0A3
:10197000F1F929498B6823F4E052E36813438B6043
:10198000236813F0080F1AD0236983B1B3F5805F81
:101990000DD0B3F5A05F0AD0B3F5C05F07D0B3F5A3
:1019A000E05F04D040F2BB21194801F0D3F91A4A94
:1019B000936823F46043216943EAC1039360FFF70E
:1019C000AFFE154B9B6803F0F002F02393FAA3F3EC
:1019D000B3FA83F322FA03F3104AD35CD840104BD6
:1019E00018600F20FEF704FD002070BD012070BDBF
:1019F000012070BD012070BD012070BD032070BDAD
:101A0000032070BD032070BD032070BD012070BD98
:101A1000AC480008003C0240003802409C480008E6
:101A20000C000020014B1868704700BF0C0000201C
:101A300008B5FFF7F7FF084B9B6803F4E0524FF43B
:101A4000E05393FAA3F3B3FA83F322FA03F3034ABE
:101A5000D35CD84008BD00BF003802409C48000855
:101A600008B5FFF7DFFF084B9B6803F460424FF4B3
:101A7000604393FAA3F3B3FA83F322FA03F3034A1E
:101A8000D35CD84008BD00BF003802409C48000825
:101A900070B4036A23F001030362036A4268846935
:101AA00024F073040D6844EA050623F002048B68F1
:101AB00023430F4DA84204D00E4CA04203D1012471
:101AC00002E0012400E000245CB123F00803CD68AB
:101AD0002B4323F0040322F440724D6915438A69B5
:101AE0002A43426086614A684263036270BC704761
:101AF00000000140000401402DE9F04104460E467B
:101B0000036A23F480730362056A4768C36923F09C
:101B100073080B6848EA030825F400738D6843EAEC
:101B20000525204B984205D003F58063984203D1E8
:101B3000012302E0012300E000235BB3F36833B12B
:101B4000082B04D041F20D31174801F003F9B369B5
:101B5000B3F5007F05D023B141F20E31124801F0F8
:101B6000F9F87369B3F5807F05D023B141F20F31E5
:101B70000D4801F0EFF825F40065F36845EA032508
:101B800025F4806527F44057736947EA0317B36962
:101B900047EA03176760C4F81C807368E363256233
:101BA000BDE8F08100000140DC4800082DE9F0416B
:101BB00004460F46036A23F480530362056AD0F893
:101BC0000480C66926F4E6430E6843EA062625F437
:101BD00000538D6843EA0535114B984205D003F553
:101BE0008063984203D1012302E0012300E0002337
:101BF00073B17B69B3F5807F05D023B141F25331D6
:101C0000084801F0A7F828F480487B6948EA83185F
:101C1000C4F80480E6617B6823642562BDE8F08136
:101C200000000140DC480008704700BF10B50446C2
:101C30000368234A934237D0B3F1804F34D0A2F5E2
:101C40007C42934230D002F5806293422CD002F560
:101C50008062934228D002F58062934224D002F53C
:101C60008062934220D002F5704293421CD002F56C
:101C70007052934218D002F58062934214D002F55C
:101C80008062934210D0A2F5983293420CD002F5B4
:101C90008062934208D002F58062934204D04FF4F0
:101CA000B271084801F056F82268D36843F0010386
:101CB000D3602268136843F001031360002010BD55
:101CC00000000140DC480008704700BF704700BFBB
:101CD000704700BF704700BF704700BF10B5044693
:101CE00003681A6912F0020F17D0DA6812F0020FB7
:101CF00013D06FF002021A610123037603689B6917
:101D000013F0030F02D0FFF7E3FF04E0FFF7DEFF5D
:101D10002046FFF7DFFF0023237623681A6912F0BD
:101D2000040F19D0DA6812F0040F15D06FF0040216
:101D30001A610223237623689B6913F4407F03D042
:101D40002046FFF7C5FF05E02046FFF7BFFF20460E
:101D5000FFF7C0FF0023237623681A6912F0080FEB
:101D600019D0DA6812F0080F15D06FF008021A6166
:101D7000042323762368DB6913F0030F03D0204686
:101D8000FFF7A6FF05E02046FFF7A0FF2046FFF77C
:101D9000A1FF0023237623681A6912F0100F19D0CF
:101DA000DA6812F0100F15D06FF010021A610823D4
:101DB00023762368DB6913F4407F03D02046FFF7C6
:101DC00087FF05E02046FFF781FF2046FFF782FFEF
:101DD0000023237623681A6912F0010F09D0DA680C
:101DE00012F0010F05D06FF001021A61204601F0D8
:101DF0004DFF23681A6912F0800F09D0DA6812F0DB
:101E0000800F05D06FF080021A61204600F070FC50
:101E100023681A6912F0400F09D0DA6812F0400FF7
:101E200005D06FF040021A612046FFF755FF236886
:101E30001A6912F0200F09D0DA6812F0200F05D0CD
:101E40006FF020021A61204600F050FC10BD00BF68
:101E50000368454A904214D0B0F1804F13D0A2F5E8
:101E60007C42904211D002F5806290420FD002F580
:101E7000806290420DD002F5784290420BD101224F
:101E80000AE0012208E0012206E0012204E001222A
:101E900002E0012200E000221AB123F070034A6838
:101EA0001343314A90422CD0B0F1804F2BD0A2F591
:101EB0007C42904229D002F58062904227D002F500
:101EC0008062904225D002F57842904223D002F5FC
:101ED0007052904221D002F5806290421FD002F5EC
:101EE000806290421DD0A2F5983290421BD002F53C
:101EF0008062904219D002F58062904217D101228F
:101F000016E0012214E0012212E0012210E0012279
:101F10000EE001220CE001220AE0012208E0012289
:101F200006E0012204E0012202E0012200E000229A
:101F30001AB123F44073CA68134303608B68C36209
:101F40000B688362084B984205D003F58063984282
:101F500003D1012302E0012300E000230BB10B6950
:101F600003630123436170470000014000286DD0E6
:101F700010B504460368364A934236D0B3F1804F19
:101F800033D0A2F57C4293422FD002F58062934277
:101F90002BD002F58062934227D002F580629342F3
:101FA00023D002F5806293421FD002F57042934223
:101FB0001BD002F57052934217D002F58062934213
:101FC00013D002F5806293420FD0A2F5983293426B
:101FD0000BD002F58062934207D002F580629342F3
:101FE00003D0D9211B4800F0B5FEA3685BB1102BCC
:101FF00009D0202B07D0402B05D0602B03D0DA214D
:10200000144800F0A7FE23694BB1B3F5807F06D0DA
:10201000B3F5007F03D0DB210E4800F09BFE94F85F
:10202000393013F0FF0F05D1002384F838302046F3
:10203000FFF7FAFD022384F83930211D2068FFF7ED
:1020400007FF012384F83930002010BD01207047BC
:1020500000000140DC480008002870D010B504469C
:102060000368384A934237D0B3F1804F34D0A2F599
:102070007C42934230D002F5806293422CD002F52C
:102080008062934228D002F58062934224D002F508
:102090008062934220D002F5704293421CD002F538
:1020A0007052934218D002F58062934214D002F528
:1020B0008062934210D0A2F5983293420CD002F580
:1020C0008062934208D002F58062934204D040F2CD
:1020D000F3311D4800F03EFEA36863B1102B0AD017
:1020E000202B08D0402B06D0602B04D04FF47D71FC
:1020F000154800F02FFE236953B1B3F5807F07D058
:10210000B3F5007F04D040F2F5310F4800F022FE15
:1021100094F8393013F0FF0F05D1002384F83830DC
:102120002046FFF7D1FD022384F83930211D2068B5
:10213000FFF78EFE012384F83930002010BD012006
:10214000704700BF00000140DC4800082DE9F04165
:1021500004460E46036A23F010030362056AD0F8B2
:102160000480876927F4E6430F6843EA072725F0D0
:1021700020038D6843EA0515164B984205D003F5F8
:102180008063984203D1012302E0012300E0002391
:10219000BBB1F36833B1082B04D041F2FB110E48F8
:1021A00000F0D8FD25F08005F36845EA031525F019
:1021B000400528F44068736948EA8308B36948EA2F
:1021C0008308C4F80480A7617368A3632562BDE82F
:1021D000F08100BF00000140DC48000890F8383072
:1021E000012B00F02E8170B516460D4604460123E2
:1021F00080F8383062B1042A0AD0082A08D00C2AA4
:1022000006D0182A04D040F63E418F4800F0A2FDC7
:102210002B68602B06D0702B04D040F63F418A48D3
:1022200000F098FDAB6833B1022B04D04FF4446149
:10223000854800F08FFD2B6933B1042B04D040F6A4
:102240004141814800F086FD022384F839300C2E8C
:1022500000F2F080DFE816F00D00EE00EE00EE0078
:102260005500EE00EE00EE008E00EE00EE00EE00F7
:10227000BE002368754A93422FD0B3F1804F2CD013
:10228000A2F57C42934228D002F58062934224D08A
:1022900002F58062934220D002F5784293421CD02E
:1022A00002F57052934218D002F58062934214D026
:1022B00002F58062934210D0A2F5983293420CD07E
:1022C00002F58062934208D002F58062934204D006
:1022D00040F649415C4800F03DFD29462068FFF783
:1022E000D7FB2268936943F00803936122689369DE
:1022F00023F004039361226891692B690B43936176
:1023000098E02368514A93421FD0B3F1804F1CD00C
:10231000A2F57C42934218D002F58062934214D019
:1023200002F58062934210D002F5784293420CD0BD
:1023300002F57052934208D0A2F59432934204D031
:1023400040F65841404800F005FD29462068FFF757
:10235000FDFE2268936943F40063936122689369E8
:1023600023F48063936122689369296943EA012316
:1023700093615FE02368354A934217D0B3F1804FF1
:1023800014D0A2F57C42934210D002F580629342B1
:102390000CD002F58062934208D002F57842934255
:1023A00004D040F66741284800F0D4FC2946206854
:1023B000FFF7A2FB2268D36943F00803D3612268C8
:1023C000D36923F00403D3612268D1692B690B43DD
:1023D000D3612FE023681D4A934217D0B3F1804F99
:1023E00014D0A2F57C42934210D002F58062934251
:1023F0000CD002F58062934208D002F578429342F5
:1024000004D040F67641104800F0A4FC294620682C
:10241000FFF7CCFB2268D36943F40063D3612268E1
:10242000D36923F48063D3612268D369296943EABD
:102430000123D361012384F83930002084F8380067
:1024400070BD0220704700BFDC480008000001405A
:1024500070B504460E461546264B98422FD0B0F173
:10246000804F2CD0A3F57C43984228D003F580639D
:10247000984224D003F58063984220D003F5784336
:1024800098421CD003F57053984218D003F580632E
:10249000984214D003F58063984210D0A3F5983386
:1024A00098420CD003F58063984208D003F580630E
:1024B000984204D041F27E210F4800F04BFC66B1F7
:1024C000042E0AD0082E08D00C2E06D0182E04D0C8
:1024D00041F27F21084800F03DFC012303FA06F297
:1024E000236A23EA02032362236AB5401D4325625F
:1024F00070BD00BF00000140DC48000838B504464C
:102500000D4603682D4A934212D0B3F1804F0FD08D
:10251000A2F57C4293420BD002F58062934207D031
:1025200002F58062934203D002F57842934206D1CD
:1025300035B3042D24D0082D22D00C2D20D0204AD4
:10254000934202D1E5B1042D1AD01E4A934200D124
:10255000B5B11D4A934200D195B11C4A934202D1B4
:1025600075B1042D0CD01A4A934200D145B1194AD5
:10257000934200D125B140F25441174800F0EAFBE4
:10258000012229462068FFF763FF23680B4A934224
:1025900005D002F58062934203D1012202E00122BC
:1025A00000E000221AB15A6C42F400425A642268D8
:1025B000136843F001031360002038BD00000140A0
:1025C0000040014000440140004801400018004024
:1025D000001C004000200040DC48000838B50446DC
:1025E0000D460368394A934212D0B3F1804F0FD0A1
:1025F000A2F57C4293420BD002F58062934207D051
:1026000002F58062934203D002F57842934206D1EC
:1026100035B3042D24D0082D22D00C2D20D02C4AE7
:10262000934202D1E5B1042D1AD02A4A934200D137
:10263000B5B1294A934200D195B1284A934202D1BB
:1026400075B1042D0CD0264A934200D145B1254ADC
:10265000934200D125B140F27541234800F07AFB46
:10266000002229462068FFF7F3FE2368174A9342A9
:1026700005D002F58062934203D1012202E00122DB
:1026800000E000226AB1196A41F21112114208D128
:10269000196A40F24442114203D15A6C22F40042BA
:1026A0005A642368196A41F21112114208D1196A59
:1026B00040F24442114203D11A6822F001021A602A
:1026C000012384F83930002038BD00BF00000140EC
:1026D0000040014000440140004801400018004013
:1026E000001C004000200040DC480008704700BF8C
:1026F000704700BF2DE9F84304464268B14B9A4247
:1027000004D940F24F71B04800F024FBE3683BB1BC
:10271000B3F5005F04D04FF4EA61AB4800F01AFB58
:10272000236953B1B3F5806F07D0B3F5C06F04D000
:1027300040F25171A44800F00DFB63694FF6F3724B
:10274000134200D123B940F252719F4800F002FBBE
:1027500021680B6923F44052E36813430B6120683E
:10276000C36823F4164222F00C02A16823691943BE
:1027700063691943E3690B431343C36021684B69E1
:1027800023F44072A36913434B61E369B3F5004F2F
:1027900040F0BB80276803F1804303F510439F425C
:1027A00003D003F580639F4257D1FFF759F900EB3F
:1027B000800000EB800065686D00B0FBF5F5834E8E
:1027C000A6FB05356D092D01FFF74AF900EB8000E6
:1027D00000EB800063685B00B0FBF3F9FFF740F9A2
:1027E00000EB800000EB800063685B00B0FBF3F35C
:1027F000A6FB03235B094FF0640808FB1393DB007F
:102800003233A6FB03235B095B0003F4F8731D441A
:10281000FFF726F900EB800000EB800063685B00A7
:10282000B0FBF3F9FFF71CF900EB800000EB800030
:1028300063685B00B0FBF3F3A6FB03235B0908FBB3
:1028400013984FEAC80808F13208A6FB0836C6F309
:1028500042163544BD60BDE8F883FFF7E9F800EBA8
:10286000800000EB800065686D00B0FBF5F5574E09
:10287000A6FB05356D092D01FFF7DAF800EB8000A6
:1028800000EB800063685B00B0FBF3F9FFF7D0F862
:1028900000EB800000EB800063685B00B0FBF3F3AB
:1028A000A6FB03235B094FF0640808FB1393DB00CE
:1028B0003233A6FB03235B095B0003F4F8731D446A
:1028C000FFF7B6F800EB800000EB800063685B0068
:1028D000B0FBF3F9FFF7ACF800EB800000EB8000F1
:1028E00063685B00B0FBF3F3A6FB03235B0908FB03
:1028F00013984FEAC80808F13208A6FB0836C6F359
:1029000042163544BD60BDE8F8832668304B9E42D0
:1029100003D003F580639E425CD1FFF7A1F800EB82
:10292000800000EB80006568AD00B0FBF5F5274F37
:10293000A7FB05356D092D01FFF792F800EB80002C
:1029400000EB800063689B00B0FBF3F8FFF788F8AA
:1029500000EB800000EB800063689B00B0FBF3F3AA
:10296000A7FB03235B094FF0640909FB13831B01D9
:102970003233A7FB03235B0903F0F0031D44FFF789
:102980006FF800EB800000EB800063689B00B0FBF9
:10299000F3F8FFF765F800EB800000EB8000636858
:1029A0009B00B0FBF3F3A7FB03235B0909FB138335
:1029B0001B013233A7FB0323C3F343131D44B5604C
:1029C000BDE8F883A037A0000C4900081F85EB5133
:1029D00000100140FFF72CF800EB800000EB8000B6
:1029E0006568AD00B0FBF5F5254FA7FB05356D0912
:1029F0002D01FFF71DF800EB800000EB80006368FD
:102A00009B00B0FBF3F8FFF713F800EB800000EB3E
:102A1000800063689B00B0FBF3F3A7FB03235B0913
:102A20004FF0640909FB13831B013233A7FB032317
:102A30005B0903F0F0031D44FEF7FAFF00EB800092
:102A400000EB800063689B00B0FBF3F8FEF7F0FF3B
:102A500000EB800000EB800063689B00B0FBF3F3A9
:102A6000A7FB03235B0909FB13831B013233A7FB7D
:102A70000323C3F343131D44B560BDE8F88300BFCF
:102A80001F85EB512DE9F04105460F461646984645
:102A9000069C1EE0B4F1FF3F1BD02CB1FDF7E0FC1B
:102AA000C8EB0000844214D22A68D36823F4D073A0
:102AB000D3602A68536923F001035361202385F80A
:102AC000393085F83A30002385F838300320BDE8E6
:102AD000F0812B681B6837EA03030CBF0123002336
:102AE000B342D7D00020BDE8F08100BF704700BFDF
:102AF000002800F0868010B5044683691BB3036884
:102B0000414A93420FD0A2F54C4293420BD002F5BA
:102B10008062934207D002F54C42934203D0FE21DB
:102B20003A4800F017F9A36953B3B3F5807F27D073
:102B3000B3F5007F24D0B3F5407F21D0FF21334887
:102B400000F008F91CE003682F4A934218D0A2F560
:102B50004C42934214D002F58062934210D002F5A9
:102B6000806293420CD002F58062934208D002F555
:102B70004442934204D040F20311244800F0EAF8A2
:102B8000A3683BB1B3F5805F04D040F205111F4844
:102B900000F0E0F8E3693BB1B3F5004F04D04FF427
:102BA00083711A4800F0D6F894F8393013F0FF0F0B
:102BB00005D1002384F838302046FFF797FF2423FF
:102BC00084F839302268D36823F40053D360204658
:102BD000FFF790FD2268136923F490431361226884
:102BE000536923F02A0353612268D36843F40053E6
:102BF000D3600020E063202384F8393084F83A3031
:102C000010BD0120704700BF001001400C490008B2
:102C10002DE9F04182B01E4690F83930DBB2202B0E
:102C200050D104460D46174600294DD0002A4DD0FC
:102C300090F83830012B4BD0012380F83830002336
:102C4000C363212380F83930FDF70AFC8046A7844E
:102C5000E78424E0013BE384A368B3F5805F12D1ED
:102C600000964346002280212046FFF70BFF88BBD9
:102C700022682B88C3F30803536023690BB902351C
:102C80000DE001350BE000964346002280212046EE
:102C9000FFF7F8FE00BB23682A785A600135E38C01
:102CA000002BD7D100964346002240212046FFF753
:102CB000E9FE034690B9202284F83920002284F8E6
:102CC00038200CE002230AE0012308E0012306E09B
:102CD000022304E0032302E0032300E00323184659
:102CE00002B0BDE8F08100BFFEE700BF08B50348B1
:102CF00000F052F80120FFF7F7FF00BF3C49000841
:102D000008B50D4B1B6813B90C4A0B4B1A600A4BE4
:102D10001A68C31C23F00303134409498B4206D9E4
:102D200001F09CF80C2303604FF0FF3008BD02490E
:102D30000B60104608BD00BF00010020E405002024
:102D400000FC012001230360014B0B60704700BFB2
:102D50000400002008B50A460146024800F004F8C5
:102D6000FFF7C4FF904900080FB400B583B004AB6F
:102D700053F8042B01938021064801F0CDF8002878
:102D800003DD0146034800F03BF803B05DF804EBB7
:102D900004B070470801002010B5044601F088F81F
:102DA0000146204600F02CF80121024800F028F8E6
:102DB00010BD00BF804A000810B400221AE04FF096
:102DC0006043D3F8803E13F0010F06D04FF060430C
:102DD000D3F8003E13F0010F01D110460DE04FF083
:102DE00060431B68002BFAD004784FF060431C70DE
:102DF000013201308A42E2D3084610BC704700BF5E
:102E000008B5FFF7D9FF08BD08B500F081F8024BFF
:102E1000024A9A6008BD00BF00ED00E00000000813
:102E2000F8B504460D4617461E462648FFF79CFF98
:102E300021682548FFF798FF61682448FFF794FF51
:102E4000A1682348FFF790FFE1682248FFF78CFF55
:102E500021692148FFF788FF61692048FFF784FF57
:102E6000A1691F48FFF780FFE1691E48FFF77CFF5B
:102E70001D48FFF779FF29461C48FFF775FF1C4CDA
:102E8000E16A1C48FFF770FF216B1B48FFF76CFFDE
:102E9000E16B1A48FFF768FF15F0800F03D0394641
:102EA0001748FFF761FF15F4004F03D0314615486E
:102EB000FFF75AFF1448FFF757FF06991348FFF72B
:102EC00053FFF8BDE8490008F8490008084A00081F
:102ED000184A0008284A0008384A0008484A0008EA
:102EE000584A0008684A0008784A0008844A0008DE
:102EF00000ED00E0944A0008A44A0008B44A000823
:102F0000C44A0008D44A0008E44A0008EC4A000811
:102F10000C4B1A6842F001021A60002199601A688D
:102F200022F0847222F480321A60074A5A601A68CA
:102F300022F480221A60D9604FF00062034B9A603D
:102F4000704700BF003802401030002400ED00E060
:102F5000224B9B6803F00C03042B07D0082B09D0ED
:102F6000002B2DD11E4A1F4B1A602CE01E4A1D4B10
:102F70001A6028E0194B5A685B6803F03F0312F4AB
:102F8000800F09D0184AB2FBF3F2144B5B68C3F30D
:102F9000881303FB02F208E0114AB2FBF3F30F4A75
:102FA0005168C1F3881101FB03F20C4B5B68C3F35A
:102FB000014301335B00B2FBF3F30A4A136002E002
:102FC000074A084B1A60054B9B68C3F30313074A73
:102FD000D15C044A1368CB4013607047003802404C
:102FE0000024F4000C00002040787D01304B0008E4
:102FF00082B00190019A43F2B06303FB02F30193A4
:1030000002E0019B013B0193019B002BF9D102B02F
:10301000704700BF82B00190019B03EB43039A000D
:10302000019202E0019B013B0193019B002BF9D12E
:1030300002B0704710B582B0002401940C4B1A6B9B
:1030400042F001021A631B6B03F001030193019B21
:1030500008490C230B6002234B600B618C60032337
:10306000CB600548FDF78AFE204602B010BD00BFC8
:1030700000380240DC0300200000024070B582B03E
:1030800000260096154D2B6B43F001032B632B6B31
:1030900003F001030093009B114C402323600223A3
:1030A00063602361A6600323E36021460D48FDF7BA
:1030B00065FE01962B6B43F002032B632B6B03F031
:1030C00002030193019BC023236001236360214617
:1030D0000548FDF753FE304602B070BD003802408F
:1030E000DC030020000002400004024010B501385B
:1030F000032832D8DFE800F0020E1A26184C01220D
:1031000040212046FDF7CCFF002280212046FDF71C
:10311000C7FF22E0124C002240212046FDF7C0FFED
:10312000012280212046FDF7BBFF16E00C4C012256
:1031300040212046FDF7B4FF012280212046FDF703
:10314000AFFF0AE0064C002240212046FDF7A8FF11
:10315000002280212046FDF7A3FF002010BD00BF04
:103160000004024010B582B0002401940D4B1A6B8C
:1031700042F002021A631B6B03F002030193019BEE
:1031800009494FF400430B6002234B6009230B6194
:103190008C600323CB600548FDF7F0FD204602B0AC
:1031A00010BD00BF00380240DC03002000040240D4
:1031B00030B583B0002401941C4B1A6B42F002021C
:1031C0001A631B6B03F002030193019B184943F23E
:1031D00007030B60174B4B608C600325CD601648CE
:1031E000FDF7CCFD224621460620FDF73DFD0620D9
:1031F000FDF77CFD224601210720FDF735FD072064
:10320000FDF774FD224602210820FDF72DFD082060
:10321000FDF76CFD224629462820FDF725FD2820D4
:10322000FDF764FD204603B030BD00BF003802400A
:10323000DC030020000011100004024070B50D46B0
:10324000364C02464FF480712046FDF729FF0022DC
:103250004FF400712046FDF723FF0220FFF7DAFE4E
:10326000C5F300124FF480512046FDF719FFC5F356
:1032700040124FF400512046FDF712FFC5F38012B3
:103280004FF480412046FDF70BFFEEB2F2094FF4F8
:1032900000412046FDF704FF01224FF40071204653
:1032A000FDF7FEFE0220FFF7B5FE00224FF400718D
:1032B0002046FDF7F5FE0220FFF7ACFE06F0010206
:1032C0004FF480512046FDF7EBFEC5F340024FF46A
:1032D00000512046FDF7E4FEC5F380024FF4804123
:1032E0002046FDF7DDFEC5F3C0024FF40041204645
:1032F000FDF7D6FE01224FF400712046FDF7D0FE07
:103300000220FFF787FE00224FF400712046FDF7F0
:10331000C7FE0220FFF76CFE002070BD00080240CF
:1033200010B5044604E0013449B20120FFF786FFDE
:1033300021780029F7D1002010BD00BF08B5002278
:103340004FF400711048FDF7ABFE33210020FFF76A
:1033500075FF32210020FFF771FF28210020FFF7C1
:103360006DFF0F210020FFF769FF01210020FFF70B
:1033700065FF06210020FFF761FF02210020FFF713
:103380005DFF002008BD00BF0008024030B583B0DB
:1033900000240194124B1A6B42F004021A631B6B57
:1033A00003F004030193019B0E494FF473430B6038
:1033B00001234B608C600223CB600B4D2846FDF748
:1033C000DDFC22464FF480712846FDF769FE224657
:1033D0004FF400712846FDF763FE204603B030BD70
:1033E00000380240DC0300200008024008B5FFF767
:1033F000CDFFFFF7A3FF002008BD00BF30B583B0AD
:1034000000250195124B1A6C42F001021A641B6CE4
:1034100003F0010301930F4C4FF08043236040F20F
:10342000E733E36042F2CF0363602561A560204685
:10343000FEF79CFD2046FEF7F9FB2A4606211C20DC
:10344000FDF712FC1C20FDF751FC284603B030BDEF
:1034500000380240E002002070B582B000240194E0
:10346000114B1A6C42F002021A641B6C03F0020347
:103470000193019B0D4D0E4B2B600E4B1B68013BC6
:10348000EB606C602C61AC600B4E60233360746049
:103490002846FEF7E1FD224631462846FEF79EFE0D
:1034A000204602B070BD00BF003802405005002029
:1034B000000400408C0000204C02002070B582B057
:1034C00000250195134B1A6C42F008021A641B6C1C
:1034D00003F008030193019B0F4C104B2360104B2A
:1034E0001B68013BE36065602561A5600D4E6023AC
:1034F000336075602046FEF7AFFD08223146204656
:10350000FEF76CFE0C2231462046FEF767FE284689
:1035100002B070BD0038024068020020000C00407C
:10352000140000205C03002030B583B00025019515
:10353000124B1A6C42F004021A641B6C03F0040371
:103540000193019B0E4C0F4B23600923E36040F273
:10355000473363602561A5602046FEF707FD2046DE
:10356000FEF764FB2A4607211E20FDF77DFB1E2087
:10357000FDF7BCFB284603B030BD00BF0038024059
:10358000A40200200008004070B582B0002501951B
:10359000144B1A6C42F040021A641B6C03F0400397
:1035A0000193019B104C114B2360114B1A68114B76
:1035B00053F822305A1EE260532262602561A560F2
:1035C0000D4E602232605B08013B73602046FEF7BF
:1035D00043FD042231462046FEF700FE284602B095
:1035E00070BD00BF003802401C03002000180040DE
:1035F000A0010020680000203405002008B5FFF776
:10360000FDFEFFF729FFFFF78FFFFFF757FFFFF7DB
:10361000BBFF002008BD00BF70B582B0002400943D
:10362000194B5A6C42F480725A645A6C02F48072DC
:103630000092009A01941A6B42F001021A631B6B0C
:1036400003F001030193019B104901260E6003233F
:103650004B600F48FDF792FB0E4D0F4B2B606C60DB
:10366000AC60EC602C61AC61EE610C4BAB62284647
:10367000FCF7A8FF0A490C604E608C602846FDF7F5
:10368000F3F9204602B070BD00380240DC03002090
:103690000000024004020020002001400100000F51
:1036A000CC03002010B582B000240094174B5A6C54
:1036B00042F400725A645A6C02F400720092009A4A
:1036C00001941A6B42F001021A631B6B03F00103B1
:1036D0000193019B0E4930230B6003234B600D487F
:1036E000FDF74CFB0C480D4B036044608460C460E4
:1036F000046184610123C36103F1706383624461E7
:10370000FCF760FF204602B010BD00BF0038024049
:10371000DC03002000000240B8010020002101402D
:1037200008B5FFF779FFFFF7BDFF00220521122042
:10373000FDF79AFA1220FDF7D9FA002008BD00BF64
:1037400010B582B0002400941A4B1A6B42F00202AA
:103750001A631A6B02F002020092009A01941A6C2A
:1037600042F480021A641B6C03F480030193019BF2
:1037700011494FF440630B6012234B6004230B612B
:1037800001238B600323CB600C48FDF7F7FA0C484C
:103790000C4B03600C4B43604FF48043836040222A
:1037A000C260036144618461C4610462FDF7A0FCEE
:1037B00002B010BD00380240DC03002000040240CB
:1037C0008C05002000580040801A060070B582B0B9
:1037D000002500951F4B1A6B42F001021A631A6B09
:1037E00002F001020092009A01955A6C42F0100218
:1037F0005A645B6C03F010030193019B16494FF46C
:10380000C0630B6002234B608D600323CB600723F2
:103810000B611248FDF7B2FA114C124B23604FF4C2
:1038200016536360A560E5602561A5610C236361A3
:10383000E5612046FFF75CF90B4E304600F038FB9F
:103840004FF6FF7382B231462046FFF7E1F9284672
:1038500002B070BD00380240DC03002000000240CE
:10386000F0040020001001401800002008B5FFF708
:10387000E1FBFFF703FCFFF775FCFFF799FCFFF78F
:10388000B5FDFFF75DFF002008BD00BF30B583B078
:10389000FFF7ECFFFFF744FFFFF798FFFFF7AEFEDF
:1038A00000238DF804300120FFF720FC6FF07F012A
:1038B0000020FFF7C3FC744C744B1B6822687449EA
:1038C00001A800F0D1FA01A8FFF72AFD6FF03F012F
:1038D0000020FFF7B3FC6F4BDA686F4901A800F0D6
:1038E000C3FA01A8FFF71CFD6C4B1A6823689A42C3
:1038F00064D0B3F5AF6F0BDC694B1B68694AA2FB60
:1039000003239B0803EB8303013B674A53603DE0BD
:1039100040F26C7293420ADC614B1B68614AA2FB65
:10392000032323F00303013B5F4A53602EE0B3F50A
:10393000166F0BDC5A4B1B685A4AA2FB03239B08E9
:1039400003EB4303013B584A53601FE040F65432F7
:1039500093420ADC524B1B68524AA2FB03239B088A
:103960005B00013B504A536010E040F648529342DE
:1039700009DC4B4B1B684B4AA2FB03239B08013B12
:10398000494A536002E00022474B5A60464D474C7B
:10399000082229462046FEF721FC0C222946204613
:1039A000FEF71CFC08212046FEF7A8FD0C2120464E
:1039B000FEF7A4FD344B1A68384B1A603C4B1A686A
:1039C000324B1B689A423DD0B3F57A7F07DC394B06
:1039D0001B6823F00303013B374A536024E0B3F52F
:1039E000FA6F08DC334B1B689B0803EB4303013B76
:1039F000314A536018E040F6B832934207DC2D4B51
:103A00001B689B085B00013B2B4A53600CE0B3F53D
:103A10007A6F06DC274B1B689B08013B264A5360E4
:103A200002E00022244B5A60244C00222249204606
:103A3000FEF7D4FB00212046FEF760FD134B1A6809
:103A40001B4B1A601E4B1A681E4B1B689A423FF4B0
:103A50002DAF1D4A52F823305A1E0E4CE2605B080F
:103A6000013B1A4D6B602046FEF7F6FA0422294608
:103A70002046FEF7B3FB04212046FEF73FFD114B25
:103A80001A680F4B1A6011E7980100208C01002082
:103A9000404B00081C030020504B00089C010020F4
:103AA00014000020CDCCCCCC5C03002068020020A8
:103AB000A40100208C0000204C02002050050020B2
:103AC00088010020A00100206800002034050020AB
:103AD00010B5B0F5807F06D14A4A136813F1FF3361
:103AE00018BF01231360484B1B69484C23606420B6
:103AF000FFF77EFA236813F0010F03D00022444B36
:103B00001A601EE013F0020F03D00122404B1A602E
:103B100017E013F0040F03D002223D4B1A6010E0AF
:103B200013F4805F03D00322394B1A6009E013F4C9
:103B3000005F03D00422364B1A6002E00522344BAA
:103B40001A60334B1B68052B47D8DFE803F02A3691
:103B50001F0311422F4B1B68022B03D00220FFF7DB
:103B6000C5FA3AE0022B38D10320FFF7BFFA34E060
:103B7000284B1B68012B03D00120FFF7B7FA2CE07C
:103B8000012B2AD10320FFF7B1FA26E00420FFF72A
:103B9000ADFA04212048FEF721FD00221F4B1A60D8
:103BA0001BE01E4B1B68072B03D908221B4B1A6016
:103BB00013E00133194A13600FE0184B1B68012B07
:103BC00003D80122154B1A6007E0013B134A13602A
:103BD00003E0104B1878FFF789FA104B1A68104C65
:103BE000104B53F822201049204600F03DF92046A2
:103BF00000F05EF94FF6FF7382B221460B48FFF7E3
:103C000007F810BD90000020000402407803002057
:103C100010000020940100201C030020A0010020BF
:103C200018000020440000205C4B0008F004002035
:103C300010B5044602680F4B9A4203D1FCF74CFEC4
:103C40000D4B186022680D4B9A4211D10C4B1B682A
:103C5000042B04D12046FCF73FFE0A4B1860084BAA
:103C60001B68052B04D12046FCF736FE064B186076
:103C700010BD00BF0020014098010020002101403C
:103C8000CC0300208C0100209001002038B503688F
:103C9000B3F1804F1CD10F48FCF77EFD0E4D04237D
:103CA0002B600E4C29462046FCF7DEFE2046FCF732
:103CB00073FD0120FFF79CF905232B602946204660
:103CC000FCF7D2FE2046FCF767FD0120FFF790F9D4
:103CD00038BD00BF04020020CC030020B801002042
:103CE00030B595B000240194214B1A6C42F08052FB
:103CF0001A641B6C03F080530193019B02941D4BCB
:103D00001A6842F480421A601B6803F480430293ED
:103D1000029B0123089309934FF480030F93192307
:103D200010934FF4A8731193022512950723139350
:103D30000E9508A8FDF7D0FA0F2303930495059478
:103D40004FF4A05306934FF480530793052103A823
:103D5000FDF736FDFDF766FE074BA3FB003080093B
:103D6000FCF7DAFF0420FCF7EDFF15B030BD00BF13
:103D70000038024000700040D34D621008B5FCF7D7
:103D80004DFBFFF7ADFFFFF7E3F808BD704700BF3D
:103D900008B50348FCF7A8FD0248FCF7A5FD08BDDF
:103DA00004020020B801002008B50248FDF796FF84
:103DB00008BD00BFE002002008B50248FDF78EFFF5
:103DC00008BD00BF5005002008B50248FDF786FF7A
:103DD00008BD00BF6802002008B50248FDF77EFF5D
:103DE00008BD00BFA402002008B50120FDF772F94C
:103DF00008BD00BF08B50220FDF76CF908BD00BF83
:103E000008B50420FDF766F908BD00BF08B54FF4FA
:103E10008070FDF75FF908BD08B54FF40060FDF74D
:103E200059F94FF48050FDF755F94FF40050FDF764
:103E300051F908BD704700BFFEE700BFFEE700BFB5
:103E4000FEE700BFFEE700BF704700BF704700BF3E
:103E5000704700BF08B5FCF7FBFA08BD014B1868B6
:103E6000704700BFF40000200EB400B59CB04FF4C2
:103E700002711DABADF81410029006906FF0004176
:103E80000A48049107914FF6FF7153F8042BADF8DF
:103E900016100068019302A900F0A6F8029B002208
:103EA0001A701CB05DF804EB03B07047F4000020FA
:103EB000034613F8012B002AFBD1181A013870476A
:103EC00030B5141E05469BB0184604DA8B232B60D0
:103ED0004FF0FF301DE04FF40273ADF80C3014BF0B
:103EE00004F1FF332346029305934FF6FF730091CD
:103EF0000491ADF80E3002461E9B6946284600F03C
:103F000073F8431CBCBF8B232B6014B1009B0022B1
:103F10001A701BB030BD000007B5009313460A4667
:103F2000014603480068FFF7CBFF03B05DF804FBD0
:103F3000F40000202DE9F0478E689E4282460C4630
:103F4000914698463ED88A8912F4906F3AD02568F7
:103F500009696F1A6569022305EB450595FBF3F5C1
:103F60007B1C43449D4238BF1D4653050FD529464F
:103F700000F092FB064698B13A46216900F018FB22
:103F8000A38923F4906343F08003A38113E02A46BE
:103F900000F0E0FB064670B92169504600F02EFBA8
:103FA0000C23CAF80030A38943F04003A3814FF0EB
:103FB000FF30BDE8F087266165613E44ED1B266059
:103FC000A5604646464528BF4646324649462068D3
:103FD00000F0F9FAA3689B1BA36023681E442660C7
:103FE0000020BDE8F08700002DE9F04F9DB080462D
:103FF00003938B891C060D4616460DD50B695BB9DC
:10400000402100F049FB2860286118B90C23C8F84A
:104010000030CDE040236B610023099320238DF80D
:104020002930DFF89CB130238DF82A3037463C46E2
:1040300014F8013B1BB9B7EB060910D003E0252BA0
:10404000F9D02746F3E74B46324629464046FFF76C
:1040500071FF013000F0A780099B4B4409933B7826
:10406000002B00F0A08000234FF0FF320493079351
:10407000059206938DF853301A9301260522217874
:104080004E4800F045FA671C049B38B14B4A801A31
:1040900006FA00F0184304903C46EFE7D90644BF07
:1040A00020228DF853201A0744BF2B228DF853206D
:1040B00022782A2A03D0079A00210A200BE0039ACB
:1040C000111D12680391002A10DA524243F00200D7
:1040D000079204900BE0274601343B78303B092BD4
:1040E00003D800FB02320121F5E701B107923B78CA
:1040F0002E2B1ED17B782A2B0AD1039B1A1D1B68FD
:104100000392002BB8BF4FF0FF330237059310E046
:1041100000230593781C19460A24074601303A7893
:10412000303A092A03D804FB01210123F5E703B142
:10413000059103223978224800F0EAF940B1402382
:10414000CBEB000003FA00F0049B18430490013706
:1041500039781C488DF8281006227E1C00F0D8F90A
:1041600088B1194B33B9039B073323F00703083396
:10417000039314E003AB00932A46144B04A9404672
:10418000AFF3008007E003AB00932A460F4B04A96E
:10419000404600F093F8B0F1FF3F824603D0099B00
:1041A0005344099342E7AB895B0601D4099801E0C7
:1041B0004FF0FF301DB0BDE8F08F00BFB44B0008DA
:1041C000BA4B0008BE4B000800000000353F000855
:1041D0002DE9F04791461F460A698B68DDF820807B
:1041E0009342B8BF1346C9F8003091F84320064601
:1041F0000C4612B10133C9F800302368990642BF5A
:10420000D9F800300233C9F80030256815F00605EA
:1042100010D104F1190A07E001235246394630460D
:10422000C04701301AD00135E368D9F800209B1A45
:104230009D42F1DB94F843302268003318BF01231C
:1042400092060FD5E1185A1C302081F84300224411
:1042500094F8451082F84310023303E04FF0FF302A
:10426000BDE8F08704F1430239463046C0470130CB
:10427000F4D02268D9F80050E36802F00602042A5C
:1042800008BF5D1B2269A3680CBF25EAE575002500
:104290009342C4BF9B1AED184FF000091A344D45E4
:1042A00009D00123224639463046C0470130D5D0D7
:1042B00009F10109F3E70020BDE8F0872DE9F0439B
:1042C00017460A7E85B06E2A984606460C460C9B19
:1042D00001F1430E00F0AE8011D8632A22D009D834
:1042E000002A00F0BB80582A40F0CA8081F845209F
:1042F000834955E0642A1ED0692A1CD0C0E0732A85
:1043000000F0B08009D86F2A2ED0702A40F0B88013
:104310000A6842F020020A603EE0752A24D0782A1A
:104320003AD0ADE01A6801F14205111D1960136819
:1043300084F84230A8E021681A6811F0800F02D09A
:10434000111D196008E011F0400F02F1040119601D
:1043500002D0B2F9003000E01368002B3CDA2D22C5
:104360005B4284F8432037E021681A6811F0800F1F
:1043700002D0111D196007E011F0400F02F1040195
:10438000196001D0138800E01368227E5C496F2A0F
:1043900014BF0A2208221BE078225A4984F84520DB
:1043A0002268186812F0800F00F104051D6003D127
:1043B000550601D5038800E00368D00744BF42F0EA
:1043C000200222601BB9226822F020022260102203
:1043D000002084F8430001E049490A226568A5608D
:1043E000002D08DB206820F0040020602BB9002D90
:1043F0007DD175460CE0002B79D07546B3FBF2F009
:1044000002FB1033CB5C05F8013D03460028F5D1D3
:10441000082A0BD12368DA0708D5236962689A4213
:10442000DEBF302305F8013C05F1FF35C5EB0E0377
:1044300023612EE008681A68496910F0800F03D0E4
:10444000101D1860136808E010F0400F02F104001E
:104450001860136801D0198000E0196000232361FF
:10446000754616E01A68111D19601568626800210A
:10447000284600F04DF808B1401B6060636804E016
:1044800004F1420584F8422001232361002384F8CB
:104490004330CDF800803B4603AA21463046FFF763
:1044A00097FE013002D14FF0FF3026E023692A4603
:1044B00039463046C0470130F5D023689B0710D5F8
:1044C000002504F1190907E001234A463946304620
:1044D000C0470130E7D00135E368039A9B1A9D423B
:1044E000F2DBE068039B9842B8BF184605E00B7802
:1044F00084F8423004F142058AE705B0BDE8F08354
:10450000C54B0008D64B000800000000000000006A
:1045100001F0FF01102A2BDB10F0070F08D010F874
:10452000013B013A8B422DD010F0070F42B3F6D178
:10453000F0B441EA012141EA014122F007047FF091
:1045400000070023F0E80256083C85EA010586EAE8
:10455000010685FA47F5A3FA87F586FA47F6A5FA24
:1045600087F68EB9EED1F0BC01F0FF0102F0070230
:1045700032B110F8013B013A83EA010313B1F8D1DB
:104580000020704701387047002D06BF35460338BC
:10459000073815F0010F07D1013015F4807F02BFF5
:1045A000013015F4C03F0130F0BC0138704700BF46
:1045B00010B5431E0A44914204D011F8014B03F890
:1045C000014FF8E710BD884210B501EB020301D896
:1045D000421E0BE09842FBD28118D21AD34204D07B
:1045E00013F8014D01F8014DF8E710BD994204D0D0
:1045F00011F8014B02F8014FF8E710BD38B5054638
:10460000002946D051F8043C0C1F002BB8BFE41819
:1046100000F0D6F81F4A1368114613B9636014609E
:1046200032E0A3420ED92268A018834204BF186862
:104630005B68636004BF121822600C6024E0A24231
:1046400003D813465A68002AF9D118681918A142EC
:104650000BD12168014458188242196014D11068A6
:1046600052685A60014419600EE002D90C232B6095
:104670000AE021686018824204BF106852686260D4
:1046800004BF091821605C602846BDE8384000F08E
:1046900098B838BDAC01002070B5CD1C25F00305DD
:1046A00008350C2D38BF0C25002D064601DBA9422C
:1046B00002D90C23336046E000F082F8234B1C68DB
:1046C0001A462146A1B10B685B1B0ED40B2B03D9F4
:1046D0000B60CC18CD501EE08C420DBF63684B6858
:1046E0006360136018BF0C4615E00C464968E9E7A3
:1046F000174C23681BB9304600F052F82060294659
:10470000304600F04DF8431C18D0C41C24F00304BC
:10471000A0420DD12560304600F053F804F10B00A3
:10472000231D20F00700C31A0ED05A42E25070BD7C
:10473000211A304600F034F80130EBD10C233360FD
:10474000304600F03EF8002070BD00BFAC010020F4
:10475000A8010020F8B5074615460E4621B91146B6
:10476000BDE8F840FFF798BF1AB9FFF747FF2846A2
:10477000F8BD00F027F885420ED929463846FFF7E4
:104780008BFF044650B131462A46FFF711FF3146F0
:104790003846FFF733FF01E03046F8BD2046F8BD4C
:1047A00038B5064C0023054608462360FEF7A8FAF4
:1047B000431C02D1236803B12B6038BDB401002033
:1047C0007047704751F8040C0028BEBF091851F813
:1047D000043CC018043870472E2E2F73797374650B
:1047E0006D2F7372632F73746D333266342D68616D
:1047F0006C2F73746D3332663478785F68616C5FE8
:104800006164632E630000002E2E2F73797374652C
:104810006D2F7372632F73746D333266342D68613C
:104820006C2F73746D3332663478785F68616C5FB7
:10483000636F727465782E63000000002E2E2F7354
:10484000797374656D2F7372632F73746D33326671
:10485000342D68616C2F73746D3332663478785FF1
:1048600068616C5F6770696F2E6300002E2E2F7376
:10487000797374656D2F7372632F73746D33326641
:10488000342D68616C2F73746D3332663478785FC1
:1048900068616C5F6932632E6300000000000000F5
:1048A0000102030401020304060708092E2E2F73D8
:1048B000797374656D2F7372632F73746D33326601
:1048C000342D68616C2F73746D3332663478785F81
:1048D00068616C5F7263632E630000002E2E2F737D
:1048E000797374656D2F7372632F73746D333266D1
:1048F000342D68616C2F73746D3332663478785F51
:1049000068616C5F74696D2E630000002E2E2F733A
:10491000797374656D2F7372632F73746D333266A0
:10492000342D68616C2F73746D3332663478785F20
:1049300068616C5F756172742E63000061626F72F2
:104940007428292C2065786974696E672E2E2E00D4
:104950002C2066756E6374696F6E3A20000000004B
:10496000617373657274696F6E20222573222066ED
:1049700061696C65643A2066696C65202225732242
:104980002C206C696E65202564257325730A000050
:104990006173736572745F706172616D282920663E
:1049A00061696C65643A2066696C65202225732212
:1049B0002C206C696E652025640A00006D61696EAB
:1049C00028617267633D25642C20617267763D5BC8
:1049D000000000002C2000002225732200000000AF
:1049E0005D293B0A00000000537461636B2066720E
:1049F000616D653A0A000000205230203D202025DC
:104A00003038580A00000000205231203D20202577
:104A10003038580A00000000205232203D20202566
:104A20003038580A00000000205233203D20202555
:104A30003038580A0000000020523132203D202535
:104A40003038580A00000000204C52203D2020251C
:104A50003038580A00000000205043203D20202517
:104A60003038580A0000000020505352203D2025C5
:104A70003038580A000000004653522F4641523A3F
:104A80000A0000002043465352203D2020253038A4
:104A9000580A00002048465352203D202025303837
:104AA000580A00002044465352203D20202530382B
:104AB000580A00002041465352203D20202530381E
:104AC000580A0000204D4D464152203D20253038E7
:104AD000580A00002042464152203D20202530380F
:104AE000580A00004D6973630A000000204C522FE1
:104AF0004558435F52455455524E3D202530385855
:104B00000A0000005B486172644661756C745D0A5E
:104B1000000000005B4275734661756C745D0A00AD
:104B20005B55736167654661756C745D0A000000D2
:104B3000000000000000000001020304060708094D
:104B40004344533A2534642C56523A2534640000C9
:104B5000534F554E443A2534640000005049455A9D
:104B60004F203A2025730D0A000000006D75746512
:104B700000000000444F3420000000005245342063
:104B8000000000004D493420000000004641342060
:104B900000000000534F3420000000004C4134203E
:104BA000000000005349342000000000444F35202D
:104BB00000000000232D302B2000686C4C0065663F
:104BC000674546470030313233343536373839415E
:104BD0004243444546003031323334353637383974
:074BE0006162636465660079
:104BE8007856341204010020000000000024F4006C
:104BF80005000000102700002F2A203D3D3D3D3DC7
:104C08003D3D3D3D20576F726B73686F7020546552
:104C18007374203D3D3D3D3D3D3D3D3D2A2F0A0DF0
:104C280000FFFFFF6C4B0008744B00087C4B00082A
:104C3800844B00088C4B0008944B00089C4B0008E0
:104C4800A44B0008AC4B000800000000EE0E00006A
:104C58004D0D0000D90B00002F0B0000F7090000D4
:104C6800E0080000E80700007707000010270000B0
:104C7800010000000000000000000000000000002B
:104C8800000000000000000000000000000000001C
:104C9800000000000000000000000000000000000C
:104CA80000000000000000000000000000000000FC
:104CB80000000000000000000000000000000000EC
:104CC80000000000000000000000000000000000DC
:0C4CD80000000000940000203254769888
:040000050800018965
:00000001FF
