:020000040800F2
:1000000000000220B9020008893600088D36000879
:100010009136000895360008993600080000000067
:100020000000000000000000000000009D360008F5
:10003000A136000800000000A5360008A936000817
:10004000BD030008BD030008BD030008BD03000890
:10005000BD030008BD0300083D360008493600080E
:1000600055360008BD030008BD030008BD030008A5
:10007000BD030008BD030008BD030008BD03000860
:10008000BD030008BD030008E5350008BD030008F6
:10009000BD030008BD030008BD0300086136000869
:1000A000BD030008BD030008BD030008BD03000830
:1000B000FD3500080D3600082D360008BD03000888
:1000C000BD030008BD030008BD030008BD03000810
:1000D000BD030008BD030008BD030008BD03000800
:1000E0006D360008BD030008BD030008BD0300080D
:1000F000BD030008BD030008BD030008BD030008E0
:10010000BD030008BD0300081D360008BD0300083C
:10011000BD030008BD030008BD030008BD030008BF
:10012000BD030008BD030008BD030008BD030008AF
:10013000BD0300080000000000000000BD0300082F
:10014000BD030008BD030008BD030008BD0300088F
:10015000BD030008BD030008BD030008BD0300087F
:10016000BD030008BD030008BD030008BD0300086F
:10017000BD030008BD0300080000000000000000EF
:10018000BD030008BD03000800B583B002F06CFD9C
:10019000384B394A1360394A136039490CE00A6810
:1001A0004B6801F10C04886803E01168196004339E
:1001B00004329842F9D82146324B9942EFD32E4B64
:1001C0001A68314B9A4204D12C4B1A682F4B9A4231
:1001D00000D0FEE7274B2E4A13602E4A13602E4BA9
:1001E0000AE0194651F8082B5B6802E00020106015
:1001F00004329A42FAD30B46284A9342F1D3244B55
:100200001B6813B9234B1B6803B1FEE703F0E0F949
:10021000694601A802F0C6FC214C224B1C1BA4100D
:10022000002504E01E4B53F8253098470135AC42B9
:10023000F8DC1D4C1D4B1C1BA410002504E01A4BC0
:1002400053F8253098470135AC42F8DC0099019805
:1002500003F0C8F80546164C164B1C1BA41004E00E
:10026000013C134B53F824309847002CF8DC284607
:1002700002F06AFCBABADECA00000020A00000202A
:10028000C0030008D8030008785634123254769818
:10029000A400002070050020D8030008E80300082F
:1002A000E8030008E8030008E8030008E803000882
:1002B000E8030008E803000808B5FFF765FF00BF82
:1002C00000BEFEE71EF0040F0CBFEFF30880EFF353
:1002D00009807146364A10472DE9F04182B0044644
:1002E0008846084B5E6B9F6B9D6A074802F06CFC6A
:1002F000CDF800803B4632462946204602F0C0FC3D
:1003000000BEFEE700ED00E0144C000800BEFEE772
:100310001EF0040F0CBFEFF30880EFF30980714665
:10032000244A10472DE9F04182B004468846084B24
:100330005E6B9F6B9D6A074802F046FCCDF800801B
:100340003B4632462946204602F09AFC00BEFEE7B4
:1003500000ED00E0244C00081EF0040F0CBFEFF38A
:100360000880EFF309807146134A10472DE9F041E8
:1003700082B004468846084B5E6B9F6B9D6A0748B7
:1003800002F022FCCDF800803B463246294620464A
:1003900002F076FC00BEFEE700ED00E0304C000805
:1003A00000BEFEE700BEFEE700BEFEE770470000AD
:1003B000D9020008250300086D03000800BEFEE70F
:1003C000E84C000800000020A4000020E84C0008D1
:1003D0000000001000000010A400002074050020A0
:0803E0000000001000000010F5
:1003F00010B50446074B1B680748A0FB0330800973
:1004000000F0E8FB002221464FF0FF3000F08AFBAD
:10041000002010BD0C000020D34D621008B50B4B1E
:100420001A6842F400721A601A6842F480621A6014
:100430001A6842F480721A60032000F055FB0F2006
:10044000FFF7D6FF03F0CCF8002008BD003C0240C7
:10045000024A136801331360704700BF4001002057
:10046000014B1868704700BF4001002010B50446DA
:10047000504B5A6822F440325A60596842680A4325
:100480005A600268536823F48073536002685368AB
:10049000016943EA012353600268536823F0407303
:1004A00053600268516883680B4353600268936825
:1004B00023F40063936002689168C3680B43936000
:1004C000826A3D4B9A4214D00268936823F07063AD
:1004D000936002689168836A0B4393600268936833
:1004E00023F04053936002689168C36A0B439360A2
:1004F00009E00268936823F0706393600268936870
:1005000023F0405393602268936823F002039360C2
:1005100022689368A16943EA41039360236A03B3A5
:10052000636A013B072B04D940F20A61234802F0B9
:1005300041FB2268536843F40063536022685368A8
:1005400023F460435360636A013B4FF4604292FAC4
:10055000A2F2B2FA82F2934021684A6813434B60D8
:1005600004E02268536823F4006353602268D36A6E
:1005700023F47003D3622168CA6AE369013B42EA4B
:100580000353CB622268936823F40073936022685C
:100590009368216B43EA412393602268936823F4B4
:1005A0008063936022689368616943EA8123936062
:1005B00010BD00BF002301400100000FE848000803
:1005C000704700BF002800F0DE8010B504460368C5
:1005D0006E4A93420CD002F58072934208D002F525
:1005E0008072934204D040F20D11694802F0E2FAA1
:1005F00063686BB1B3F5803F0AD0B3F5003F07D015
:10060000B3F5403F04D04FF48771614802F0D2FA4D
:10061000A3686BB1B3F1807F0AD0B3F1007F07D03C
:10062000B3F1407F04D040F20F11594802F0C2FAF2
:100630002369012B04D94FF48871554802F0BAFAA6
:10064000A369012B04D940F21111514802F0B2FA0A
:10065000A36AA3B3B3F1807F31D0B3F1007F2ED072
:10066000B3F1407F2BD0B3F1806F28D0B3F1A06FEE
:1006700025D0B3F1C06F22D0B3F1E06F1FD0B3F13A
:10068000006F1CD0B3F1106F19D0B3F1206F16D0EA
:10069000B3F1306F13D0B3F1406F10D0B3F1506F9E
:1006A0000DD0B3F1606F0AD0B3F1706F07D0394A43
:1006B000934204D04FF48971354802F07BFAE36825
:1006C0003BB1B3F5006F04D040F21311304802F093
:1006D00071FAE369013B0F2B04D94FF48A712C485E
:1006E00002F068FA236B012B04D940F21511284857
:1006F00002F060FA6369022B04D94FF48B7124482D
:1007000002F058FA236A012B04D940F2171120484D
:1007100002F050FAA26A1F4B9A420FD0E36A6BB103
:10072000B3F1805F0AD0B3F1005F07D0B3F1405F4F
:1007300004D040F21B11164802F03CFA236C2BB98E
:10074000636484F83C302046FFF73AFF236C13F0D3
:10075000100F13D1236C23F4885323F0020343F0CA
:10076000020323642046FFF781FE00206064236CAF
:1007700023F0030343F00103236400E0012000237E
:1007800084F83C3010BD0120704700BF00200140BC
:10079000E84800080100000F704700BF704700BF25
:1007A000704700BF38B504468369012B04D940F275
:1007B00069315B4802F0FEF9E369013B0F2B04D974
:1007C00040F26A31564802F0F5F96369022B04D908
:1007D00040F26B31524802F0EDF92268116853681B
:1007E00003F0200311F0020F2DD063B3236C13F03C
:1007F000100F03D1236C43F400732364936813F048
:10080000405F19D1A369BBB9D36A13F4700F03D049
:10081000936813F4806F0FD1536823F02003536063
:10082000236C23F480732364236C13F4805F03D15F
:10083000236C43F0010323642046FFF7ADFF2368D8
:100840006FF012021A60236819685A6802F0800279
:1008500011F0040F36D0002A34D0226C12F0100FA1
:1008600003D1226C42F4005222649A6812F4401FB1
:1008700021D19A6B12F4401F03D09A6812F4806F52
:1008800019D15A6812F4806F15D19A6812F0405F3E
:1008900011D1A2697AB95A6822F080025A60236C99
:1008A00023F480532364236C13F4807F03D1236CDF
:1008B00043F001032364204600F014F923686FF02D
:1008C0000C021A6022681168536803F0400311F0AB
:1008D000010F0FD073B1136813F0010F0AD0236C0E
:1008E00043F4803323642046FFF758FF23686FF0FA
:1008F00001021A6022681168536803F0806311F0E6
:10090000200F0CD05BB1636C43F0020363646FF0A3
:10091000200515602046FFF743FF23681D6038BDA2
:10092000E848000830B583B005460C460023019323
:100930000B68122B04D940F20451664802F03AF9D0
:100940006368013B0F2B04D940F20551614802F066
:1009500031F9A368072B04D940F206515D4802F033
:1009600029F995F83C30012B00F0B180012385F87E
:100970003C302368092B17D92868C2689BB203EB67
:1009800043031E3B072101FA03F322EA0303C3607A
:100990002968C868A268238803EB43031E3B02FA58
:1009A00003F30343CB6013E0286802699BB203EBB7
:1009B0004303072101FA03F322EA030303612968D1
:1009C0000869A368228802EB4202934003430B614B
:1009D0006368062B16D82868426B03EB8303053B3C
:1009E0001F2101FA03F322EA030343632968486BDA
:1009F000636803EB8303053B228802FA03F3034396
:100A00004B632EE00C2B16D82868026B03EB830394
:100A1000233B1F2101FA03F322EA0303036329683E
:100A2000086B636803EB8303233B228802FA03F31A
:100A300003430B6315E02868C26A03EB8303413B61
:100A40001F2101FA03F322EA0303C3622968C86A7B
:100A5000636803EB8303413B228802FA03F30343F9
:100A6000CB622A681C4B9A4207D12368122B04D10F
:100A70001A4A536843F4800353602A68164B9A421B
:100A800021D12368103B012B1DD8144A536843F42D
:100A9000000353602368102B15D1114B1B6802F122
:100AA000467202F52E3202F28332A2FB03239B0C24
:100AB00003EB83035A00019202E0019B013B019387
:100AC000019B002BF9D1002085F83C0000E00220BA
:100AD00003B030BDE8480008002001400023014079
:100AE0000C000020704700BF10B50446C31E042B45
:100AF00003D9A421094802F05DF8094AD36823F418
:100B0000E0631B041B0C240204F4E064234343F061
:100B1000BF6343F40033D36010BD00BF1849000821
:100B200000ED00E070B504460E4615460F2A03D9C5
:100B3000BC211A4802F03EF80F2E03D9BD211748F8
:100B400002F038F8164BDA68C2F30222C2F107014C
:100B5000042928BF0421131D062B01D9033A00E004
:100B60000022012303FA01F101393140914003FAD7
:100B700002F2013A2A400A43002C06DA04F00F047C
:100B80001201D2B2074B1A5570BD1201D2B204F154
:100B9000604404F5614484F8002370BD18490008DE
:100BA00000ED00E014ED00E010B5041E03DAD021E2
:100BB000064801F0FFFF620904F01F04012303FA55
:100BC00004F4034B43F8224010BD00BF184900084D
:100BD00000E100E00138B0F1807F0AD2064B586096
:100BE000F021064A82F823100020986007221A603C
:100BF00070470120704700BF10E000E000ED00E00A
:100C000010B50446042805D020B140F2B3110848BD
:100C100001F0D0FF042C05D1064A136843F0040309
:100C2000136010BD034A136823F00403136010BD62
:100C30001849000810E000E02DE9F04782B0804636
:100C40000F46A14B984223D003F5806398421FD0F2
:100C500003F5806398421BD003F58063984217D058
:100C600003F58063984213D003F5806398420FD058
:100C700003F5806398420BD003F58063984207D058
:100C800003F58063984203D0C521904801F092FF9C
:100C90003B881BB9C6218D4801F08CFF7B68012B76
:100CA00022D9112B20D0022B1ED0122B1CD0884A07
:100CB000934219D002F58012934215D002F58012AA
:100CC000934211D0A2F5F81293420DD002F5801292
:100CD000934209D002F58012934205D0032B03D032
:100CE000C7217A4801F066FFBB68022B03D9C821EF
:100CF000764801F05FFF002526E10124AC403E6804
:100D00002640B44240F01F817B68022B01D0122B99
:100D100045D13B699BB3092B31D083B37BB373B30C
:100D20006BB3012B2BD02AD0022B28D027D026D072
:100D3000032B24D0042B22D021D020D0052B1ED071
:100D40001DD0092B1BD0062B19D0092B17D0072B30
:100D500015D014D013D0082B11D010D00FD0092BE0
:100D60000DD00CD00A2B0AD009D00C2B07D006D0FE
:100D700005D00F2B03D0D921544801F01BFFEA08FE
:100D8000083258F8220005F0070399000F238B4022
:100D900020EA03003B698B40034348F82230D8F82F
:100DA00000304FEA450A4FF0030909FA0AF96FEAE1
:100DB000090903EA09027B6803F0030303FA0AF353
:100DC0001343C8F800307B685A1E012A03D9112B3F
:100DD00001D0122B1BD1FB68032B03D9EC213B481C
:100DE00001F0E8FED8F8083009EA0302FB6803FACC
:100DF0000AF31343C8F80830D8F8043023EA04048F
:100E00007B68C3F30013AB401C43C8F80440D8F818
:100E10000C3009EA0309BB6803FA0AF349EA030341
:100E2000C8F80C307B6813F0805F00F08C800023E2
:100E30000193284B5A6C42F480425A645B6C03F471
:100E400080430193019BA9088A1C234B53F822007D
:100E500005F003039B000F229A4020EA02001A4A81
:100E6000904521D002F5806290451FD002F5806246
:100E700090451DD002F5806290451BD002F580623E
:100E8000904519D002F58062904517D002F5806236
:100E9000904515D002F58062904513D002F580622E
:100EA00090451BD108221AE0002218E0012216E02A
:100EB000022214E0032212E0042210E005220EE0D8
:100EC00006220CE007220AE0000002404C4900081C
:100ED000000011100038024000380140092202FAD7
:100EE00003F3034302311B4A42F821301A4B1A68BC
:100EF000F34302EA0301786810F4803F01D046EA28
:100F00000201154A1160526803EA0201786810F480
:100F1000003F01D046EA02010F4A5160926803EA9D
:100F20000201786810F4801F01D046EA02010A4AE3
:100F30009160D2681340796811F4001F01D046EA2D
:100F40000203054AD36001350F2D7FF6D6AE02B0FD
:100F5000BDE8F08700380140003C014038B5054647
:100F60000C4621B94FF4C871044801F023FE2B69E7
:100F70001C4201D0012038BD002038BD4C4900087A
:100F800070B5064615460C4621B940F2B111084825
:100F900001F010FE012D04D94FF4D971044801F07D
:100FA00009FE0DB1B46170BD2404B46170BD00BF11
:100FB0004C49000808B5044B5B69034203D0024B5F
:100FC000586102F065FA08BD003C014003685A69A7
:100FD00012F4806F0DD06FF480625A6104230364B1
:100FE00000230363202280F83D2080F83C3001205C
:100FF00070470020704700BFF8B506460C461746FC
:101000001D4612E0B5F1FF3F0FD02DB1FFF728FAD2
:10101000069BC01A854208D200233363202286F83B
:101020003D2086F83C300320F8BDC4F30743012B74
:1010300008D133685B6924EA03039BB2B3FA83F3F4
:101040005B0907E033689B6924EA03039BB2B3FAA8
:1010500083F35B09BB42D5D00020F8BDF8B5044648
:101060000D4616461F4629E023685A6912F4806F20
:1010700012D01A6842F400721A6023686FF480621A
:101080005A610423236400232363202284F83D2033
:1010900084F83C300120F8BDB6F1FF3F0ED026B1F8
:1010A000FFF7DEF9C01B864208D20023236320220B
:1010B00084F83D2084F83C300320F8BDC5F3074395
:1010C000012B08D123685B6925EA03039BB2003337
:1010D00018BF012307E023689B6925EA03039BB23D
:1010E000003318BF0123002BBED10020F8BD00BF84
:1010F000F0B583B004460F4615461E46C36A042B5E
:1011000004D0012B02D013F5803F05D1226813686B
:1011100043F48073136007E0036B122B04D1026861
:10112000136843F48073136000962B4600224FF03F
:1011300001112046FFF760FF58BB2369B3F5804FCC
:1011400004D1236807F0FE071F6115E02268FB1138
:1011500003F0060343F0F003136133462A461149B6
:101160002046FFF77BFF20B1236C042B13D1012312
:1011700014E02368FFB21F6133462A460A4920461D
:10118000FFF76CFF034648B1236C042B05D1012304
:1011900004E0032302E0032300E00323184603B026
:1011A000F0BD00BF08000100020001002DE9F04180
:1011B00084B004460F4615461E46C36A042B04D06D
:1011C000012B02D013F5803F0AD12268136843F443
:1011D000806313602268136843F4807313600CE02B
:1011E000036B112B09D10268136843F48063136009
:1011F0000268136843F48073136000962B46002244
:101200004FF001112046FFF7F7FE002851D1236966
:10121000B3F5804F05D1236847F00107FFB21F6186
:101220003AE023684FEAE71808F0060848F0F002B1
:101230001A6133462A4625492046FFF70FFF20B1A1
:10124000236C042B37D101233CE02368FFB21F61DC
:1012500033462A461E492046FFF700FF20B1236C83
:10126000042B2AD101232DE000220392236859691F
:101270000391996903910399196841F48071196088
:1012800000962B464FF001112046FFF7B5FEB0B98E
:10129000226848F0F103136133462A460C49204680
:1012A000FFF7DCFE034668B1236C042B09D1012350
:1012B00008E0032306E0032304E0032302E0032302
:1012C00000E00323184604B0BDE8F08108000100E7
:1012D0000200010070B504460D46164619E020468E
:1012E000FFF774FEE0B9B5F1FF3F12D025B1FFF76B
:1012F000B7F8801B85420CD2236C43F02003236493
:1013000000232363202284F83D2084F83C3003200E
:1013100070BD23685B6913F0800FE0D0002070BDC2
:10132000012070BD70B504460D46164619E02046F2
:10133000FFF74CFEE0B9B5F1FF3F12D025B1FFF742
:101340008FF8801B85420CD2236C43F0200323646A
:1013500000232363202284F83D2084F83C300320BE
:1013600070BD23685B6913F0040FE0D0002070BDEE
:10137000012070BD70B505460C46164622E05A693C
:1013800012F0100F0CD06FF010025A6100232B6482
:101390002B63202285F83D2085F83C30012070BD6C
:1013A00024B1FFF75DF8801B84420BD22B6C43F015
:1013B00020032B64202385F83D30002385F83C3042
:1013C000032070BD2B685A6912F0400FD7D000205F
:1013D00070BD00BF704700BF002800F0E38038B543
:1013E00004460368704A93420CD002F5806293422F
:1013F00008D002F58062934204D040F265116B4838
:1014000001F0D8FB6368013B694A934204D94FF469
:10141000B371664801F0CEFBA3683BB1B3F5804FD2
:1014200004D040F26711614801F0C4FBE36823F483
:101430007F7323F0030323B14FF4B4715B4801F0D1
:10144000B9FB2369B3F5804F07D0B3F5404F04D003
:1014500040F26911554801F0ADFB6369012B04D9D5
:101460004FF4B571514801F0A5FBA36933F0FE03B9
:1014700004D040F26B114D4801F09CFBE36933B19D
:10148000402B04D04FF4B671484801F093FB236A17
:1014900033B1802B04D040F26D11444801F08AFB37
:1014A00094F83D3013F0FF0F05D1002384F83C3051
:1014B0002046FFF78FFF242384F83D30226813680D
:1014C00023F00103136000F0FBFD3A4BA3FB002364
:1014D0009B0C2268536021686568374A954201D8A1
:1014E000013308E04FF4967202FB03F3334AA2FB88
:1014F00003239B0901330B62216863682E4A9342E0
:1015000008D85B00B0FBF3F0C0F30B03032B2BD820
:10151000042029E0A5684DB903EB4302B0FBF2F2C9
:10152000C2F30B02B2FA82F252090AE003EB830221
:1015300002EB8202B0FBF2F2C2F30B02B2FA82F2C9
:10154000520982B935B903EB4303B0FBF3F040F421
:10155000004009E003EB830303EB8303B0FBF3F0EC
:1015600040F4404000E00120C8612268E169236A3C
:101570000B43136022682169E3680B439360226880
:101580006169A3690B43D3602268136843F00103C8
:10159000136000202064202384F83D30206384F809
:1015A0003E0038BD01207047005400407C490008CF
:1015B0007F1A060083DE1B43A0860100D34D621014
:1015C0002DE9F04184B004460D4690461F46FEF7D3
:1015D00047FF94F83D30DBB2202B40F08B8006466D
:1015E0000090192301224A492046FFF705FD0028F3
:1015F00040F0828094F83C30012B7FD0012384F8A6
:101600003C302268136823F400631360212384F8BC
:101610003D30102384F83E3000232364A3F580334B
:10162000E36233460A9A29462046FFF761FD0546E4
:1016300060B1236C042B04D1002384F83C300125D5
:1016400061E0002384F83C3003255CE00023039331
:1016500023685A6903929B690393039B3AE03246DD
:101660000A992046FFF736FE48B1236C042B47D178
:101670002268136843F400731360012543E0236874
:1016800008F1010098F800201A617B1E9BB22268C5
:10169000516911F0040F08D053B198F8013013616B
:1016A000023FBFB208F1020804E01F46804601E095
:1016B0001F46804632460A992046FFF733FE48B15E
:1016C000236C042B1ED12268136843F4007313604B
:1016D000012518E0002FC2D12268136843F400737B
:1016E0001360202384F83D30002384F83E3084F8D2
:1016F0003C3008E0022506E0022504E0022502E075
:10170000032500E00325284604B0BDE8F08100BFB2
:10171000020010002DE9F04186B004460D46174640
:101720001E46FEF79DFE94F83D30DBB2202B40F0C4
:101730000481804600901923012289492046FFF741
:101740005BFC002840F0FB8094F83C30012B00F05B
:10175000F880012384F83C302268136823F4006386
:101760001360222384F83D30102384F83E30002398
:101770002364A3F58033E36243460C9A294620464E
:10178000FFF714FD054660B1236C042B04D1002340
:1017900084F83C300125DFE0002384F83C30032549
:1017A000DAE066B90023029323685A6902929A69C3
:1017B0000292029A1A6842F400721A60B2E0012E94
:1017C00011D12268136823F480631360002303930C
:1017D00023685A6903929A690392039A1A6842F439
:1017E00000721A609EE0022E12D12268136823F460
:1017F000806313602268136843F40063136000235E
:10180000049323685A6904929B690493049B89E0BA
:101810002268136843F480631360002305932368F0
:101820005A6905929B690593059B7BE0032E5BD863
:10183000012E11D142460C992046FFF79BFD20B1A5
:10184000236C202B7FD1032586E023681B693B7026
:10185000013EB6B2013765E0022E1AD1CDF8008004
:101860000C9B00223F492046FFF7C6FB00286CD1A5
:101870002268136843F40073136023681A693B46B7
:1018800003F8022B226812697A70023EB6B21F4634
:1018900048E0CDF800800C9B002232492046FFF73B
:1018A000ABFB002853D12268136823F480631360D4
:1018B00023681B693B70CDF800800C9B00222949EE
:1018C0002046FFF799FB002843D12268136843F4B0
:1018D0000073136023681B697B7023681B69BB70EE
:1018E000033EB6B203371DE042460C992046FFF78F
:1018F00041FD20B1236C202B2DD103252CE0781C39
:1019000023681B693B70731E9BB22268516911F0FA
:10191000040F05D013697B70023EB6B2023701E0B6
:101920001E460746002E81D1202384F83D30002337
:1019300084F83E3084F83C300EE002250CE00225AD
:101940000AE0022508E0012506E0032504E003255E
:1019500002E0032500E00125284606B0BDE8F0813D
:10196000020010000400010030B583B00446036893
:101970000F2B03D9F5219C4801F01CF9236813F0C3
:10198000010F45D06368012B05D9052B03D0FA213F
:10199000954801F00FF9954B9B6803F00C03042B5D
:1019A0000AD0924B9B6803F00C03082B0CD18F4B91
:1019B0005B6813F4800F07D08C4B1B6813F4003F57
:1019C00026D0636823BBCCE12279894B1A70636807
:1019D0007BB1FEF745FD054605E0FEF741FD401BE6
:1019E000642800F2C081814B1B6813F4003FF4D0DF
:1019F0000EE0FEF735FD054605E0FEF731FD401B24
:101A0000642800F2B281794B1B6813F4003FF4D1D3
:101A1000236813F0020F6AD0E368012B04D94FF456
:101A20009671714801F0C6F823691F2B04D940F262
:101A30002D116D4801F0BEF86C4B9B6813F00C0F34
:101A40000AD06A4B9B6803F00C03082B1BD1674B31
:101A50005B6813F4800F16D1644B1B6813F0020F00
:101A600003D0E368012B40F082816048036823F0D3
:101A7000F8012369F82292FAA2F2B2FA82F29340B4
:101A80000B43036033E0E368FBB10122594B1A605A
:101A9000FEF7E6FC054605E0FEF7E2FC401B0228E7
:101AA00000F26781514B1B6813F0020FF4D04F48CE
:101AB000036823F0F8012369F82292FAA2F2B2FA3D
:101AC00082F293400B43036011E00022494B1A60FD
:101AD000FEF7C6FC054605E0FEF7C2FC401B0228E7
:101AE00000F24981414B1B6813F0020FF4D12368C7
:101AF00013F0080F2ED06369012B04D940F26D1149
:101B0000394801F057F8636993B101223A4B1A60E2
:101B1000FEF7A6FC054605E0FEF7A2FC401B0228E6
:101B200000F22B81314B5B6F13F0020FF4D011E008
:101B30000022314B1A60FEF793FC054605E0FEF7E4
:101B40008FFC401B022800F21A81284B5B6F13F0B8
:101B5000020FF4D1236813F0040F60D0A368012BA7
:101B600006D9052B04D040F297111F4801F022F846
:101B7000002301931D4B1A6C42F080521A641B6CB7
:101B800003F080530193019B1C4A136843F4807354
:101B90001360FEF765FC054605E0FEF761FC401B9F
:101BA000022800F2EE80154B1B6813F4807FF4D0FE
:101BB000227A134B1A70A3688BB1FEF751FC0546CD
:101BC00007E0FEF74DFC401B41F28833984200F2DB
:101BD000DA80064B1B6F13F0020FF2D01FE0FEF706
:101BE0003FFC054616E000BFBC4900080038024033
:101BF0000238024000004742800E47420070004019
:101C000070380240FEF72CFC401B41F288339842AA
:101C100000F2BB80634B1B6F13F0020FF2D1A3697C
:101C2000022B04D94FF4E6715F4800F0C3FFA369AB
:101C3000002B00F0AC805B4A926802F00C02082A8C
:101C400000F0A780022B79D1E3693BB1B3F5800F97
:101C500004D040F2D511544800F0ACFF236A3F2B6A
:101C600004D94FF4EB71504800F0A4FF636A323B93
:101C7000B3F5BF7F04D940F2D7114B4800F09AFF6B
:101C8000A36A022B0AD0042B08D0062B06D0082BFF
:101C900004D04FF4EC71444800F08CFFE36A043B3D
:101CA0000B2B04D940F2D9113F4800F083FF0022EA
:101CB0003E4B1A60FEF7D4FB054604E0FEF7D0FB6E
:101CC000401B022867D8374B1B6813F0007FF5D103
:101CD000E169236A1943636A47F6C07292FAA2F275
:101CE000B2FA82F293401943A36A5B085A1E4FF47A
:101CF000403393FAA3F3B3FA83F302FA03F30B43EB
:101D0000E26A4FF0706191FAA1F1B1FA81F18A4073
:101D10001343244A53600122244B1A60FEF7A0FBB0
:101D2000044604E0FEF79CFB001B022835D81D4B3F
:101D30001B6813F0007FF5D0002031E000221B4B20
:101D40001A60FEF78DFB044604E0FEF789FB001BDA
:101D5000022824D8134B1B6813F0007FF5D1002014
:101D60001EE001201CE003201AE0032018E00120FF
:101D700016E0032014E0032012E0032010E003200B
:101D80000EE003200CE003200AE0032008E000201E
:101D900006E0012004E0032002E0032000E003202D
:101DA00003B030BD00380240BC4900086000474223
:101DB000244B9B6803F00C03042B3FD0082B01D06D
:101DC0002148704710B41F4B586800F03F005B6813
:101DD00013F4800F10D01D4BB3FBF0F0194B5A6871
:101DE00047F6C0710A4091FAA1F3B3FA83F322FADD
:101DF00003F303FB00F310E0134BB3FBF0F0114BC4
:101E00005A6847F6C07402EA040194FAA4F2B2FADE
:101E100082F221FA02F202FB00F30A4A506800F44F
:101E200040324FF4403090FAA0F0B0FA80F022FA3D
:101E300000F001304000B3FBF0F001E003487047D0
:101E400010BC7047003802400024F40040787D0147
:101E500070B504460D460368013B0E2B04D940F2D1
:101E600037218F4800F0A6FE072D04D94FF40E71DC
:101E70008B4800F09FFE8B4B1B6803F00F039D42C5
:101E800008D9EBB2874A1370136803F00F039D4221
:101E900040F0F480236813F0020F1DD0A368A3B1B3
:101EA000802B12D0902B10D0A02B0ED0B02B0CD0AA
:101EB000C02B0AD0D02B08D0E02B06D0F02B04D0BA
:101EC00040F24F21764800F075FE77498B6823F089
:101ED000F002A36813438B60236813F0010F6BD0EB
:101EE0006368032B04D940F256216D4800F062FE6E
:101EF0006268012A05D16C4B1B6813F4003F0FD1B7
:101F0000BEE0931E012B05D8674B1B6813F0007FC2
:101F100006D1B7E0644B1B6813F0020F00F0B480E9
:101F200061498B6823F0030313438B60FEF798FA33
:101F300006466368012B0FD107E0FEF791FA801B7C
:101F400041F28833984200F2A180574B9B6803F01E
:101F50000C03042BF1D12FE0022B0FD107E0FEF789
:101F60007FFA801B41F28833984200F291804E4BF9
:101F70009B6803F00C03082BF1D11DE0032B16D155
:101F800007E0FEF76DFA801B41F28833984200F2B9
:101F90008180454B9B6803F00C030C2BF1D10BE0C7
:101FA000FEF75EFA801B41F28833984274D83E4BAC
:101FB0009B6813F00C0FF3D13A4B1B6803F00F032F
:101FC0009D4207D2EAB2374B1A701B6803F00F0329
:101FD0009D4263D1236813F0040F19D0E36883B1E5
:101FE000B3F5805F0DD0B3F5A05F0AD0B3F5C05F45
:101FF00007D0B3F5E05F04D04FF42D71284800F00E
:10200000D9FD29498B6823F4E052E36813438B60C0
:10201000236813F0080F1AD0236983B1B3F5805FEA
:102020000DD0B3F5A05F0AD0B3F5C05F07D0B3F50C
:10203000E05F04D040F2BB21194800F0BBFD1A4A12
:10204000936823F46043216943EAC1039360FFF777
:10205000AFFE154B9B6803F0F002F02393FAA3F355
:10206000B3FA83F322FA03F3104AD35CD840104B3F
:1020700018600F20FEF7BCF9002070BD012070BD74
:10208000012070BD012070BD012070BD032070BD16
:10209000032070BD032070BD032070BD012070BD02
:1020A000BC490008003C024000380240AC4900082E
:1020B0000C000020014B1868704700BF0C00002086
:1020C00008B5FFF7F7FF084B9B6803F4E0524FF4A5
:1020D000E05393FAA3F3B3FA83F322FA03F3034A28
:1020E000D35CD84008BD00BF00380240AC490008AE
:1020F00008B5FFF7DFFF084B9B6803F460424FF41D
:10210000604393FAA3F3B3FA83F322FA03F3034A87
:10211000D35CD84008BD00BF00380240AC4900087D
:10212000704700BF10B504460368234A934237D076
:10213000B3F1804F34D0A2F57C42934230D002F507
:10214000806293422CD002F58062934228D002F53F
:102150008062934224D002F58062934220D002F53F
:10216000704293421CD002F57052934218D002F58F
:102170008062934214D002F58062934210D0A2F59F
:10218000983293420CD002F58062934208D002F557
:102190008062934204D04FF4B271084800F00AFD07
:1021A0002268D36843F00103D3602268136843F0C8
:1021B00001031360002010BD00000140EC4900083D
:1021C000704700BF704700BF704700BF704700BF37
:1021D00010B5044603681A6912F0020F17D0DA68C6
:1021E00012F0020F13D06FF002021A61012303767E
:1021F00003689B6913F0030F02D0FFF7E3FF04E0CD
:10220000FFF7DEFF2046FFF7DFFF0023237623687A
:102210001A6912F0040F19D0DA6812F0040F15D001
:102220006FF004021A610223237623689B6913F47A
:10223000407F03D02046FFF7C5FF05E02046FFF7AB
:10224000BFFF2046FFF7C0FF0023237623681A69EB
:1022500012F0080F19D0DA6812F0080F15D06FF0DD
:1022600008021A61042323762368DB6913F0030F45
:1022700003D02046FFF7A6FF05E02046FFF7A0FFAA
:102280002046FFF7A1FF0023237623681A6912F086
:10229000100F19D0DA6812F0100F15D06FF010027D
:1022A0001A61082323762368DB6913F4407F03D087
:1022B0002046FFF787FF05E02046FFF781FF204615
:1022C000FFF782FF0023237623681A6912F0010FBB
:1022D00009D0DA6812F0010F05D06FF001021A611F
:1022E000204601F013F923681A6912F0800F09D013
:1022F000DA6812F0800F05D06FF080021A61204674
:1023000000F026F923681A6912F0400F09D0DA6844
:1023100012F0400F05D06FF040021A612046FFF71F
:1023200055FF23681A6912F0200F09D0DA6812F0FD
:10233000200F05D06FF020021A61204600F006F948
:1023400010BD00BF0368454A904214D0B0F1804FE1
:1023500013D0A2F57C42904211D002F580629042E7
:102360000FD002F5806290420DD002F57842904283
:102370000BD101220AE0012208E0012206E001223D
:1023800004E0012202E0012200E000221AB123F061
:1023900070034A681343314A90422CD0B0F1804F09
:1023A0002BD0A2F57C42904229D002F58062904267
:1023B00027D002F58062904225D002F57842904203
:1023C00023D002F57052904221D002F580629042F3
:1023D0001FD002F5806290421DD0A2F59832904243
:1023E0001BD002F58062904219D002F580629042C3
:1023F00017D1012216E0012214E0012212E001228D
:1024000010E001220EE001220CE001220AE001228C
:1024100008E0012206E0012204E0012202E001229C
:1024200000E000221AB123F44073CA68134303602A
:102430008B68C3620B688362084B984205D003F532
:102440008063984203D1012302E0012300E00023CE
:102450000BB10B6903630123436170470000014026
:1024600000286DD010B504460368364A934236D032
:10247000B3F1804F33D0A2F57C4293422FD002F5C6
:10248000806293422BD002F58062934227D002F5FE
:102490008062934223D002F5806293421FD002F5FE
:1024A000704293421BD002F57052934217D002F54E
:1024B0008062934213D002F5806293420FD0A2F55E
:1024C000983293420BD002F58062934207D002F516
:1024D0008062934203D0D9211B4800F06BFBA368B4
:1024E0005BB1102B09D0202B07D0402B05D0602BDF
:1024F00003D0DA21144800F05DFB23694BB1B3F53A
:10250000807F06D0B3F5007F03D0DB210E4800F0BA
:1025100051FB94F8393013F0FF0F05D1002384F8F4
:1025200038302046FFF7FCFD022384F83930211DA6
:102530002068FFF707FF012384F83930002010BD21
:102540000120704700000140EC490008704700BFBF
:10255000704700BF2DE9F84304464268B14B9A42E8
:1025600004D940F24F71B04800F024FBE3683BB15E
:10257000B3F5005F04D04FF4EA61AB4800F01AFBFA
:10258000236953B1B3F5806F07D0B3F5C06F04D0A2
:1025900040F25171A44800F00DFB63694FF6F372ED
:1025A000134200D123B940F252719F4800F002FB60
:1025B00021680B6923F44052E36813430B612068E0
:1025C000C36823F4164222F00C02A1682369194360
:1025D00063691943E3690B431343C36021684B6983
:1025E00023F44072A36913434B61E369B3F5004FD1
:1025F00040F0BB80276803F1804303F510439F42FE
:1026000003D003F580639F4257D1FFF771FD00EBC4
:10261000800000EB800065686D00B0FBF5F5834E2F
:10262000A6FB05356D092D01FFF762FD00EB80006B
:1026300000EB800063685B00B0FBF3F9FFF758FD27
:1026400000EB800000EB800063685B00B0FBF3F3FD
:10265000A6FB03235B094FF0640808FB1393DB0020
:102660003233A6FB03235B095B0003F4F8731D44BC
:10267000FFF73EFD00EB800000EB800063685B002D
:10268000B0FBF3F9FFF734FD00EB800000EB8000B6
:1026900063685B00B0FBF3F3A6FB03235B0908FB55
:1026A00013984FEAC80808F13208A6FB0836C6F3AB
:1026B00042163544BD60BDE8F883FFF701FD00EB2D
:1026C000800000EB800065686D00B0FBF5F5574EAB
:1026D000A6FB05356D092D01FFF7F2FC00EB80002C
:1026E00000EB800063685B00B0FBF3F9FFF7E8FCE8
:1026F00000EB800000EB800063685B00B0FBF3F34D
:10270000A6FB03235B094FF0640808FB1393DB006F
:102710003233A6FB03235B095B0003F4F8731D440B
:10272000FFF7CEFC00EB800000EB800063685B00ED
:10273000B0FBF3F9FFF7C4FC00EB800000EB800076
:1027400063685B00B0FBF3F3A6FB03235B0908FBA4
:1027500013984FEAC80808F13208A6FB0836C6F3FA
:1027600042163544BD60BDE8F8832668304B9E4272
:1027700003D003F580639E425CD1FFF7B9FC00EB08
:10278000800000EB80006568AD00B0FBF5F5274FD9
:10279000A7FB05356D092D01FFF7AAFC00EB8000B2
:1027A00000EB800063689B00B0FBF3F8FFF7A0FC30
:1027B00000EB800000EB800063689B00B0FBF3F34C
:1027C000A7FB03235B094FF0640909FB13831B017B
:1027D0003233A7FB03235B0903F0F0031D44FFF72B
:1027E00087FC00EB800000EB800063689B00B0FB7F
:1027F000F3F8FFF77DFC00EB800000EB80006368DE
:102800009B00B0FBF3F3A7FB03235B0909FB1383D6
:102810001B013233A7FB0323C3F343131D44B560ED
:10282000BDE8F883A037A0001C4A00081F85EB51C3
:1028300000100140FFF744FC00EB800000EB80003B
:102840006568AD00B0FBF5F5254FA7FB05356D09B3
:102850002D01FFF735FC00EB800000EB8000636882
:102860009B00B0FBF3F8FFF72BFC00EB800000EBC4
:10287000800063689B00B0FBF3F3A7FB03235B09B5
:102880004FF0640909FB13831B013233A7FB0323B9
:102890005B0903F0F0031D44FFF712FC00EB80001E
:1028A00000EB800063689B00B0FBF3F8FFF708FCC7
:1028B00000EB800000EB800063689B00B0FBF3F34B
:1028C000A7FB03235B0909FB13831B013233A7FB1F
:1028D0000323C3F343131D44B560BDE8F88300BF71
:1028E0001F85EB512DE9F04105460F4616469846E7
:1028F000069C1EE0B4F1FF3F1BD02CB1FDF7B0FDEC
:10290000C8EB0000844214D22A68D36823F4D07341
:10291000D3602A68536923F001035361202385F8AB
:10292000393085F83A30002385F838300320BDE887
:10293000F0812B681B6837EA03030CBF01230023D7
:10294000B342D7D00020BDE8F08100BF704700BF80
:10295000002800F0868010B5044683691BB3036825
:10296000414A93420FD0A2F54C4293420BD002F55C
:102970008062934207D002F54C42934203D0FE217D
:102980003A4800F017F9A36953B3B3F5807F27D015
:10299000B3F5007F24D0B3F5407F21D0FF21334829
:1029A00000F008F91CE003682F4A934218D0A2F502
:1029B0004C42934214D002F58062934210D002F54B
:1029C000806293420CD002F58062934208D002F5F7
:1029D0004442934204D040F20311244800F0EAF844
:1029E000A3683BB1B3F5805F04D040F205111F48E6
:1029F00000F0E0F8E3693BB1B3F5004F04D04FF4C9
:102A000083711A4800F0D6F894F8393013F0FF0FAC
:102A100005D1002384F838302046FFF797FF2423A0
:102A200084F839302268D36823F40053D3602046F9
:102A3000FFF790FD2268136923F490431361226825
:102A4000536923F02A0353612268D36843F4005387
:102A5000D3600020E063202384F8393084F83A30D2
:102A600010BD0120704700BF001001401C4A000843
:102A70002DE9F04182B01E4690F83930DBB2202BB0
:102A800050D104460D46174600294DD0002A4DD09E
:102A900090F83830012B4BD0012380F838300023D8
:102AA000C363212380F83930FDF7DAFC8046A78420
:102AB000E78424E0013BE384A368B3F5805F12D18F
:102AC00000964346002280212046FFF70BFF88BB7B
:102AD00022682B88C3F30803536023690BB90235BE
:102AE0000DE001350BE00096434600228021204690
:102AF000FFF7F8FE00BB23682A785A600135E38CA3
:102B0000002BD7D100964346002240212046FFF7F4
:102B1000E9FE034690B9202284F83920002284F887
:102B200038200CE002230AE0012308E0012306E03C
:102B3000022304E0032302E0032300E003231846FA
:102B400002B0BDE8F08100BFFEE700BF08B5034852
:102B500000F052F80120FFF7F7FF00BF4C4A0008D1
:102B600008B50D4B1B6813B90C4A0B4B1A600A4B86
:102B70001A68C31C23F00303134409498B4206D986
:102B800001F0C4F90C2303604FF0FF3008BD024987
:102B90000B60104608BD00BFA8000020740500208F
:102BA00000FC012001230360014B0B60704700BF54
:102BB0000400002008B50A460146024800F004F867
:102BC000FFF7C4FFA04A00080FB400B583B004AB00
:102BD00053F8042B01938021064801F027FA0028BE
:102BE00003DD0146034800F03BF803B05DF804EB59
:102BF00004B07047B000002010B5044601F0E2F9BF
:102C00000146204600F02CF80121024800F028F887
:102C100010BD00BF904B000810B400221AE04FF026
:102C20006043D3F8803E13F0010F06D04FF06043AD
:102C3000D3F8003E13F0010F01D110460DE04FF024
:102C400060431B68002BFAD004784FF060431C707F
:102C5000013201308A42E2D3084610BC704700BFFF
:102C600008B5FFF7D9FF08BD08B500F081F8024BA1
:102C7000024A9A6008BD00BF00ED00E000000008B5
:102C8000F8B504460D4617461E462648FFF79CFF3A
:102C900021682548FFF798FF61682448FFF794FFF3
:102CA000A1682348FFF790FFE1682248FFF78CFFF7
:102CB00021692148FFF788FF61692048FFF784FFF9
:102CC000A1691F48FFF780FFE1691E48FFF77CFFFD
:102CD0001D48FFF779FF29461C48FFF775FF1C4C7C
:102CE000E16A1C48FFF770FF216B1B48FFF76CFF80
:102CF000E16B1A48FFF768FF15F0800F03D03946E3
:102D00001748FFF761FF15F4004F03D0314615480F
:102D1000FFF75AFF1448FFF757FF06991348FFF7CC
:102D200053FFF8BDF84A0008084B0008184B00088C
:102D3000284B0008384B0008484B0008584B000847
:102D4000684B0008784B0008884B0008944B00083B
:102D500000ED00E0A44B0008B44B0008C44B000891
:102D6000D44B0008E44B0008F44B0008FC4B00086F
:102D70000C4B1A6842F001021A60002199601A682F
:102D800022F0847222F480321A60074A5A601A686C
:102D900022F480221A60D9604FF00062034B9A60DF
:102DA000704700BF003802401030002400ED00E002
:102DB000224B9B6803F00C03042B07D0082B09D08F
:102DC000002B2DD11E4A1F4B1A602CE01E4A1D4BB2
:102DD0001A6028E0194B5A685B6803F03F0312F44D
:102DE000800F09D0184AB2FBF3F2144B5B68C3F3AF
:102DF000881303FB02F208E0114AB2FBF3F30F4A17
:102E00005168C1F3881101FB03F20C4B5B68C3F3FB
:102E1000014301335B00B2FBF3F30A4A136002E0A3
:102E2000074A084B1A60054B9B68C3F30313074A14
:102E3000D15C044A1368CB401360704700380240ED
:102E40000024F4000C00002040787D01404C000874
:102E500082B00190019A43F2B06303FB02F3019345
:102E600002E0019B013B0193019B002BF9D102B0D1
:102E7000704700BF82B00190019B03EB43039A00AF
:102E8000019202E0019B013B0193019B002BF9D1D0
:102E900002B070472DE9F04182B000250195174B33
:102EA0001A6B42F004021A631B6B03F004030193D4
:102EB000019B134C0126266066604FF00308C4F89E
:102EC0000C80104F21463846FDF7B6FE02232360E2
:102ED0000D4A6260A360C4F80C8021463846FDF7B5
:102EE000ABFE2A4631460720FDF71CFE0720FDF702
:102EF0005BFE284602B0BDE8F08100BF003802400A
:102F00006C030020000802400000311010B582B0B0
:102F1000002401940B4B1A6B42F001021A631B6BE5
:102F200003F001030193019B07490C230B6001236C
:102F30004B608C600323CB600448FDF77DFE204688
:102F400002B010BD003802406C03002000000240B7
:102F500070B50D46364C02464FF480712046FEF7A0
:102F60000FF800224FF400712046FEF709F8022006
:102F7000FFF780FFC5F300124FF480512046FDF7A4
:102F8000FFFFC5F340124FF400512046FDF7F8FF54
:102F9000C5F380124FF480412046FDF7F1FFEEB2F9
:102FA000F2094FF400412046FDF7EAFF01224FF4F9
:102FB00000712046FDF7E4FF0220FFF75BFF0022CF
:102FC0004FF400712046FDF7DBFF0220FFF752FFB0
:102FD00006F001024FF480512046FDF7D1FFC5F302
:102FE00040024FF400512046FDF7CAFFC5F38002AE
:102FF0004FF480412046FDF7C3FFC5F3C0024FF4F4
:1030000000412046FDF7BCFF01224FF4007120462D
:10301000FDF7B6FF0220FFF72DFF00224FF40071ED
:103020002046FDF7ADFF0220FFF712FF002070BD24
:103030000008024010B5044604E0013449B2012002
:10304000FFF786FF21780029F7D1002010BD00BFCF
:1030500008B500224FF400711048FDF791FF3321AD
:103060000020FFF775FF32210020FFF771FF2821B4
:103070000020FFF76DFF0F210020FFF769FF0121FE
:103080000020FFF765FF06210020FFF761FF022106
:103090000020FFF75DFF002008BD00BF00080240D0
:1030A00030B583B000240194124B1A6B42F0040235
:1030B0001A631B6B03F004030193019B0E494FF449
:1030C00073430B6001234B608C600223CB600B4D7C
:1030D0002846FDF7B1FD22464FF480712846FDF7E2
:1030E0004FFF22464FF400712846FDF749FF204666
:1030F00003B030BD003802406C03002000080240DD
:1031000008B5FFF7CDFFFFF7A3FF002008BD00BF04
:1031100030B583B000250195114B1A6C42F00102C5
:103120001A641B6C03F0010301930E4C4FF08043B3
:1031300023600D4BE360532363602561A560204647
:10314000FFF78EF92046FEF7EDFF2A4606211C20E8
:10315000FDF7E8FC1C20FDF727FD284603B030BD35
:103160000038024070020020DF93040008B5FFF72A
:10317000CFFF002008BD00BF70B582B000240094CE
:10318000194B5A6C42F480725A645A6C02F4807281
:103190000092009A01941A6B42F001021A631B6BB1
:1031A00003F001030193019B104901260E600323E4
:1031B0004B600F48FDF740FD0E4D0F4B2B606C60D0
:1031C000AC60EC602C61AC61EE610C4BAB622846EC
:1031D000FDF7F8F90A490C604E608C602846FDF74F
:1031E000A1FB204602B070BD003802406C030020F5
:1031F0000000024094010020002001400100000F67
:103200005C03002010B582B000240094174B5A6C68
:1032100042F400725A645A6C02F400720092009AEE
:1032200001941A6B42F001021A631B6B03F0010355
:103230000193019B0E4930230B6003234B600D4823
:10324000FDF7FAFC0C480D4B036044608460C460D9
:10325000046184610123C36103F17063836244618B
:10326000FDF7B0F9204602B010BD00BF00380240A3
:103270006C030020000002404801002000210140B2
:1032800008B5FFF779FFFFF7BDFF002205211220E7
:10329000FDF748FC1220FDF787FC002008BD00BFA9
:1032A00010B582B0002400941A4B1A6B42F002024F
:1032B0001A631A6B02F002020092009A01941A6CCF
:1032C00042F480021A641B6C03F480030193019B97
:1032D00011494FF440630B6012234B6004230B61D0
:1032E00001238B600323CB600C48FDF7A5FC0C4841
:1032F0000C4B03600C4B43604FF48043836080228F
:10330000C260036144618461C4610462FEF764F8D1
:1033100002B010BD003802406C03002000040240DF
:103320001C05002000580040801A060070B582B0CD
:10333000002500951F4B1A6B42F001021A631A6BAD
:1033400002F001020092009A01955A6C42F01002BC
:103350005A645B6C03F010030193019B16494FF410
:10336000C0630B6002234B608D600323CB60072397
:103370000B611248FDF760FC114C124B23604FF4B7
:1033800016536360A560E5602561A5610C23636148
:10339000E5612046FFF7DCFA0B4E304600F012FEE6
:1033A0004FF6FF7382B231462046FFF761FB284695
:1033B00002B070BD003802406C03002000000240E3
:1033C00080040020001001401000002008B5FFF725
:1033D00061FDFFF79BFDFFF793FEFFF761FF002004
:1033E00008BD00BF00B591B0FFF7F0FFFFF748FF41
:1033F000FFF79CFFFFF7BAFE00228DF83C20082162
:103400001B48FDF7BDFD1B4B1B685B6A0A2B09D9E6
:10341000002201211848FDF7B3FD002204211448C1
:10342000FDF7AEFD6FF07F010020FFF791FD134B1C
:103430001A6813490FA800F0A1FD0FA8FFF7FAFDC5
:103440006FF03F010020FFF783FD0E4800F040F9C8
:10345000CDE900010C4A322102A800F05DFD02AA6C
:103460000A490FA800F08AFD0FA8FFF7E3FDCAE79D
:1034700000000240700200200008024030010020DD
:10348000504C00081C050020604C0008644C0008EB
:1034900002282AD108B502211748FDF75FFD01284F
:1034A0000AD1164B1B685A6A154B1A600122082173
:1034B0001448FDF765FD08BD002208211148FDF7FD
:1034C0005FFD0E4B1B685B6A0D4A1068181A10608E
:1034D000400800F073FA06A3D3E9002300F00EFCC5
:1034E00000F0F4FC084B186008BD7047AFF3008093
:1034F0003333333333330740000802407002002077
:1035000034010020000002403001002008B50368AB
:10351000B3F1804F09D1012211460448FDF730FD77
:10352000012204210248FDF72BFD08BD00080240DE
:103530000000024030B595B000240194214B1A6C74
:1035400042F080521A641B6C03F080530193019B7C
:1035500002941D4B1A6842F480421A601B6803F4FF
:1035600080430293029B0123089309934FF4800345
:103570000F93192310934FF4A873119302251295FA
:10358000072313930E9508A8FEF7EEF90F23039374
:10359000049505944FF4A05306934FF4805307937A
:1035A000052103A8FEF754FCFEF784FD074BA3FB9F
:1035B00000308009FDF70EFB0420FDF721FB15B05C
:1035C00030BD00BF0038024000700040D34D621093
:1035D00008B5FCF723FFFFF7ADFFFFF7E9FB08BDD8
:1035E000704700BF08B50348FDF7DCF80248FDF757
:1035F000D9F808BD940100204801002008B5024810
:10360000FEF7E6FD08BD00BF7002002008B50248C5
:10361000FEF7DEFD08BD00BFE004002008B502484B
:10362000FEF7D6FD08BD00BFF801002008B502482E
:10363000FEF7CEFD08BD00BF3402002008B5012012
:10364000FDF7B8FC08BD00BF08B50220FDF7B2FCCD
:1036500008BD00BF08B50420FDF7ACFC08BD00BFE5
:1036600008B54FF48070FDF7A5FC08BD08B54FF410
:103670000060FDF79FFC4FF48050FDF79BFC4FF47A
:103680000050FDF797FC08BD704700BFFEE700BF84
:10369000FEE700BFFEE700BFFEE700BF704700BFC8
:1036A000704700BF704700BF08B5FCF7D1FE08BDEA
:1036B00082B00190019B03EB43039A00019202E068
:1036C000019B013B0193019B002BF9D102B0704794
:1036D00030B587B0054606AAE32302F80C3D642402
:1036E000009401238021FDF76BFF0094032305AABA
:1036F00081212846FEF70EF80120FFF7D9FF9DF83B
:1037000014009DF8153043EA002000F067F906A385
:10371000D3E9002300F0C8F905A3D3E9002300F0A2
:103720000FF807B030BD00BFD7A3703D0AF7653F63
:10373000CDCCCCCCCC6C474081F0004102E000BF46
:1037400083F0004330B54FEA41044FEA430594EA61
:10375000050F08BF90EA020F1FBF54EA000C55EA9C
:10376000020C7FEA645C7FEA655C00F0E2804FEA6D
:103770005454D4EB5555B8BF6D420CDD2C4480EA4F
:10378000020281EA030382EA000083EA010180EA7F
:10379000020281EA0303362D88BF30BD11F0004FCD
:1037A0004FEA01314FF4801C4CEA113102D0404203
:1037B00061EB410113F0004F4FEA03334CEA13333E
:1037C00002D0524263EB430394EA050F00F0A78056
:1037D000A4F10104D5F1200E0DDB02FA0EFC22FA51
:1037E00005F2801841F1000103FA0EF2801843FA45
:1037F00005F359410EE0A5F120050EF1200E012A36
:1038000003FA0EFC28BF4CF0020C43FA05F3C01873
:1038100051EBE37101F0004507D54FF0000EDCF1EC
:10382000000C7EEB00006EEB0101B1F5801F1BD395
:10383000B1F5001F0CD349085FEA30004FEA3C0C99
:1038400004F101044FEA445212F5800F80F09A808F
:10385000BCF1004F08BF5FEA500C50F1000041EB93
:10386000045141EA050130BD5FEA4C0C404141EB97
:10387000010111F4801FA4F10104E9D191F0000FBE
:1038800004BF01460020B1FA81F308BF2033A3F141
:103890000B03B3F120020CDA0C3208DD02F1140C38
:1038A000C2F10C0201FA0CF021FA02F10CE002F173
:1038B0001402D8BFC2F1200C01FA02F120FA0CFC6C
:1038C000DCBF41EA0C019040E41AA2BF01EB0451B5
:1038D000294330BD6FEA04041F3C1CDA0C340EDCB3
:1038E00004F11404C4F1200220FA04F001FA02F3F6
:1038F00040EA030021FA04F345EA030130BDC4F1B4
:103900000C04C4F1200220FA02F001FA04F340EAA8
:103910000300294630BD21FA04F0294630BD94F059
:10392000000F83F4801306BF81F480110134013D40
:103930004EE77FEA645C18BF7FEA655C29D094EAB1
:10394000050F08BF90EA020F05D054EA000C04BF2F
:103950001946104630BD91EA030F1EBF002100201A
:1039600030BD5FEA545C05D14000494128BF41F0B9
:10397000004130BD14F580043CBF01F5801130BD1D
:1039800001F0004545F0FE4141F470014FF00000A8
:1039900030BD7FEA645C1ABF194610467FEA655C59
:1039A0001CBF0B46024650EA013406BF52EA0335FB
:1039B00091EA030F41F4002130BD00BF90F0000FE9
:1039C00004BF0021704730B54FF4806404F1320425
:1039D0004FF000054FF0000150E700BF90F0000FDE
:1039E00004BF0021704730B54FF4806404F1320405
:1039F00010F0004548BF40424FF000013EE700BFD5
:103A000042004FEAE2014FEA31014FEA02701FBF64
:103A100012F07F4393F07F4F81F06051704792F036
:103A2000000F14BF93F07F4F704730B54FF46074B0
:103A300001F0004521F0004120E700BF50EA0102FB
:103A400008BF704730B54FF000050AE050EA0102A8
:103A500008BF704730B511F0004502D5404261EB18
:103A600041014FF4806404F132045FEA915C3FF459
:103A7000DCAE4FF003025FEADC0C18BF03325FEAF2
:103A8000DC0C18BF033202EBDC02C2F1200300FAA7
:103A900003FC20FA02F001FA03FE40EA0E0021FACC
:103AA00002F11444C1E600BF70B54FF0FF0C4CF4B6
:103AB000E06C1CEA11541DBF1CEA135594EA0C0F6C
:103AC00095EA0C0F00F0DEF82C4481EA030621EAA7
:103AD0004C5123EA4C5350EA013518BF52EA0335E2
:103AE00041F4801143F4801338D0A0FB02CE4FF094
:103AF0000005E1FB02E506F00042E0FB03E54FF0C4
:103B00000006E1FB03569CF0000F18BF4EF0010EBB
:103B1000A4F1FF04B6F5007F64F5407404D25FEAB7
:103B20004E0E6D4146EB060642EAC62141EA55516A
:103B30004FEAC52040EA5E504FEACE2EB4F1FD0CAC
:103B400088BFBCF5E06F1ED8BEF1004F08BF5FEA2A
:103B5000500E50F1000041EB045170BD06F00046DC
:103B600046EA010140EA020081EA0301B4EB5C0489
:103B7000C2BFD4EB0C0541EA045170BD41F4801181
:103B80004FF0000E013C00F3AB8014F1360FDEBFA6
:103B9000002001F0004170BDC4F10004203C35DA82
:103BA0000C341BDC04F11404C4F1200500FA05F305
:103BB00020FA04F001FA05F240EA020001F00042A6
:103BC00021F0004110EBD37021FA04F642EB06011C
:103BD0005EEA430E08BF20EAD37070BDC4F10C0446
:103BE000C4F1200500FA04F320FA05F001FA04F20A
:103BF00040EA020001F0004110EBD37041F10001F6
:103C00005EEA430E08BF20EAD37070BDC4F1200500
:103C100000FA05F24EEA020E20FA04F301FA05F268
:103C200043EA020321FA04F001F0004121FA04F210
:103C300020EA020000EBD3705EEA430E08BF20EAE0
:103C4000D37070BD94F0000F0FD101F0004640001A
:103C500041EB010111F4801F08BF013CF7D041EA9C
:103C6000060195F0000F18BF704703F000465200A0
:103C700043EB030313F4801F08BF013DF7D043EA71
:103C80000603704794EA0C0F0CEA135518BF95EA27
:103C90000C0F0CD050EA410618BF52EA4306D1D1AE
:103CA00081EA030101F000414FF0000070BD50EACD
:103CB000410606BF1046194652EA430619D094EA57
:103CC0000C0F02D150EA013613D195EA0C0F05D141
:103CD00052EA03361CBF104619460AD181EA030195
:103CE00001F0004141F0FE4141F470014FF000004D
:103CF00070BD41F0FE4141F4780170BD70B54FF0E8
:103D0000FF0C4CF4E06C1CEA11541DBF1CEA135567
:103D100094EA0C0F95EA0C0F00F0A7F8A4EB050449
:103D200081EA030E52EA03354FEA013100F0888040
:103D30004FEA03334FF0805545EA131343EA126309
:103D40004FEA022245EA111545EA10654FEA0026BE
:103D50000EF000419D4208BF964244F1FD0404F577
:103D6000407402D25B084FEA3202B61A65EB0305D3
:103D70005B084FEA32024FF480104FF4002CB6EB90
:103D8000020E75EB030E22BFB61A754640EA0C0010
:103D90005B084FEA3202B6EB020E75EB030E22BF50
:103DA000B61A754640EA5C005B084FEA3202B6EB91
:103DB000020E75EB030E22BFB61A754640EA9C0050
:103DC0005B084FEA3202B6EB020E75EB030E22BF20
:103DD000B61A754640EADC0055EA060E18D04FEADE
:103DE000051545EA16754FEA06164FEAC30343EA7E
:103DF00052734FEAC2025FEA1C1CC0D111F4801F4B
:103E00000BD141EA00014FF000004FF0004CB6E743
:103E100011F4801F04BF01430020B4F1FD0C88BFE2
:103E2000BCF5E06F3FF6AFAEB5EB030C04BFB6EBED
:103E3000020C5FEA500C50F1000041EB045170BDE0
:103E40000EF0004E4EEA113114EB5C04C2BFD4EB0D
:103E50000C0541EA045170BD41F480114FF0000E91
:103E6000013C90E645EA060E8DE60CEA135594EA0D
:103E70000C0F08BF95EA0C0F3FF43BAF94EA0C0F10
:103E80000AD150EA01347FF434AF95EA0C0F7FF485
:103E900025AF104619462CE795EA0C0F06D152EAD9
:103EA00003353FF4FDAE1046194622E750EA4106BD
:103EB00018BF52EA43067FF4C5AE50EA41047FF4CE
:103EC0000DAF52EA43057FF4EBAE12E74A0011D280
:103ED00012F5001211D20DD56FF47873B3EB625264
:103EE0000ED44FEAC12343F0004343EA505323FA70
:103EF00002F070474FF00000704750EA013002D1E5
:103F00004FF0FF3070474FF000007047014B1868CA
:103F1000704700BF9C0000200CB430B5164B0C1E3F
:103F20009DB01D6804DA8B232B604FF0FF301EE03C
:103F30004FF40273ADF8143014BF04F1FF3323467D
:103F4000049307934FF6FF7302900690ADF8163076
:103F5000209A21AB02A92846019300F0CFF8431C18
:103F6000BCBF8B232B6014B1029B00221A701DB0C2
:103F7000BDE8304002B070479C0000200EB400B590
:103F80009CB04FF402711DABADF814100290069076
:103F90006FF000410A48049107914FF6FF7153F802
:103FA000042BADF816100068019302A900F0A6F8E2
:103FB000029B00221A701CB05DF804EB03B070473E
:103FC0009C000020034613F8012B002AFBD1181A8D
:103FD0000138704730B5141E05469BB0184604DA08
:103FE0008B232B604FF0FF301DE04FF40273ADF8D0
:103FF0000C3014BF04F1FF332346029305934FF6B0
:10400000FF7300910491ADF80E3002461E9B694685
:10401000284600F073F8431CBCBF8B232B6014B1FF
:10402000009B00221A701BB030BD000007B5009342
:1040300013460A46014603480068FFF7CBFF03B06A
:104040005DF804FB9C0000202DE9F0478E689E423D
:1040500082460C46914698463ED88A8912F4906F63
:104060003AD0256809696F1A6569022305EB450591
:1040700095FBF3F57B1C43449D4238BF1D46530519
:104080000FD5294600F090FB064698B13A462169C3
:1040900000F016FBA38923F4906343F08003A3810F
:1040A00013E02A4600F0DEFB064670B9216950464F
:1040B00000F02CFB0C23CAF80030A38943F0400326
:1040C000A3814FF0FF30BDE8F087266165613E4473
:1040D000ED1B2660A5604646464528BF464632464B
:1040E0004946206800F0F7FAA3689B1BA360236889
:1040F0001E4426600020BDE8F08700002DE9F04F47
:104100009DB0804603938B891C060D4616460DD53F
:104110000B695BB9402100F047FB2860286118B9A2
:104120000C23C8F80030CDE040236B6100230993D5
:1041300020238DF82930DFF89CB130238DF82A3008
:1041400037463C4614F8013B1BB9B7EB060910D0C3
:1041500003E0252BF9D02746F3E74B4632462946A4
:104160004046FFF771FF013000F0A780099B4B44E8
:1041700009933B78002B00F0A08000234FF0FF3222
:1041800004930793059206938DF853301A930126F2
:10419000052221784E4800F043FA671C049B38B191
:1041A0004B4A801A06FA00F0184304903C46EFE7A9
:1041B000D90644BF20228DF853201A0744BF2B2272
:1041C0008DF8532022782A2A03D0079A00210A204A
:1041D0000BE0039A111D12680391002A10DA524273
:1041E00043F00200079204900BE0274601343B782D
:1041F000303B092B03D800FB02320121F5E701B166
:1042000007923B782E2B1ED17B782A2B0AD1039B59
:104210001A1D1B680392002BB8BF4FF0FF33023703
:10422000059310E000230593781C19460A240746DD
:1042300001303A78303A092A03D804FB01210123DE
:10424000F5E703B1059103223978224800F0E8F937
:1042500040B14023CBEB000003FA00F0049B18436D
:104260000490013739781C488DF8281006227E1CEE
:1042700000F0D6F988B1194B33B9039B073323F00B
:1042800007030833039314E003AB00932A46144B4F
:1042900004A94046AFF3008007E003AB00932A4631
:1042A0000F4B04A9404600F093F8B0F1FF3F82465F
:1042B00003D0099B5344099342E7AB895B0601D4C1
:1042C000099801E04FF0FF301DB0BDE8F08F00BF4E
:1042D000B44C0008BA4C0008BE4C000800000000B6
:1042E000494000082DE9F04791461F460A698B684E
:1042F000DDF820809342B8BF1346C9F8003091F82A
:10430000432006460C4612B10133C9F80030236839
:10431000990642BFD9F800300233C9F80030256849
:1043200015F0060510D104F1190A07E001235246E1
:1043300039463046C04701301AD00135E368D9F814
:1043400000209B1A9D42F1DB94F843302268003331
:1043500018BF012392060FD5E1185A1C302081F8AE
:104360004300224494F8451082F84310023303E0DE
:104370004FF0FF30BDE8F08704F143023946304684
:10438000C0470130F4D02268D9F80050E36802F049
:104390000602042A08BF5D1B2269A3680CBF25EA38
:1043A000E57500259342C4BF9B1AED184FF0000934
:1043B0001A344D4509D00123224639463046C047BC
:1043C0000130D5D009F10109F3E70020BDE8F087FD
:1043D0002DE9F04317460A7E85B06E2A98460646B8
:1043E0000C460C9B01F1430E00F0AE8011D8632AFD
:1043F00022D009D8002A00F0BB80582A40F0CA8099
:1044000081F84520834955E0642A1ED0692A1CD0D2
:10441000C0E0732A00F0B08009D86F2A2ED0702A2D
:1044200040F0B8800A6842F020020A603EE0752A37
:1044300024D0782A3AD0ADE01A6801F14205111D66
:104440001960136884F84230A8E021681A6811F0F6
:10445000800F02D0111D196008E011F0400F02F129
:104460000401196002D0B2F9003000E01368002B9B
:104470003CDA2D225B4284F8432037E021681A6839
:1044800011F0800F02D0111D196007E011F0400FEC
:1044900002F10401196001D0138800E01368227E44
:1044A0005C496F2A14BF0A2208221BE078225A496D
:1044B00084F845202268186812F0800F00F1040586
:1044C0001D6003D1550601D5038800E00368D007BD
:1044D00044BF42F0200222601BB9226822F0200271
:1044E00022601022002084F8430001E049490A229A
:1044F0006568A560002D08DB206820F004002060BE
:104500002BB9002D7DD175460CE0002B79D0754676
:10451000B3FBF2F002FB1033CB5C05F8013D034620
:104520000028F5D1082A0BD12368DA0708D52369BA
:1045300062689A42DEBF302305F8013C05F1FF3581
:10454000C5EB0E0323612EE008681A68496910F074
:10455000800F03D0101D1860136808E010F0400FA2
:1045600002F104001860136801D0198000E019609E
:1045700000232361754616E01A68111D196015683D
:1045800062680021284600F04BF808B1401B6060CB
:10459000636804E004F1420584F8422001232361AA
:1045A000002384F84330CDF800803B4603AA21461F
:1045B0003046FFF797FE013002D14FF0FF3026E082
:1045C00023692A4639463046C0470130F5D0236872
:1045D0009B0710D5002504F1190907E001234A467D
:1045E00039463046C0470130E7D00135E368039AC9
:1045F0009B1A9D42F2DBE068039B9842B8BF1846C5
:1046000005E00B7884F8423004F142058AE705B0F2
:10461000BDE8F083C54C0008D64C0008000000003F
:1046200001F0FF01102A2BDB10F0070F08D010F863
:10463000013B013A8B422DD010F0070F42B3F6D167
:10464000F0B441EA012141EA014122F007047FF080
:1046500000070023F0E80256083C85EA010586EAD7
:10466000010685FA47F5A3FA87F586FA47F6A5FA13
:1046700087F68EB9EED1F0BC01F0FF0102F007021F
:1046800032B110F8013B013A83EA010313B1F8D1CA
:104690000020704701387047002D06BF35460338AB
:1046A000073815F0010F07D1013015F4807F02BFE4
:1046B000013015F4C03F0130F0BC0138704700BF35
:1046C00010B5431E0A44914204D011F8014B03F87F
:1046D000014FF8E710BD884210B501EB020301D885
:1046E000421E0BE09842FBD28118D21AD34204D06A
:1046F00013F8014D01F8014DF8E710BD994204D0BF
:1047000011F8014B02F8014FF8E710BD38B5054626
:10471000002946D051F8043C0C1F002BB8BFE41808
:1047200000F0D6F81F4A1368114613B9636014608D
:1047300032E0A3420ED92268A018834204BF186851
:104740005B68636004BF121822600C6024E0A24220
:1047500003D813465A68002AF9D118681918A142DB
:104760000BD12168014458188242196014D1106895
:1047700052685A60014419600EE002D90C232B6084
:104780000AE021686018824204BF106852686260C3
:1047900004BF091821605C602846BDE8384000F07D
:1047A00098B838BD3C01002070B5CD1C25F003053C
:1047B00008350C2D38BF0C25002D064601DBA9421B
:1047C00002D90C23336046E000F082F8234B1C68CA
:1047D0001A462146A1B10B685B1B0ED40B2B03D9E3
:1047E0000B60CC18CD501EE08C420DBF63684B6847
:1047F0006360136018BF0C4615E00C464968E9E792
:10480000174C23681BB9304600F052F82060294647
:10481000304600F04DF8431C18D0C41C24F00304AB
:10482000A0420DD12560304600F053F804F10B0092
:10483000231D20F00700C31A0ED05A42E25070BD6B
:10484000211A304600F034F80130EBD10C233360EC
:10485000304600F03EF8002070BD00BF3C01002053
:1048600038010020F8B5074615460E4621B9114615
:10487000BDE8F840FFF798BF1AB9FFF747FF284691
:10488000F8BD00F027F885420ED929463846FFF7D3
:104890008BFF044650B131462A46FFF711FF3146DF
:1048A0003846FFF733FF01E03046F8BD2046F8BD3B
:1048B00038B5064C0023054608462360FEF750F93C
:1048C000431C02D1236803B12B6038BD4401002092
:1048D0007047704751F8040C0028BEBF091851F802
:1048E000043CC018043870472E2E2F7379737465FA
:1048F0006D2F7372632F73746D333266342D68615C
:104900006C2F73746D3332663478785F68616C5FD6
:104910006164632E630000002E2E2F73797374651B
:104920006D2F7372632F73746D333266342D68612B
:104930006C2F73746D3332663478785F68616C5FA6
:10494000636F727465782E63000000002E2E2F7343
:10495000797374656D2F7372632F73746D33326660
:10496000342D68616C2F73746D3332663478785FE0
:1049700068616C5F6770696F2E6300002E2E2F7365
:10498000797374656D2F7372632F73746D33326630
:10499000342D68616C2F73746D3332663478785FB0
:1049A00068616C5F6932632E6300000000000000E4
:1049B0000102030401020304060708092E2E2F73C7
:1049C000797374656D2F7372632F73746D333266F0
:1049D000342D68616C2F73746D3332663478785F70
:1049E00068616C5F7263632E630000002E2E2F736C
:1049F000797374656D2F7372632F73746D333266C0
:104A0000342D68616C2F73746D3332663478785F3F
:104A100068616C5F74696D2E630000002E2E2F7329
:104A2000797374656D2F7372632F73746D3332668F
:104A3000342D68616C2F73746D3332663478785F0F
:104A400068616C5F756172742E63000061626F72E1
:104A50007428292C2065786974696E672E2E2E00C3
:104A60002C2066756E6374696F6E3A20000000003A
:104A7000617373657274696F6E20222573222066DC
:104A800061696C65643A2066696C65202225732231
:104A90002C206C696E65202564257325730A00003F
:104AA0006173736572745F706172616D282920662D
:104AB00061696C65643A2066696C65202225732201
:104AC0002C206C696E652025640A00006D61696E9A
:104AD00028617267633D25642C20617267763D5BB7
:104AE000000000002C20000022257322000000009E
:104AF0005D293B0A00000000537461636B206672FD
:104B0000616D653A0A000000205230203D202025CA
:104B10003038580A00000000205231203D20202566
:104B20003038580A00000000205232203D20202555
:104B30003038580A00000000205233203D20202544
:104B40003038580A0000000020523132203D202524
:104B50003038580A00000000204C52203D2020250B
:104B60003038580A00000000205043203D20202506
:104B70003038580A0000000020505352203D2025B4
:104B80003038580A000000004653522F4641523A2E
:104B90000A0000002043465352203D202025303893
:104BA000580A00002048465352203D202025303826
:104BB000580A00002044465352203D20202530381A
:104BC000580A00002041465352203D20202530380D
:104BD000580A0000204D4D464152203D20253038D6
:104BE000580A00002042464152203D2020253038FE
:104BF000580A00004D6973630A000000204C522FD0
:104C00004558435F52455455524E3D202530385843
:104C10000A0000005B486172644661756C745D0A4D
:104C2000000000005B4275734661756C745D0A009C
:104C30005B55736167654661756C745D0A000000C1
:104C4000000000000000000001020304060708093C
:104C5000554C545241203A2025346C750000000018
:104C60002566000054454D503A2573006D757465F6
:104C700000000000444F3420000000005245342062
:104C8000000000004D49342000000000464134205F
:104C900000000000534F3420000000004C4134203D
:104CA000000000005349342000000000444F35202C
:104CB00000000000232D302B2000686C4C0065663E
:104CC000674546470030313233343536373839415D
:104CD0004243444546003031323334353637383973
:074CE0006162636465660078
:104CE80078563412AC000020000000000024F400C4
:104CF8002F2A203D3D3D3D3D3D3D3D3D20576F72B6
:104D08006B73686F702054657374203D3D3D3D3D65
:104D18003D3D3D3D2A2F0A0D00FFFFFF000000002A
:104D2800000000000000000000000000000000007B
:104D3800000000000000000000000000000000006B
:104D4800000000000000000000000000000000005B
:104D5800000000000000000000000000000000004B
:104D6800000000000000000000000000000000003B
:104D78000000000000000000000000003C000020CF
:044D88003254769893
:040000050800018965
:00000001FF
